{
  "address": "0x5FbDB2315678afecb367f032d93F642f64180aa3",
  "abi": [
    {
      "anonymous": false,
      "inputs": [
        {
          "indexed": true,
          "internalType": "address",
          "name": "owner",
          "type": "address"
        },
        {
          "indexed": true,
          "internalType": "address payable[]",
          "name": "delegated",
          "type": "address[]"
        },
        {
          "indexed": true,
          "internalType": "address payable[]",
          "name": "receivers",
          "type": "address[]"
        }
      ],
      "name": "delegationConfirmed",
      "type": "event"
    },
    {
      "stateMutability": "payable",
      "type": "fallback"
    },
    {
      "inputs": [
        {
          "internalType": "address payable",
          "name": "_newDelegate",
          "type": "address"
        },
        {
          "internalType": "address payable",
          "name": "_contractAddress",
          "type": "address"
        }
      ],
      "name": "addDelegated",
      "outputs": [],
      "stateMutability": "nonpayable",
      "type": "function"
    },
    {
      "inputs": [
        {
          "internalType": "address payable",
          "name": "_rx",
          "type": "address"
        },
        {
          "internalType": "address payable",
          "name": "_contractAddress",
          "type": "address"
        }
      ],
      "name": "addReceiver",
      "outputs": [],
      "stateMutability": "nonpayable",
      "type": "function"
    },
    {
      "inputs": [
        {
          "internalType": "address",
          "name": "",
          "type": "address"
        }
      ],
      "name": "addressDelegated",
      "outputs": [
        {
          "internalType": "bool",
          "name": "",
          "type": "bool"
        }
      ],
      "stateMutability": "view",
      "type": "function"
    },
    {
      "inputs": [
        {
          "internalType": "address",
          "name": "",
          "type": "address"
        }
      ],
      "name": "addressReceived",
      "outputs": [
        {
          "internalType": "bool",
          "name": "",
          "type": "bool"
        }
      ],
      "stateMutability": "view",
      "type": "function"
    },
    {
      "inputs": [
        {
          "internalType": "address",
          "name": "",
          "type": "address"
        }
      ],
      "name": "amountOfContracts",
      "outputs": [
        {
          "internalType": "uint256",
          "name": "",
          "type": "uint256"
        }
      ],
      "stateMutability": "view",
      "type": "function"
    },
    {
      "inputs": [
        {
          "internalType": "address payable[]",
          "name": "_delegate",
          "type": "address[]"
        },
        {
          "internalType": "address payable[]",
          "name": "_allowedRx",
          "type": "address[]"
        },
        {
          "internalType": "uint256[]",
          "name": "_amountRx",
          "type": "uint256[]"
        }
      ],
      "name": "delegate",
      "outputs": [
        {
          "internalType": "address payable",
          "name": "",
          "type": "address"
        }
      ],
      "stateMutability": "nonpayable",
      "type": "function"
    },
    {
      "inputs": [
        {
          "internalType": "address payable",
          "name": "_delegate",
          "type": "address"
        },
        {
          "internalType": "address payable",
          "name": "_contractAddress",
          "type": "address"
        }
      ],
      "name": "deleteDelegate",
      "outputs": [],
      "stateMutability": "nonpayable",
      "type": "function"
    },
    {
      "inputs": [
        {
          "internalType": "address payable",
          "name": "_rx",
          "type": "address"
        },
        {
          "internalType": "address payable",
          "name": "_contractAddress",
          "type": "address"
        }
      ],
      "name": "deleteReceiver",
      "outputs": [],
      "stateMutability": "nonpayable",
      "type": "function"
    },
    {
      "inputs": [
        {
          "internalType": "address payable",
          "name": "_rxContract",
          "type": "address"
        }
      ],
      "name": "fundContract",
      "outputs": [
        {
          "internalType": "bool",
          "name": "success",
          "type": "bool"
        }
      ],
      "stateMutability": "payable",
      "type": "function"
    },
    {
      "inputs": [
        {
          "internalType": "address payable",
          "name": "_proxy",
          "type": "address"
        }
      ],
      "name": "getDelegateContractData",
      "outputs": [
        {
          "internalType": "uint256",
          "name": "",
          "type": "uint256"
        },
        {
          "internalType": "address payable",
          "name": "",
          "type": "address"
        },
        {
          "internalType": "address payable[]",
          "name": "",
          "type": "address[]"
        },
        {
          "internalType": "address payable[]",
          "name": "",
          "type": "address[]"
        }
      ],
      "stateMutability": "view",
      "type": "function"
    },
    {
      "inputs": [
        {
          "internalType": "address payable",
          "name": "owner",
          "type": "address"
        }
      ],
      "name": "getLastDelegateContract",
      "outputs": [
        {
          "internalType": "address",
          "name": "",
          "type": "address"
        }
      ],
      "stateMutability": "view",
      "type": "function"
    },
    {
      "inputs": [
        {
          "internalType": "address",
          "name": "",
          "type": "address"
        }
      ],
      "name": "ownerOfContract",
      "outputs": [
        {
          "internalType": "address",
          "name": "",
          "type": "address"
        }
      ],
      "stateMutability": "view",
      "type": "function"
    },
    {
      "inputs": [
        {
          "internalType": "address",
          "name": "",
          "type": "address"
        },
        {
          "internalType": "uint256",
          "name": "",
          "type": "uint256"
        }
      ],
      "name": "ownerToContract",
      "outputs": [
        {
          "internalType": "address",
          "name": "",
          "type": "address"
        }
      ],
      "stateMutability": "view",
      "type": "function"
    },
    {
      "inputs": [
        {
          "internalType": "address payable",
          "name": "_contract",
          "type": "address"
        }
      ],
      "name": "withdrawFromDelegateContract",
      "outputs": [
        {
          "internalType": "bool",
          "name": "",
          "type": "bool"
        }
      ],
      "stateMutability": "payable",
      "type": "function"
    },
    {
      "stateMutability": "payable",
      "type": "receive"
    }
  ],
  "transactionHash": "0x1691a5ecf653996d83c4ece6126e6ef9a3491772ff9be693a09a5500ceeab208",
  "args": [],
  "numDeployments": 1,
  "solcInputHash": "49af2f159867b6df34083ab07dd66087",
  "bytecode": "0x608060405234801561001057600080fd5b506145db806100206000396000f3fe608060405260043610620000f75760003560e01c806384fdbd9b116200008b578063d37719d61162000061578063d37719d61462000354578063e1b98196146200038a578063e2e16e7514620003ce578063f28ae407146200040457620000ff565b806384fdbd9b14620002855780638fb1642e14620002c9578063a3229ef4146200030d57620000ff565b8063471b3d9611620000cd578063471b3d9614620001a15780636d01460514620001cf5780637aee9f9614620001fd5780637bffeeb7146200024157620000ff565b80630cd1e98814620001015780633f00af1414620001455780634101f89b146200017357620000ff565b36620000ff57005b005b3480156200010e57600080fd5b506200012d6004803603810190620001279190620018c6565b62000448565b6040516200013c919062001915565b60405180910390f35b3480156200015257600080fd5b506200017160048036038101906200016b919062001977565b62000468565b005b3480156200018057600080fd5b506200019f600480360381019062000199919062001977565b6200069a565b005b348015620001ae57600080fd5b50620001cd6004803603810190620001c7919062001977565b620008cc565b005b348015620001dc57600080fd5b50620001fb6004803603810190620001f5919062001977565b62000b01565b005b3480156200020a57600080fd5b50620002296004803603810190620002239190620019be565b62000d36565b60405162000238919062001a01565b60405180910390f35b3480156200024e57600080fd5b506200026d600480360381019062000267919062001a59565b62000f56565b6040516200027c919062001a01565b60405180910390f35b3480156200029257600080fd5b50620002b16004803603810190620002ab9190620018c6565b62000f98565b604051620002c0919062001a01565b60405180910390f35b348015620002d657600080fd5b50620002f56004803603810190620002ef919062001b6d565b62000fcb565b60405162000304919062001c44565b60405180910390f35b3480156200031a57600080fd5b50620003396004803603810190620003339190620019be565b62001387565b6040516200034b949392919062001d40565b60405180910390f35b6200037260048036038101906200036c9190620019be565b62001520565b60405162000381919062001915565b60405180910390f35b3480156200039757600080fd5b50620003b66004803603810190620003b09190620018c6565b6200167b565b604051620003c5919062001d9b565b60405180910390f35b620003ec6004803603810190620003e69190620019be565b62001693565b604051620003fb919062001915565b60405180910390f35b3480156200041157600080fd5b506200043060048036038101906200042a9190620018c6565b6200181f565b6040516200043f919062001915565b60405180910390f35b60046020528060005260406000206000915054906101000a900460ff1681565b803373ffffffffffffffffffffffffffffffffffffffff16600260008373ffffffffffffffffffffffffffffffffffffffff1673ffffffffffffffffffffffffffffffffffffffff16815260200190815260200160002060009054906101000a900473ffffffffffffffffffffffffffffffffffffffff1673ffffffffffffffffffffffffffffffffffffffff161462000539576040517f08c379a0000000000000000000000000000000000000000000000000000000008152600401620005309062001e3f565b60405180910390fd5b600460008473ffffffffffffffffffffffffffffffffffffffff1673ffffffffffffffffffffffffffffffffffffffff16815260200190815260200160002060009054906101000a900460ff16620005c8576040517f08c379a0000000000000000000000000000000000000000000000000000000008152600401620005bf9062001ed7565b60405180910390fd5b60008290508073ffffffffffffffffffffffffffffffffffffffff16638da5f385856040518263ffffffff1660e01b815260040162000608919062001c44565b600060405180830381600087803b1580156200062357600080fd5b505af115801562000638573d6000803e3d6000fd5b505050506000600460008673ffffffffffffffffffffffffffffffffffffffff1673ffffffffffffffffffffffffffffffffffffffff16815260200190815260200160002060006101000a81548160ff02191690831515021790555050505050565b803373ffffffffffffffffffffffffffffffffffffffff16600260008373ffffffffffffffffffffffffffffffffffffffff1673ffffffffffffffffffffffffffffffffffffffff16815260200190815260200160002060009054906101000a900473ffffffffffffffffffffffffffffffffffffffff1673ffffffffffffffffffffffffffffffffffffffff16146200076b576040517f08c379a0000000000000000000000000000000000000000000000000000000008152600401620007629062001e3f565b60405180910390fd5b600460008473ffffffffffffffffffffffffffffffffffffffff1673ffffffffffffffffffffffffffffffffffffffff16815260200190815260200160002060009054906101000a900460ff16620007fa576040517f08c379a0000000000000000000000000000000000000000000000000000000008152600401620007f19062001ed7565b60405180910390fd5b60008290508073ffffffffffffffffffffffffffffffffffffffff16638cca85f3856040518263ffffffff1660e01b81526004016200083a919062001c44565b600060405180830381600087803b1580156200085557600080fd5b505af11580156200086a573d6000803e3d6000fd5b505050506000600360008673ffffffffffffffffffffffffffffffffffffffff1673ffffffffffffffffffffffffffffffffffffffff16815260200190815260200160002060006101000a81548160ff02191690831515021790555050505050565b803373ffffffffffffffffffffffffffffffffffffffff16600260008373ffffffffffffffffffffffffffffffffffffffff1673ffffffffffffffffffffffffffffffffffffffff16815260200190815260200160002060009054906101000a900473ffffffffffffffffffffffffffffffffffffffff1673ffffffffffffffffffffffffffffffffffffffff16146200099d576040517f08c379a0000000000000000000000000000000000000000000000000000000008152600401620009949062001e3f565b60405180910390fd5b82600460008273ffffffffffffffffffffffffffffffffffffffff1673ffffffffffffffffffffffffffffffffffffffff16815260200190815260200160002060009054906101000a900460ff161562000a2e576040517f08c379a000000000000000000000000000000000000000000000000000000000815260040162000a259062001f6f565b60405180910390fd5b60008390508073ffffffffffffffffffffffffffffffffffffffff166363312a49866040518263ffffffff1660e01b815260040162000a6e919062001c44565b600060405180830381600087803b15801562000a8957600080fd5b505af115801562000a9e573d6000803e3d6000fd5b505050506001600460008773ffffffffffffffffffffffffffffffffffffffff1673ffffffffffffffffffffffffffffffffffffffff16815260200190815260200160002060006101000a81548160ff0219169083151502179055505050505050565b803373ffffffffffffffffffffffffffffffffffffffff16600260008373ffffffffffffffffffffffffffffffffffffffff1673ffffffffffffffffffffffffffffffffffffffff16815260200190815260200160002060009054906101000a900473ffffffffffffffffffffffffffffffffffffffff1673ffffffffffffffffffffffffffffffffffffffff161462000bd2576040517f08c379a000000000000000000000000000000000000000000000000000000000815260040162000bc99062001e3f565b60405180910390fd5b82600360008273ffffffffffffffffffffffffffffffffffffffff1673ffffffffffffffffffffffffffffffffffffffff16815260200190815260200160002060009054906101000a900460ff161562000c63576040517f08c379a000000000000000000000000000000000000000000000000000000000815260040162000c5a9062002007565b60405180910390fd5b60008390508073ffffffffffffffffffffffffffffffffffffffff16638448fc6f866040518263ffffffff1660e01b815260040162000ca3919062001c44565b600060405180830381600087803b15801562000cbe57600080fd5b505af115801562000cd3573d6000803e3d6000fd5b505050506001600360008773ffffffffffffffffffffffffffffffffffffffff1673ffffffffffffffffffffffffffffffffffffffff16815260200190815260200160002060006101000a81548160ff0219169083151502179055505050505050565b60008073ffffffffffffffffffffffffffffffffffffffff166000808473ffffffffffffffffffffffffffffffffffffffff1673ffffffffffffffffffffffffffffffffffffffff168152602001908152602001600020600080815260200190815260200160002060009054906101000a900473ffffffffffffffffffffffffffffffffffffffff1673ffffffffffffffffffffffffffffffffffffffff160362000e18576040517f08c379a000000000000000000000000000000000000000000000000000000000815260040162000e0f9062002079565b60405180910390fd5b600080600090505b600073ffffffffffffffffffffffffffffffffffffffff166000808673ffffffffffffffffffffffffffffffffffffffff1673ffffffffffffffffffffffffffffffffffffffff168152602001908152602001600020600083815260200190815260200160002060009054906101000a900473ffffffffffffffffffffffffffffffffffffffff1673ffffffffffffffffffffffffffffffffffffffff161462000edd57809150808062000ed490620020ca565b91505062000e20565b506000808473ffffffffffffffffffffffffffffffffffffffff1673ffffffffffffffffffffffffffffffffffffffff168152602001908152602001600020600082815260200190815260200160002060009054906101000a900473ffffffffffffffffffffffffffffffffffffffff16915050919050565b60006020528160005260406000206020528060005260406000206000915091509054906101000a900473ffffffffffffffffffffffffffffffffffffffff1681565b60026020528060005260406000206000915054906101000a900473ffffffffffffffffffffffffffffffffffffffff1681565b6000803388888888888860405162000fe3906200183f565b62000ff5979695949392919062002232565b604051809103906000f08015801562001012573d6000803e3d6000fd5b5090506000819050806000803373ffffffffffffffffffffffffffffffffffffffff1673ffffffffffffffffffffffffffffffffffffffff1681526020019081526020016000206000600160003373ffffffffffffffffffffffffffffffffffffffff1673ffffffffffffffffffffffffffffffffffffffff16815260200190815260200160002054815260200190815260200160002060006101000a81548173ffffffffffffffffffffffffffffffffffffffff021916908373ffffffffffffffffffffffffffffffffffffffff16021790555060018060003373ffffffffffffffffffffffffffffffffffffffff1673ffffffffffffffffffffffffffffffffffffffff16815260200190815260200160002060008282546200113891906200229a565b9250508190555033600260008373ffffffffffffffffffffffffffffffffffffffff1673ffffffffffffffffffffffffffffffffffffffff16815260200190815260200160002060006101000a81548173ffffffffffffffffffffffffffffffffffffffff021916908373ffffffffffffffffffffffffffffffffffffffff16021790555060005b898990508110156200125e576001600360008c8c85818110620011e857620011e7620022d5565b5b9050602002016020810190620011ff9190620019be565b73ffffffffffffffffffffffffffffffffffffffff1673ffffffffffffffffffffffffffffffffffffffff16815260200190815260200160002060006101000a81548160ff0219169083151502179055508080600101915050620011c0565b5060005b8787905081101562001300576001600460008a8a858181106200128a5762001289620022d5565b5b9050602002016020810190620012a19190620019be565b73ffffffffffffffffffffffffffffffffffffffff1673ffffffffffffffffffffffffffffffffffffffff16815260200190815260200160002060006101000a81548160ff021916908315150217905550808060010191505062001262565b50868660405162001313929190620023a3565b604051809103902089896040516200132d929190620023a3565b60405180910390203373ffffffffffffffffffffffffffffffffffffffff167fe842615247b1a8ea11ff6df1dc80b9368145d8c88867eb222d035489f68e387260405160405180910390a480925050509695505050505050565b600080606080600085905060008173ffffffffffffffffffffffffffffffffffffffff16319050808273ffffffffffffffffffffffffffffffffffffffff1663f3e2dbc66040518163ffffffff1660e01b8152600401602060405180830381865afa158015620013fb573d6000803e3d6000fd5b505050506040513d601f19601f82011682018060405250810190620014219190620023d5565b8373ffffffffffffffffffffffffffffffffffffffff16637e83bba46040518163ffffffff1660e01b8152600401600060405180830381865afa1580156200146d573d6000803e3d6000fd5b505050506040513d6000823e3d601f19601f8201168201806040525081019062001498919062002572565b8473ffffffffffffffffffffffffffffffffffffffff1663d79260736040518163ffffffff1660e01b8152600401600060405180830381865afa158015620014e4573d6000803e3d6000fd5b505050506040513d6000823e3d601f19601f820116820180604052508101906200150f919062002572565b955095509550955050509193509193565b6000813373ffffffffffffffffffffffffffffffffffffffff16600260008373ffffffffffffffffffffffffffffffffffffffff1673ffffffffffffffffffffffffffffffffffffffff16815260200190815260200160002060009054906101000a900473ffffffffffffffffffffffffffffffffffffffff1673ffffffffffffffffffffffffffffffffffffffff1614620015f3576040517f08c379a0000000000000000000000000000000000000000000000000000000008152600401620015ea9062001e3f565b60405180910390fd5b600083905060008173ffffffffffffffffffffffffffffffffffffffff16633ccfd60b6040518163ffffffff1660e01b81526004016020604051808303816000875af115801562001648573d6000803e3d6000fd5b505050506040513d601f19601f820116820180604052508101906200166e9190620025f4565b9050809350505050919050565b60016020528060005260406000206000915090505481565b6000813373ffffffffffffffffffffffffffffffffffffffff16600260008373ffffffffffffffffffffffffffffffffffffffff1673ffffffffffffffffffffffffffffffffffffffff16815260200190815260200160002060009054906101000a900473ffffffffffffffffffffffffffffffffffffffff1673ffffffffffffffffffffffffffffffffffffffff161462001766576040517f08c379a00000000000000000000000000000000000000000000000000000000081526004016200175d9062001e3f565b60405180910390fd5b8273ffffffffffffffffffffffffffffffffffffffff16346040516200178c906200265b565b60006040518083038185875af1925050503d8060008114620017cb576040519150601f19603f3d011682016040523d82523d6000602084013e620017d0565b606091505b5050809250508162001819576040517f08c379a00000000000000000000000000000000000000000000000000000000081526004016200181090620026c2565b60405180910390fd5b50919050565b60036020528060005260406000206000915054906101000a900460ff1681565b611ec180620026e583390190565b6000604051905090565b600080fd5b600080fd5b600073ffffffffffffffffffffffffffffffffffffffff82169050919050565b60006200188e8262001861565b9050919050565b620018a08162001881565b8114620018ac57600080fd5b50565b600081359050620018c08162001895565b92915050565b600060208284031215620018df57620018de62001857565b5b6000620018ef84828501620018af565b91505092915050565b60008115159050919050565b6200190f81620018f8565b82525050565b60006020820190506200192c600083018462001904565b92915050565b60006200193f8262001861565b9050919050565b620019518162001932565b81146200195d57600080fd5b50565b600081359050620019718162001946565b92915050565b6000806040838503121562001991576200199062001857565b5b6000620019a18582860162001960565b9250506020620019b48582860162001960565b9150509250929050565b600060208284031215620019d757620019d662001857565b5b6000620019e78482850162001960565b91505092915050565b620019fb8162001881565b82525050565b600060208201905062001a186000830184620019f0565b92915050565b6000819050919050565b62001a338162001a1e565b811462001a3f57600080fd5b50565b60008135905062001a538162001a28565b92915050565b6000806040838503121562001a735762001a7262001857565b5b600062001a8385828601620018af565b925050602062001a968582860162001a42565b9150509250929050565b600080fd5b600080fd5b600080fd5b60008083601f84011262001ac85762001ac762001aa0565b5b8235905067ffffffffffffffff81111562001ae85762001ae762001aa5565b5b60208301915083602082028301111562001b075762001b0662001aaa565b5b9250929050565b60008083601f84011262001b275762001b2662001aa0565b5b8235905067ffffffffffffffff81111562001b475762001b4662001aa5565b5b60208301915083602082028301111562001b665762001b6562001aaa565b5b9250929050565b6000806000806000806060878903121562001b8d5762001b8c62001857565b5b600087013567ffffffffffffffff81111562001bae5762001bad6200185c565b5b62001bbc89828a0162001aaf565b9650965050602087013567ffffffffffffffff81111562001be25762001be16200185c565b5b62001bf089828a0162001aaf565b9450945050604087013567ffffffffffffffff81111562001c165762001c156200185c565b5b62001c2489828a0162001b0e565b92509250509295509295509295565b62001c3e8162001932565b82525050565b600060208201905062001c5b600083018462001c33565b92915050565b62001c6c8162001a1e565b82525050565b600081519050919050565b600082825260208201905092915050565b6000819050602082019050919050565b62001ca98162001932565b82525050565b600062001cbd838362001c9e565b60208301905092915050565b6000602082019050919050565b600062001ce38262001c72565b62001cef818562001c7d565b935062001cfc8362001c8e565b8060005b8381101562001d3357815162001d17888262001caf565b975062001d248362001cc9565b92505060018101905062001d00565b5085935050505092915050565b600060808201905062001d57600083018762001c61565b62001d66602083018662001c33565b818103604083015262001d7a818562001cd6565b9050818103606083015262001d90818462001cd6565b905095945050505050565b600060208201905062001db2600083018462001c61565b92915050565b600082825260208201905092915050565b7f4f6e6c79206f776e65722063616e2063616c6c20746869732066756e6374696f60008201527f6e00000000000000000000000000000000000000000000000000000000000000602082015250565b600062001e2760218362001db8565b915062001e348262001dc9565b604082019050919050565b6000602082019050818103600083015262001e5a8162001e18565b9050919050565b7f43616e27742064656c657465207265636569766572207468617420686173206e60008201527f6f74206265656e20617070656e6465642e000000000000000000000000000000602082015250565b600062001ebf60318362001db8565b915062001ecc8262001e61565b604082019050919050565b6000602082019050818103600083015262001ef28162001eb0565b9050919050565b7f41646472657373206f662072656365697665722068617320616c72656164792060008201527f6265656e20617070656e646564202d206e6f2072652d7570732e000000000000602082015250565b600062001f57603a8362001db8565b915062001f648262001ef9565b604082019050919050565b6000602082019050818103600083015262001f8a8162001f48565b9050919050565b7f4164647265737320616c72656164792064656c656761746564202d206e6f207260008201527f652d7570732e0000000000000000000000000000000000000000000000000000602082015250565b600062001fef60268362001db8565b915062001ffc8262001f91565b604082019050919050565b60006020820190508181036000830152620020228162001fe0565b9050919050565b7f4e6f70652e000000000000000000000000000000000000000000000000000000600082015250565b60006200206160058362001db8565b91506200206e8262002029565b602082019050919050565b60006020820190508181036000830152620020948162002052565b9050919050565b7f4e487b7100000000000000000000000000000000000000000000000000000000600052601160045260246000fd5b6000620020d78262001a1e565b91507fffffffffffffffffffffffffffffffffffffffffffffffffffffffffffffffff82036200210c576200210b6200209b565b5b600182019050919050565b6000819050919050565b600062002132602084018462001960565b905092915050565b6000602082019050919050565b600062002155838562001c7d565b9350620021628262002117565b8060005b85811015620021a3576200217b828462002121565b62002187888262001caf565b975062002194836200213a565b92505060018101905062002166565b5085925050509392505050565b600082825260208201905092915050565b600080fd5b82818337505050565b6000620021dd8385620021b0565b93507f07ffffffffffffffffffffffffffffffffffffffffffffffffffffffffffffff831115620022135762002212620021c1565b5b60208302925062002226838584620021c6565b82840190509392505050565b600060808201905062002249600083018a62001c33565b81810360208301526200225e81888a62002147565b905081810360408301526200227581868862002147565b905081810360608301526200228c818486620021cf565b905098975050505050505050565b6000620022a78262001a1e565b9150620022b48362001a1e565b9250828201905080821115620022cf57620022ce6200209b565b5b92915050565b7f4e487b7100000000000000000000000000000000000000000000000000000000600052603260045260246000fd5b600081905092915050565b6200231a8162001932565b82525050565b60006200232e83836200230f565b60208301905092915050565b600062002348838562002304565b9350620023558262002117565b8060005b8581101562002396576200236e828462002121565b6200237a888262002320565b975062002387836200213a565b92505060018101905062002359565b5085925050509392505050565b6000620023b28284866200233a565b91508190509392505050565b600081519050620023cf8162001946565b92915050565b600060208284031215620023ee57620023ed62001857565b5b6000620023fe84828501620023be565b91505092915050565b6000601f19601f8301169050919050565b7f4e487b7100000000000000000000000000000000000000000000000000000000600052604160045260246000fd5b620024528262002407565b810181811067ffffffffffffffff8211171562002474576200247362002418565b5b80604052505050565b6000620024896200184d565b905062002497828262002447565b919050565b600067ffffffffffffffff821115620024ba57620024b962002418565b5b602082029050602081019050919050565b6000620024e2620024dc846200249c565b6200247d565b9050808382526020820190506020840283018581111562002508576200250762001aaa565b5b835b81811015620025355780620025208882620023be565b8452602084019350506020810190506200250a565b5050509392505050565b600082601f83011262002557576200255662001aa0565b5b815162002569848260208601620024cb565b91505092915050565b6000602082840312156200258b576200258a62001857565b5b600082015167ffffffffffffffff811115620025ac57620025ab6200185c565b5b620025ba848285016200253f565b91505092915050565b620025ce81620018f8565b8114620025da57600080fd5b50565b600081519050620025ee81620025c3565b92915050565b6000602082840312156200260d576200260c62001857565b5b60006200261d84828501620025dd565b91505092915050565b600081905092915050565b50565b60006200264360008362002626565b9150620026508262002631565b600082019050919050565b6000620026688262002634565b9150819050919050565b7f5472616e73616374696f6e204661696c6564206d7920736f6e00000000000000600082015250565b6000620026aa60198362001db8565b9150620026b78262002672565b602082019050919050565b60006020820190508181036000830152620026dd816200269b565b905091905056fe60c06040523480156200001157600080fd5b5060405162001ec138038062001ec18339818101604052810190620000379190620006ea565b3373ffffffffffffffffffffffffffffffffffffffff1660a08173ffffffffffffffffffffffffffffffffffffffff16815250508373ffffffffffffffffffffffffffffffffffffffff1660808173ffffffffffffffffffffffffffffffffffffffff16815250508260009080519060200190620000b79291906200033d565b508160019080519060200190620000d09291906200033d565b5060005b81518110156200024057818181518110620000f457620000f3620007b9565b5b602002602001015160026000858481518110620001165762000115620007b9565b5b602002602001015173ffffffffffffffffffffffffffffffffffffffff1673ffffffffffffffffffffffffffffffffffffffff16815260200190815260200160002081905550600160036000858481518110620001785762000177620007b9565b5b602002602001015173ffffffffffffffffffffffffffffffffffffffff1673ffffffffffffffffffffffffffffffffffffffff16815260200190815260200160002060006101000a81548160ff0219169083151502179055508060046000858481518110620001ec57620001eb620007b9565b5b602002602001015173ffffffffffffffffffffffffffffffffffffffff1673ffffffffffffffffffffffffffffffffffffffff168152602001908152602001600020819055508080600101915050620000d4565b5060005b835181101562000332576001600660008684815181106200026a5762000269620007b9565b5b602002602001015173ffffffffffffffffffffffffffffffffffffffff1673ffffffffffffffffffffffffffffffffffffffff16815260200190815260200160002060006101000a81548160ff0219169083151502179055508060056000868481518110620002de57620002dd620007b9565b5b602002602001015173ffffffffffffffffffffffffffffffffffffffff1673ffffffffffffffffffffffffffffffffffffffff16815260200190815260200160002081905550808060010191505062000244565b5050505050620007e8565b828054828255906000526020600020908101928215620003b9579160200282015b82811115620003b85782518260006101000a81548173ffffffffffffffffffffffffffffffffffffffff021916908373ffffffffffffffffffffffffffffffffffffffff160217905550916020019190600101906200035e565b5b509050620003c89190620003cc565b5090565b5b80821115620003e7576000816000905550600101620003cd565b5090565b6000604051905090565b600080fd5b600080fd5b600073ffffffffffffffffffffffffffffffffffffffff82169050919050565b60006200042c82620003ff565b9050919050565b6200043e816200041f565b81146200044a57600080fd5b50565b6000815190506200045e8162000433565b92915050565b600080fd5b6000601f19601f8301169050919050565b7f4e487b7100000000000000000000000000000000000000000000000000000000600052604160045260246000fd5b620004b48262000469565b810181811067ffffffffffffffff82111715620004d657620004d56200047a565b5b80604052505050565b6000620004eb620003eb565b9050620004f98282620004a9565b919050565b600067ffffffffffffffff8211156200051c576200051b6200047a565b5b602082029050602081019050919050565b600080fd5b6000620005496200054384620004fe565b620004df565b905080838252602082019050602084028301858111156200056f576200056e6200052d565b5b835b818110156200059c57806200058788826200044d565b84526020840193505060208101905062000571565b5050509392505050565b600082601f830112620005be57620005bd62000464565b5b8151620005d084826020860162000532565b91505092915050565b600067ffffffffffffffff821115620005f757620005f66200047a565b5b602082029050602081019050919050565b6000819050919050565b6200061d8162000608565b81146200062957600080fd5b50565b6000815190506200063d8162000612565b92915050565b60006200065a6200065484620005d9565b620004df565b9050808382526020820190506020840283018581111562000680576200067f6200052d565b5b835b81811015620006ad57806200069888826200062c565b84526020840193505060208101905062000682565b5050509392505050565b600082601f830112620006cf57620006ce62000464565b5b8151620006e184826020860162000643565b91505092915050565b60008060008060808587031215620007075762000706620003f5565b5b600062000717878288016200044d565b945050602085015167ffffffffffffffff8111156200073b576200073a620003fa565b5b6200074987828801620005a6565b935050604085015167ffffffffffffffff8111156200076d576200076c620003fa565b5b6200077b87828801620005a6565b925050606085015167ffffffffffffffff8111156200079f576200079e620003fa565b5b620007ad87828801620006b7565b91505092959194509250565b7f4e487b7100000000000000000000000000000000000000000000000000000000600052603260045260246000fd5b60805160a0516116896200083860003960008181610684015281816107d001528181610882015281816109ce0152610a5f01526000818161050b01528181610b200152610edd01526116896000f3fe6080604052600436106101185760003560e01c80638cca85f3116100a0578063d792607311610064578063d7926073146103c0578063e717513b146103eb578063ea31dbbd14610428578063f3d558f114610458578063f3e2dbc6146104955761011f565b80638cca85f3146102c95780638da5f385146102f2578063c723bd381461031b578063cd86dadc14610358578063ce9b7930146103955761011f565b80635bdfd653116100e75780635bdfd653146101e457806363312a4914610221578063764cce811461024a5780637e83bba4146102755780638448fc6f146102a05761011f565b806312065fe01461012157806318e44a491461014c5780633ccfd60b146101895780633e28391d146101a75761011f565b3661011f57005b005b34801561012d57600080fd5b506101366104c0565b6040516101439190610f1a565b60405180910390f35b34801561015857600080fd5b50610173600480360381019061016e9190610f66565b6104c8565b6040516101809190610fd4565b60405180910390f35b610191610507565b60405161019e919061100a565b60405180910390f35b3480156101b357600080fd5b506101ce60048036038101906101c99190611063565b61064a565b6040516101db919061100a565b60405180910390f35b3480156101f057600080fd5b5061020b60048036038101906102069190611063565b61066a565b6040516102189190610f1a565b60405180910390f35b34801561022d57600080fd5b50610248600480360381019061024391906110bc565b610682565b005b34801561025657600080fd5b5061025f6107ce565b60405161026c91906110f8565b60405180910390f35b34801561028157600080fd5b5061028a6107f2565b60405161029791906111d1565b60405180910390f35b3480156102ac57600080fd5b506102c760048036038101906102c291906110bc565b610880565b005b3480156102d557600080fd5b506102f060048036038101906102eb91906110bc565b6109cc565b005b3480156102fe57600080fd5b50610319600480360381019061031491906110bc565b610a5d565b005b34801561032757600080fd5b50610342600480360381019061033d9190611063565b610aee565b60405161034f9190610f1a565b60405180910390f35b34801561036457600080fd5b5061037f600480360381019061037a9190611063565b610b06565b60405161038c9190610f1a565b60405180910390f35b3480156103a157600080fd5b506103aa610b1e565b6040516103b79190610fd4565b60405180910390f35b3480156103cc57600080fd5b506103d5610b42565b6040516103e291906111d1565b60405180910390f35b3480156103f757600080fd5b50610412600480360381019061040d9190611063565b610bd0565b60405161041f919061100a565b60405180910390f35b610442600480360381019061043d91906111f3565b610bf0565b60405161044f919061100a565b60405180910390f35b34801561046457600080fd5b5061047f600480360381019061047a9190610f66565b610e9a565b60405161048c9190610fd4565b60405180910390f35b3480156104a157600080fd5b506104aa610ed9565b6040516104b79190610fd4565b60405180910390f35b600047905090565b600081815481106104d857600080fd5b906000526020600020016000915054906101000a900473ffffffffffffffffffffffffffffffffffffffff1681565b60007f000000000000000000000000000000000000000000000000000000000000000073ffffffffffffffffffffffffffffffffffffffff163373ffffffffffffffffffffffffffffffffffffffff1614610597576040517f08c379a000000000000000000000000000000000000000000000000000000000815260040161058e90611290565b60405180910390fd5b60003373ffffffffffffffffffffffffffffffffffffffff16476040516105bd906112e1565b60006040518083038185875af1925050503d80600081146105fa576040519150601f19603f3d011682016040523d82523d6000602084013e6105ff565b606091505b5050905080610643576040517f08c379a000000000000000000000000000000000000000000000000000000000815260040161063a90611342565b60405180910390fd5b8091505090565b60066020528060005260406000206000915054906101000a900460ff1681565b60046020528060005260406000206000915090505481565b7f000000000000000000000000000000000000000000000000000000000000000073ffffffffffffffffffffffffffffffffffffffff163373ffffffffffffffffffffffffffffffffffffffff1614610710576040517f08c379a0000000000000000000000000000000000000000000000000000000008152600401610707906113d4565b60405180910390fd5b6001819080600181540180825580915050600190039060005260206000200160009091909190916101000a81548173ffffffffffffffffffffffffffffffffffffffff021916908373ffffffffffffffffffffffffffffffffffffffff1602179055506001600360008373ffffffffffffffffffffffffffffffffffffffff1673ffffffffffffffffffffffffffffffffffffffff16815260200190815260200160002060006101000a81548160ff02191690831515021790555050565b7f000000000000000000000000000000000000000000000000000000000000000081565b6060600080548060200260200160405190810160405280929190818152602001828054801561087657602002820191906000526020600020905b8160009054906101000a900473ffffffffffffffffffffffffffffffffffffffff1673ffffffffffffffffffffffffffffffffffffffff168152602001906001019080831161082c575b5050505050905090565b7f000000000000000000000000000000000000000000000000000000000000000073ffffffffffffffffffffffffffffffffffffffff163373ffffffffffffffffffffffffffffffffffffffff161461090e576040517f08c379a0000000000000000000000000000000000000000000000000000000008152600401610905906113d4565b60405180910390fd5b6000819080600181540180825580915050600190039060005260206000200160009091909190916101000a81548173ffffffffffffffffffffffffffffffffffffffff021916908373ffffffffffffffffffffffffffffffffffffffff1602179055506001600660008373ffffffffffffffffffffffffffffffffffffffff1673ffffffffffffffffffffffffffffffffffffffff16815260200190815260200160002060006101000a81548160ff02191690831515021790555050565b7f000000000000000000000000000000000000000000000000000000000000000073ffffffffffffffffffffffffffffffffffffffff163373ffffffffffffffffffffffffffffffffffffffff1614610a5a576040517f08c379a0000000000000000000000000000000000000000000000000000000008152600401610a51906113d4565b60405180910390fd5b50565b7f000000000000000000000000000000000000000000000000000000000000000073ffffffffffffffffffffffffffffffffffffffff163373ffffffffffffffffffffffffffffffffffffffff1614610aeb576040517f08c379a0000000000000000000000000000000000000000000000000000000008152600401610ae2906113d4565b60405180910390fd5b50565b60056020528060005260406000206000915090505481565b60026020528060005260406000206000915090505481565b7f000000000000000000000000000000000000000000000000000000000000000081565b60606001805480602002602001604051908101604052809291908181526020018280548015610bc657602002820191906000526020600020905b8160009054906101000a900473ffffffffffffffffffffffffffffffffffffffff1673ffffffffffffffffffffffffffffffffffffffff1681526020019060010190808311610b7c575b5050505050905090565b60036020528060005260406000206000915054906101000a900460ff1681565b6000600660003373ffffffffffffffffffffffffffffffffffffffff1673ffffffffffffffffffffffffffffffffffffffff16815260200190815260200160002060009054906101000a900460ff16610c7e576040517f08c379a0000000000000000000000000000000000000000000000000000000008152600401610c7590611466565b60405180910390fd5b82600360008273ffffffffffffffffffffffffffffffffffffffff1673ffffffffffffffffffffffffffffffffffffffff16815260200190815260200160002060009054906101000a900460ff16610d0b576040517f08c379a0000000000000000000000000000000000000000000000000000000008152600401610d02906114f8565b60405180910390fd5b8284600260008273ffffffffffffffffffffffffffffffffffffffff1673ffffffffffffffffffffffffffffffffffffffff16815260200190815260200160002054821115610d8f576040517f08c379a0000000000000000000000000000000000000000000000000000000008152600401610d8690611564565b60405180910390fd5b8573ffffffffffffffffffffffffffffffffffffffff1685604051610db3906112e1565b60006040518083038185875af1925050503d8060008114610df0576040519150601f19603f3d011682016040523d82523d6000602084013e610df5565b606091505b50508094505083610e3b576040517f08c379a0000000000000000000000000000000000000000000000000000000008152600401610e32906115d0565b60405180910390fd5b84600260008873ffffffffffffffffffffffffffffffffffffffff1673ffffffffffffffffffffffffffffffffffffffff1681526020019081526020016000206000828254610e8a919061161f565b9250508190555050505092915050565b60018181548110610eaa57600080fd5b906000526020600020016000915054906101000a900473ffffffffffffffffffffffffffffffffffffffff1681565b60007f0000000000000000000000000000000000000000000000000000000000000000905090565b6000819050919050565b610f1481610f01565b82525050565b6000602082019050610f2f6000830184610f0b565b92915050565b600080fd5b610f4381610f01565b8114610f4e57600080fd5b50565b600081359050610f6081610f3a565b92915050565b600060208284031215610f7c57610f7b610f35565b5b6000610f8a84828501610f51565b91505092915050565b600073ffffffffffffffffffffffffffffffffffffffff82169050919050565b6000610fbe82610f93565b9050919050565b610fce81610fb3565b82525050565b6000602082019050610fe96000830184610fc5565b92915050565b60008115159050919050565b61100481610fef565b82525050565b600060208201905061101f6000830184610ffb565b92915050565b600061103082610f93565b9050919050565b61104081611025565b811461104b57600080fd5b50565b60008135905061105d81611037565b92915050565b60006020828403121561107957611078610f35565b5b60006110878482850161104e565b91505092915050565b61109981610fb3565b81146110a457600080fd5b50565b6000813590506110b681611090565b92915050565b6000602082840312156110d2576110d1610f35565b5b60006110e0848285016110a7565b91505092915050565b6110f281611025565b82525050565b600060208201905061110d60008301846110e9565b92915050565b600081519050919050565b600082825260208201905092915050565b6000819050602082019050919050565b61114881610fb3565b82525050565b600061115a838361113f565b60208301905092915050565b6000602082019050919050565b600061117e82611113565b611188818561111e565b93506111938361112f565b8060005b838110156111c45781516111ab888261114e565b97506111b683611166565b925050600181019050611197565b5085935050505092915050565b600060208201905081810360008301526111eb8184611173565b905092915050565b6000806040838503121561120a57611209610f35565b5b6000611218858286016110a7565b925050602061122985828601610f51565b9150509250929050565b600082825260208201905092915050565b7f5520617265206e6f74207468652064656c656761746f72000000000000000000600082015250565b600061127a601783611233565b915061128582611244565b602082019050919050565b600060208201905081810360008301526112a98161126d565b9050919050565b600081905092915050565b50565b60006112cb6000836112b0565b91506112d6826112bb565b600082019050919050565b60006112ec826112be565b9150819050919050565b7f5769746864726177206e6f74205375636365737366756c000000000000000000600082015250565b600061132c601783611233565b9150611337826112f6565b602082019050919050565b6000602082019050818103600083015261135b8161131f565b9050919050565b7f4f6e6c7920726f6f7420636f6e7472616374202d206e6f7420616c6c6f77656460008201527f2e00000000000000000000000000000000000000000000000000000000000000602082015250565b60006113be602183611233565b91506113c982611362565b604082019050919050565b600060208201905081810360008301526113ed816113b1565b9050919050565b7f54686973206163636f756e74206973206e6f742064656c656761746564202d2060008201527f7065726d697373696f6e2064656e6965642e0000000000000000000000000000602082015250565b6000611450603283611233565b915061145b826113f4565b604082019050919050565b6000602082019050818103600083015261147f81611443565b9050919050565b7f5265636569766572206973206e6f7420616c6c6f776564202d2074616c6b207460008201527f6f2064656c656761746f722e2000000000000000000000000000000000000000602082015250565b60006114e2602d83611233565b91506114ed82611486565b604082019050919050565b60006020820190508181036000830152611511816114d5565b9050919050565b7f53757270617373657320616c6c6f776564206275676465740000000000000000600082015250565b600061154e601883611233565b915061155982611518565b602082019050919050565b6000602082019050818103600083015261157d81611541565b9050919050565b7f5472616e73666572206661696c65640000000000000000000000000000000000600082015250565b60006115ba600f83611233565b91506115c582611584565b602082019050919050565b600060208201905081810360008301526115e9816115ad565b9050919050565b7f4e487b7100000000000000000000000000000000000000000000000000000000600052601160045260246000fd5b600061162a82610f01565b915061163583610f01565b925082820390508181111561164d5761164c6115f0565b5b9291505056fea264697066735822122057337096238949ce85ba678acce8bae233ce84d1ca8535096a01a95321ce85d964736f6c63430008180033a2646970667358221220db276d0e98d8770c06a1f380c222f41df5482e65a261aa57efa57e3fc743a3f064736f6c63430008180033",
  "devdoc": {
    "kind": "dev",
    "methods": {},
    "version": 1
  },
  "userdoc": {
    "kind": "user",
    "methods": {},
    "version": 1
  },
  "storageLayout": {
    "storage": [
      {
        "astId": 8,
        "contract": "contracts/Main.sol:Main",
        "label": "ownerToContract",
        "offset": 0,
        "slot": "0",
        "type": "t_mapping(t_address,t_mapping(t_uint256,t_address))"
      },
      {
        "astId": 12,
        "contract": "contracts/Main.sol:Main",
        "label": "amountOfContracts",
        "offset": 0,
        "slot": "1",
        "type": "t_mapping(t_address,t_uint256)"
      },
      {
        "astId": 16,
        "contract": "contracts/Main.sol:Main",
        "label": "ownerOfContract",
        "offset": 0,
        "slot": "2",
        "type": "t_mapping(t_address,t_address)"
      },
      {
        "astId": 20,
        "contract": "contracts/Main.sol:Main",
        "label": "addressDelegated",
        "offset": 0,
        "slot": "3",
        "type": "t_mapping(t_address,t_bool)"
      },
      {
        "astId": 24,
        "contract": "contracts/Main.sol:Main",
        "label": "addressReceived",
        "offset": 0,
        "slot": "4",
        "type": "t_mapping(t_address,t_bool)"
      }
    ],
    "types": {
      "t_address": {
        "encoding": "inplace",
        "label": "address",
        "numberOfBytes": "20"
      },
      "t_bool": {
        "encoding": "inplace",
        "label": "bool",
        "numberOfBytes": "1"
      },
      "t_mapping(t_address,t_address)": {
        "encoding": "mapping",
        "key": "t_address",
        "label": "mapping(address => address)",
        "numberOfBytes": "32",
        "value": "t_address"
      },
      "t_mapping(t_address,t_bool)": {
        "encoding": "mapping",
        "key": "t_address",
        "label": "mapping(address => bool)",
        "numberOfBytes": "32",
        "value": "t_bool"
      },
      "t_mapping(t_address,t_mapping(t_uint256,t_address))": {
        "encoding": "mapping",
        "key": "t_address",
        "label": "mapping(address => mapping(uint256 => address))",
        "numberOfBytes": "32",
        "value": "t_mapping(t_uint256,t_address)"
      },
      "t_mapping(t_address,t_uint256)": {
        "encoding": "mapping",
        "key": "t_address",
        "label": "mapping(address => uint256)",
        "numberOfBytes": "32",
        "value": "t_uint256"
      },
      "t_mapping(t_uint256,t_address)": {
        "encoding": "mapping",
        "key": "t_uint256",
        "label": "mapping(uint256 => address)",
        "numberOfBytes": "32",
        "value": "t_address"
      },
      "t_uint256": {
        "encoding": "inplace",
        "label": "uint256",
        "numberOfBytes": "32"
      }
    }
  }
}