{
  "address": "0x5FbDB2315678afecb367f032d93F642f64180aa3",
  "abi": [
    {
      "anonymous": false,
      "inputs": [
        {
          "indexed": true,
          "internalType": "address",
          "name": "owner",
          "type": "address"
        },
        {
          "indexed": true,
          "internalType": "address payable[]",
          "name": "delegated",
          "type": "address[]"
        },
        {
          "indexed": true,
          "internalType": "address payable[]",
          "name": "receivers",
          "type": "address[]"
        }
      ],
      "name": "delegationConfirmed",
      "type": "event"
    },
    {
      "inputs": [
        {
          "internalType": "address payable",
          "name": "_newDelegate",
          "type": "address"
        },
        {
          "internalType": "address payable",
          "name": "_contractAddress",
          "type": "address"
        }
      ],
      "name": "addDelegated",
      "outputs": [],
      "stateMutability": "nonpayable",
      "type": "function"
    },
    {
      "inputs": [
        {
          "internalType": "address payable",
          "name": "_rx",
          "type": "address"
        },
        {
          "internalType": "address payable",
          "name": "_contractAddress",
          "type": "address"
        }
      ],
      "name": "addReceiver",
      "outputs": [],
      "stateMutability": "nonpayable",
      "type": "function"
    },
    {
      "inputs": [
        {
          "internalType": "address",
          "name": "",
          "type": "address"
        }
      ],
      "name": "addressDelegated",
      "outputs": [
        {
          "internalType": "bool",
          "name": "",
          "type": "bool"
        }
      ],
      "stateMutability": "view",
      "type": "function"
    },
    {
      "inputs": [
        {
          "internalType": "address",
          "name": "",
          "type": "address"
        }
      ],
      "name": "addressReceived",
      "outputs": [
        {
          "internalType": "bool",
          "name": "",
          "type": "bool"
        }
      ],
      "stateMutability": "view",
      "type": "function"
    },
    {
      "inputs": [
        {
          "internalType": "address",
          "name": "",
          "type": "address"
        }
      ],
      "name": "amountOfContracts",
      "outputs": [
        {
          "internalType": "uint256",
          "name": "",
          "type": "uint256"
        }
      ],
      "stateMutability": "view",
      "type": "function"
    },
    {
      "inputs": [
        {
          "internalType": "address payable[]",
          "name": "_delegate",
          "type": "address[]"
        },
        {
          "internalType": "address payable[]",
          "name": "_allowedRx",
          "type": "address[]"
        },
        {
          "internalType": "uint256[]",
          "name": "_amountRx",
          "type": "uint256[]"
        }
      ],
      "name": "delegate",
      "outputs": [],
      "stateMutability": "nonpayable",
      "type": "function"
    },
    {
      "inputs": [
        {
          "internalType": "address payable",
          "name": "_delegate",
          "type": "address"
        },
        {
          "internalType": "address payable",
          "name": "_contractAddress",
          "type": "address"
        }
      ],
      "name": "deleteDelegate",
      "outputs": [],
      "stateMutability": "nonpayable",
      "type": "function"
    },
    {
      "inputs": [
        {
          "internalType": "address payable",
          "name": "_rx",
          "type": "address"
        },
        {
          "internalType": "address payable",
          "name": "_contractAddress",
          "type": "address"
        }
      ],
      "name": "deleteReceiver",
      "outputs": [],
      "stateMutability": "nonpayable",
      "type": "function"
    },
    {
      "inputs": [
        {
          "internalType": "address payable",
          "name": "_rxContract",
          "type": "address"
        }
      ],
      "name": "fundContract",
      "outputs": [
        {
          "internalType": "bool",
          "name": "success",
          "type": "bool"
        }
      ],
      "stateMutability": "payable",
      "type": "function"
    },
    {
      "inputs": [
        {
          "internalType": "address",
          "name": "",
          "type": "address"
        }
      ],
      "name": "ownerOfContract",
      "outputs": [
        {
          "internalType": "address",
          "name": "",
          "type": "address"
        }
      ],
      "stateMutability": "view",
      "type": "function"
    },
    {
      "inputs": [
        {
          "internalType": "address",
          "name": "",
          "type": "address"
        },
        {
          "internalType": "uint256",
          "name": "",
          "type": "uint256"
        }
      ],
      "name": "ownerToContract",
      "outputs": [
        {
          "internalType": "address",
          "name": "",
          "type": "address"
        }
      ],
      "stateMutability": "view",
      "type": "function"
    }
  ],
  "transactionHash": "0xd04ec270b490cfeff6d846f021f746694840bc73de3c155a31eeef3b346a14a6",
  "args": [],
  "numDeployments": 1,
  "solcInputHash": "946e220a3ae3facc9a16b04a1a618b75",
  "bytecode": "0x608060405234801561001057600080fd5b506135a0806100206000396000f3fe608060405260043610620000aa5760003560e01c80637bffeeb7116200006d5780637bffeeb714620001ab57806384fdbd9b14620001ef5780638fb1642e1462000233578063e1b981961462000261578063e2e16e7514620002a5578063f28ae40714620002db57620000aa565b80630cd1e98814620000af5780633f00af1414620000f35780634101f89b1462000121578063471b3d96146200014f5780636d014605146200017d575b600080fd5b348015620000bc57600080fd5b50620000db6004803603810190620000d59190620011f5565b6200031f565b604051620000ea919062001244565b60405180910390f35b3480156200010057600080fd5b506200011f6004803603810190620001199190620012a6565b6200033f565b005b3480156200012e57600080fd5b506200014d6004803603810190620001479190620012a6565b62000571565b005b3480156200015c57600080fd5b506200017b6004803603810190620001759190620012a6565b620007a3565b005b3480156200018a57600080fd5b50620001a96004803603810190620001a39190620012a6565b620009d8565b005b348015620001b857600080fd5b50620001d76004803603810190620001d1919062001328565b62000c0d565b604051620001e6919062001380565b60405180910390f35b348015620001fc57600080fd5b506200021b6004803603810190620002159190620011f5565b62000c4f565b6040516200022a919062001380565b60405180910390f35b3480156200024057600080fd5b506200025f60048036038101906200025991906200146a565b62000c82565b005b3480156200026e57600080fd5b506200028d6004803603810190620002879190620011f5565b62000fb4565b6040516200029c919062001541565b60405180910390f35b620002c36004803603810190620002bd91906200155e565b62000fcc565b604051620002d2919062001244565b60405180910390f35b348015620002e857600080fd5b50620003076004803603810190620003019190620011f5565b62001158565b60405162000316919062001244565b60405180910390f35b60046020528060005260406000206000915054906101000a900460ff1681565b803373ffffffffffffffffffffffffffffffffffffffff16600260008373ffffffffffffffffffffffffffffffffffffffff1673ffffffffffffffffffffffffffffffffffffffff16815260200190815260200160002060009054906101000a900473ffffffffffffffffffffffffffffffffffffffff1673ffffffffffffffffffffffffffffffffffffffff161462000410576040517f08c379a0000000000000000000000000000000000000000000000000000000008152600401620004079062001617565b60405180910390fd5b600460008473ffffffffffffffffffffffffffffffffffffffff1673ffffffffffffffffffffffffffffffffffffffff16815260200190815260200160002060009054906101000a900460ff166200049f576040517f08c379a00000000000000000000000000000000000000000000000000000000081526004016200049690620016af565b60405180910390fd5b60008290508073ffffffffffffffffffffffffffffffffffffffff16638da5f385856040518263ffffffff1660e01b8152600401620004df9190620016e2565b600060405180830381600087803b158015620004fa57600080fd5b505af11580156200050f573d6000803e3d6000fd5b505050506000600460008673ffffffffffffffffffffffffffffffffffffffff1673ffffffffffffffffffffffffffffffffffffffff16815260200190815260200160002060006101000a81548160ff02191690831515021790555050505050565b803373ffffffffffffffffffffffffffffffffffffffff16600260008373ffffffffffffffffffffffffffffffffffffffff1673ffffffffffffffffffffffffffffffffffffffff16815260200190815260200160002060009054906101000a900473ffffffffffffffffffffffffffffffffffffffff1673ffffffffffffffffffffffffffffffffffffffff161462000642576040517f08c379a0000000000000000000000000000000000000000000000000000000008152600401620006399062001617565b60405180910390fd5b600460008473ffffffffffffffffffffffffffffffffffffffff1673ffffffffffffffffffffffffffffffffffffffff16815260200190815260200160002060009054906101000a900460ff16620006d1576040517f08c379a0000000000000000000000000000000000000000000000000000000008152600401620006c890620016af565b60405180910390fd5b60008290508073ffffffffffffffffffffffffffffffffffffffff16638cca85f3856040518263ffffffff1660e01b8152600401620007119190620016e2565b600060405180830381600087803b1580156200072c57600080fd5b505af115801562000741573d6000803e3d6000fd5b505050506000600360008673ffffffffffffffffffffffffffffffffffffffff1673ffffffffffffffffffffffffffffffffffffffff16815260200190815260200160002060006101000a81548160ff02191690831515021790555050505050565b803373ffffffffffffffffffffffffffffffffffffffff16600260008373ffffffffffffffffffffffffffffffffffffffff1673ffffffffffffffffffffffffffffffffffffffff16815260200190815260200160002060009054906101000a900473ffffffffffffffffffffffffffffffffffffffff1673ffffffffffffffffffffffffffffffffffffffff161462000874576040517f08c379a00000000000000000000000000000000000000000000000000000000081526004016200086b9062001617565b60405180910390fd5b82600460008273ffffffffffffffffffffffffffffffffffffffff1673ffffffffffffffffffffffffffffffffffffffff16815260200190815260200160002060009054906101000a900460ff161562000905576040517f08c379a0000000000000000000000000000000000000000000000000000000008152600401620008fc9062001775565b60405180910390fd5b60008390508073ffffffffffffffffffffffffffffffffffffffff166363312a49866040518263ffffffff1660e01b8152600401620009459190620016e2565b600060405180830381600087803b1580156200096057600080fd5b505af115801562000975573d6000803e3d6000fd5b505050506001600460008773ffffffffffffffffffffffffffffffffffffffff1673ffffffffffffffffffffffffffffffffffffffff16815260200190815260200160002060006101000a81548160ff0219169083151502179055505050505050565b803373ffffffffffffffffffffffffffffffffffffffff16600260008373ffffffffffffffffffffffffffffffffffffffff1673ffffffffffffffffffffffffffffffffffffffff16815260200190815260200160002060009054906101000a900473ffffffffffffffffffffffffffffffffffffffff1673ffffffffffffffffffffffffffffffffffffffff161462000aa9576040517f08c379a000000000000000000000000000000000000000000000000000000000815260040162000aa09062001617565b60405180910390fd5b82600360008273ffffffffffffffffffffffffffffffffffffffff1673ffffffffffffffffffffffffffffffffffffffff16815260200190815260200160002060009054906101000a900460ff161562000b3a576040517f08c379a000000000000000000000000000000000000000000000000000000000815260040162000b31906200180d565b60405180910390fd5b60008390508073ffffffffffffffffffffffffffffffffffffffff16638448fc6f866040518263ffffffff1660e01b815260040162000b7a9190620016e2565b600060405180830381600087803b15801562000b9557600080fd5b505af115801562000baa573d6000803e3d6000fd5b505050506001600360008773ffffffffffffffffffffffffffffffffffffffff1673ffffffffffffffffffffffffffffffffffffffff16815260200190815260200160002060006101000a81548160ff0219169083151502179055505050505050565b60006020528160005260406000206020528060005260406000206000915091509054906101000a900473ffffffffffffffffffffffffffffffffffffffff1681565b60026020528060005260406000206000915054906101000a900473ffffffffffffffffffffffffffffffffffffffff1681565b60003387878787878760405162000c999062001178565b62000cab979695949392919062001986565b604051809103906000f08015801562000cc8573d6000803e3d6000fd5b5090506000819050806000803373ffffffffffffffffffffffffffffffffffffffff1673ffffffffffffffffffffffffffffffffffffffff1681526020019081526020016000206000600160003373ffffffffffffffffffffffffffffffffffffffff1673ffffffffffffffffffffffffffffffffffffffff16815260200190815260200160002054815260200190815260200160002060006101000a81548173ffffffffffffffffffffffffffffffffffffffff021916908373ffffffffffffffffffffffffffffffffffffffff16021790555060018060003373ffffffffffffffffffffffffffffffffffffffff1673ffffffffffffffffffffffffffffffffffffffff168152602001908152602001600020600082825462000dee919062001a1d565b9250508190555033600260008373ffffffffffffffffffffffffffffffffffffffff1673ffffffffffffffffffffffffffffffffffffffff16815260200190815260200160002060006101000a81548173ffffffffffffffffffffffffffffffffffffffff021916908373ffffffffffffffffffffffffffffffffffffffff16021790555060005b8888905081101562000f14576001600360008b8b8581811062000e9e5762000e9d62001a58565b5b905060200201602081019062000eb591906200155e565b73ffffffffffffffffffffffffffffffffffffffff1673ffffffffffffffffffffffffffffffffffffffff16815260200190815260200160002060006101000a81548160ff021916908315150217905550808060010191505062000e76565b5060005b8686905081101562000fa957868660405162000f3692919062001b26565b6040518091039020898960405162000f5092919062001b26565b60405180910390203373ffffffffffffffffffffffffffffffffffffffff167fe842615247b1a8ea11ff6df1dc80b9368145d8c88867eb222d035489f68e387260405160405180910390a4808060010191505062000f18565b505050505050505050565b60016020528060005260406000206000915090505481565b6000813373ffffffffffffffffffffffffffffffffffffffff16600260008373ffffffffffffffffffffffffffffffffffffffff1673ffffffffffffffffffffffffffffffffffffffff16815260200190815260200160002060009054906101000a900473ffffffffffffffffffffffffffffffffffffffff1673ffffffffffffffffffffffffffffffffffffffff16146200109f576040517f08c379a0000000000000000000000000000000000000000000000000000000008152600401620010969062001617565b60405180910390fd5b8273ffffffffffffffffffffffffffffffffffffffff1634604051620010c59062001b76565b60006040518083038185875af1925050503d806000811462001104576040519150601f19603f3d011682016040523d82523d6000602084013e62001109565b606091505b5050809250508162001152576040517f08c379a0000000000000000000000000000000000000000000000000000000008152600401620011499062001bdd565b60405180910390fd5b50919050565b60036020528060005260406000206000915054906101000a900460ff1681565b61196b8062001c0083390190565b600080fd5b600080fd5b600073ffffffffffffffffffffffffffffffffffffffff82169050919050565b6000620011bd8262001190565b9050919050565b620011cf81620011b0565b8114620011db57600080fd5b50565b600081359050620011ef81620011c4565b92915050565b6000602082840312156200120e576200120d62001186565b5b60006200121e84828501620011de565b91505092915050565b60008115159050919050565b6200123e8162001227565b82525050565b60006020820190506200125b600083018462001233565b92915050565b60006200126e8262001190565b9050919050565b620012808162001261565b81146200128c57600080fd5b50565b600081359050620012a08162001275565b92915050565b60008060408385031215620012c057620012bf62001186565b5b6000620012d0858286016200128f565b9250506020620012e3858286016200128f565b9150509250929050565b6000819050919050565b6200130281620012ed565b81146200130e57600080fd5b50565b6000813590506200132281620012f7565b92915050565b6000806040838503121562001342576200134162001186565b5b60006200135285828601620011de565b9250506020620013658582860162001311565b9150509250929050565b6200137a81620011b0565b82525050565b60006020820190506200139760008301846200136f565b92915050565b600080fd5b600080fd5b600080fd5b60008083601f840112620013c557620013c46200139d565b5b8235905067ffffffffffffffff811115620013e557620013e4620013a2565b5b602083019150836020820283011115620014045762001403620013a7565b5b9250929050565b60008083601f8401126200142457620014236200139d565b5b8235905067ffffffffffffffff811115620014445762001443620013a2565b5b602083019150836020820283011115620014635762001462620013a7565b5b9250929050565b600080600080600080606087890312156200148a576200148962001186565b5b600087013567ffffffffffffffff811115620014ab57620014aa6200118b565b5b620014b989828a01620013ac565b9650965050602087013567ffffffffffffffff811115620014df57620014de6200118b565b5b620014ed89828a01620013ac565b9450945050604087013567ffffffffffffffff8111156200151357620015126200118b565b5b6200152189828a016200140b565b92509250509295509295509295565b6200153b81620012ed565b82525050565b600060208201905062001558600083018462001530565b92915050565b60006020828403121562001577576200157662001186565b5b600062001587848285016200128f565b91505092915050565b600082825260208201905092915050565b7f4f6e6c79206f776e65722063616e2063616c6c20746869732066756e6374696f60008201527f6e00000000000000000000000000000000000000000000000000000000000000602082015250565b6000620015ff60218362001590565b91506200160c82620015a1565b604082019050919050565b600060208201905081810360008301526200163281620015f0565b9050919050565b7f43616e27742064656c657465207265636569766572207468617420686173206e60008201527f6f74206265656e20617070656e6465642e000000000000000000000000000000602082015250565b60006200169760318362001590565b9150620016a48262001639565b604082019050919050565b60006020820190508181036000830152620016ca8162001688565b9050919050565b620016dc8162001261565b82525050565b6000602082019050620016f96000830184620016d1565b92915050565b7f41646472657373206f662072656365697665722068617320616c72656164792060008201527f6265656e20617070656e646564202d206e6f2072652d7570732e000000000000602082015250565b60006200175d603a8362001590565b91506200176a82620016ff565b604082019050919050565b6000602082019050818103600083015262001790816200174e565b9050919050565b7f4164647265737320616c72656164792064656c656761746564202d206e6f207260008201527f652d7570732e0000000000000000000000000000000000000000000000000000602082015250565b6000620017f560268362001590565b9150620018028262001797565b604082019050919050565b600060208201905081810360008301526200182881620017e6565b9050919050565b600082825260208201905092915050565b6000819050919050565b620018558162001261565b82525050565b60006200186983836200184a565b60208301905092915050565b60006200188660208401846200128f565b905092915050565b6000602082019050919050565b6000620018a983856200182f565b9350620018b68262001840565b8060005b85811015620018f757620018cf828462001875565b620018db88826200185b565b9750620018e8836200188e565b925050600181019050620018ba565b5085925050509392505050565b600082825260208201905092915050565b600080fd5b82818337505050565b600062001931838562001904565b93507f07ffffffffffffffffffffffffffffffffffffffffffffffffffffffffffffff83111562001967576200196662001915565b5b6020830292506200197a8385846200191a565b82840190509392505050565b60006080820190506200199d600083018a620016d1565b8181036020830152620019b281888a6200189b565b90508181036040830152620019c98186886200189b565b90508181036060830152620019e081848662001923565b905098975050505050505050565b7f4e487b7100000000000000000000000000000000000000000000000000000000600052601160045260246000fd5b600062001a2a82620012ed565b915062001a3783620012ed565b925082820190508082111562001a525762001a51620019ee565b5b92915050565b7f4e487b7100000000000000000000000000000000000000000000000000000000600052603260045260246000fd5b600081905092915050565b62001a9d8162001261565b82525050565b600062001ab1838362001a92565b60208301905092915050565b600062001acb838562001a87565b935062001ad88262001840565b8060005b8581101562001b195762001af1828462001875565b62001afd888262001aa3565b975062001b0a836200188e565b92505060018101905062001adc565b5085925050509392505050565b600062001b3582848662001abd565b91508190509392505050565b600081905092915050565b50565b600062001b5e60008362001b41565b915062001b6b8262001b4c565b600082019050919050565b600062001b838262001b4f565b9150819050919050565b7f5472616e73616374696f6e204661696c65640000000000000000000000000000600082015250565b600062001bc560128362001590565b915062001bd28262001b8d565b602082019050919050565b6000602082019050818103600083015262001bf88162001bb6565b905091905056fe60c06040523480156200001157600080fd5b506040516200196b3803806200196b8339818101604052810190620000379190620006ea565b3373ffffffffffffffffffffffffffffffffffffffff1660a08173ffffffffffffffffffffffffffffffffffffffff16815250508373ffffffffffffffffffffffffffffffffffffffff1660808173ffffffffffffffffffffffffffffffffffffffff16815250508260009080519060200190620000b79291906200033d565b508160019080519060200190620000d09291906200033d565b5060005b81518110156200024057818181518110620000f457620000f3620007b9565b5b602002602001015160026000858481518110620001165762000115620007b9565b5b602002602001015173ffffffffffffffffffffffffffffffffffffffff1673ffffffffffffffffffffffffffffffffffffffff16815260200190815260200160002081905550600160036000858481518110620001785762000177620007b9565b5b602002602001015173ffffffffffffffffffffffffffffffffffffffff1673ffffffffffffffffffffffffffffffffffffffff16815260200190815260200160002060006101000a81548160ff0219169083151502179055508060046000858481518110620001ec57620001eb620007b9565b5b602002602001015173ffffffffffffffffffffffffffffffffffffffff1673ffffffffffffffffffffffffffffffffffffffff168152602001908152602001600020819055508080600101915050620000d4565b5060005b835181101562000332576001600660008684815181106200026a5762000269620007b9565b5b602002602001015173ffffffffffffffffffffffffffffffffffffffff1673ffffffffffffffffffffffffffffffffffffffff16815260200190815260200160002060006101000a81548160ff0219169083151502179055508060056000868481518110620002de57620002dd620007b9565b5b602002602001015173ffffffffffffffffffffffffffffffffffffffff1673ffffffffffffffffffffffffffffffffffffffff16815260200190815260200160002081905550808060010191505062000244565b5050505050620007e8565b828054828255906000526020600020908101928215620003b9579160200282015b82811115620003b85782518260006101000a81548173ffffffffffffffffffffffffffffffffffffffff021916908373ffffffffffffffffffffffffffffffffffffffff160217905550916020019190600101906200035e565b5b509050620003c89190620003cc565b5090565b5b80821115620003e7576000816000905550600101620003cd565b5090565b6000604051905090565b600080fd5b600080fd5b600073ffffffffffffffffffffffffffffffffffffffff82169050919050565b60006200042c82620003ff565b9050919050565b6200043e816200041f565b81146200044a57600080fd5b50565b6000815190506200045e8162000433565b92915050565b600080fd5b6000601f19601f8301169050919050565b7f4e487b7100000000000000000000000000000000000000000000000000000000600052604160045260246000fd5b620004b48262000469565b810181811067ffffffffffffffff82111715620004d657620004d56200047a565b5b80604052505050565b6000620004eb620003eb565b9050620004f98282620004a9565b919050565b600067ffffffffffffffff8211156200051c576200051b6200047a565b5b602082029050602081019050919050565b600080fd5b6000620005496200054384620004fe565b620004df565b905080838252602082019050602084028301858111156200056f576200056e6200052d565b5b835b818110156200059c57806200058788826200044d565b84526020840193505060208101905062000571565b5050509392505050565b600082601f830112620005be57620005bd62000464565b5b8151620005d084826020860162000532565b91505092915050565b600067ffffffffffffffff821115620005f757620005f66200047a565b5b602082029050602081019050919050565b6000819050919050565b6200061d8162000608565b81146200062957600080fd5b50565b6000815190506200063d8162000612565b92915050565b60006200065a6200065484620005d9565b620004df565b9050808382526020820190506020840283018581111562000680576200067f6200052d565b5b835b81811015620006ad57806200069888826200062c565b84526020840193505060208101905062000682565b5050509392505050565b600082601f830112620006cf57620006ce62000464565b5b8151620006e184826020860162000643565b91505092915050565b60008060008060808587031215620007075762000706620003f5565b5b600062000717878288016200044d565b945050602085015167ffffffffffffffff8111156200073b576200073a620003fa565b5b6200074987828801620005a6565b935050604085015167ffffffffffffffff8111156200076d576200076c620003fa565b5b6200077b87828801620005a6565b925050606085015167ffffffffffffffff8111156200079f576200079e620003fa565b5b620007ad87828801620006b7565b91505092959194509250565b7f4e487b7100000000000000000000000000000000000000000000000000000000600052603260045260246000fd5b60805160a0516111416200082a6000396000818161043801528181610584015281816105a8015281816106f401526107850152600061084601526111416000f3fe6080604052600436106100e15760003560e01c80638da5f3851161007f578063ce9b793011610059578063ce9b7930146102ea578063e717513b14610315578063ea31dbbd14610352578063f3d558f114610382576100e8565b80638da5f38514610247578063c723bd3814610270578063cd86dadc146102ad576100e8565b806363312a49116100bb57806363312a49146101a1578063764cce81146101ca5780638448fc6f146101f55780638cca85f31461021e576100e8565b806318e44a49146100ea5780633e28391d146101275780635bdfd65314610164576100e8565b366100e857005b005b3480156100f657600080fd5b50610111600480360381019061010c9190610bac565b6103bf565b60405161011e9190610c1a565b60405180910390f35b34801561013357600080fd5b5061014e60048036038101906101499190610c73565b6103fe565b60405161015b9190610cbb565b60405180910390f35b34801561017057600080fd5b5061018b60048036038101906101869190610c73565b61041e565b6040516101989190610ce5565b60405180910390f35b3480156101ad57600080fd5b506101c860048036038101906101c39190610d2c565b610436565b005b3480156101d657600080fd5b506101df610582565b6040516101ec9190610d68565b60405180910390f35b34801561020157600080fd5b5061021c60048036038101906102179190610d2c565b6105a6565b005b34801561022a57600080fd5b5061024560048036038101906102409190610d2c565b6106f2565b005b34801561025357600080fd5b5061026e60048036038101906102699190610d2c565b610783565b005b34801561027c57600080fd5b5061029760048036038101906102929190610c73565b610814565b6040516102a49190610ce5565b60405180910390f35b3480156102b957600080fd5b506102d460048036038101906102cf9190610c73565b61082c565b6040516102e19190610ce5565b60405180910390f35b3480156102f657600080fd5b506102ff610844565b60405161030c9190610d68565b60405180910390f35b34801561032157600080fd5b5061033c60048036038101906103379190610c73565b610868565b6040516103499190610cbb565b60405180910390f35b61036c60048036038101906103679190610d83565b610888565b6040516103799190610cbb565b60405180910390f35b34801561038e57600080fd5b506103a960048036038101906103a49190610bac565b610b32565b6040516103b69190610c1a565b60405180910390f35b600081815481106103cf57600080fd5b906000526020600020016000915054906101000a900473ffffffffffffffffffffffffffffffffffffffff1681565b60066020528060005260406000206000915054906101000a900460ff1681565b60046020528060005260406000206000915090505481565b7f000000000000000000000000000000000000000000000000000000000000000073ffffffffffffffffffffffffffffffffffffffff163373ffffffffffffffffffffffffffffffffffffffff16146104c4576040517f08c379a00000000000000000000000000000000000000000000000000000000081526004016104bb90610e46565b60405180910390fd5b6001819080600181540180825580915050600190039060005260206000200160009091909190916101000a81548173ffffffffffffffffffffffffffffffffffffffff021916908373ffffffffffffffffffffffffffffffffffffffff1602179055506001600360008373ffffffffffffffffffffffffffffffffffffffff1673ffffffffffffffffffffffffffffffffffffffff16815260200190815260200160002060006101000a81548160ff02191690831515021790555050565b7f000000000000000000000000000000000000000000000000000000000000000081565b7f000000000000000000000000000000000000000000000000000000000000000073ffffffffffffffffffffffffffffffffffffffff163373ffffffffffffffffffffffffffffffffffffffff1614610634576040517f08c379a000000000000000000000000000000000000000000000000000000000815260040161062b90610e46565b60405180910390fd5b6000819080600181540180825580915050600190039060005260206000200160009091909190916101000a81548173ffffffffffffffffffffffffffffffffffffffff021916908373ffffffffffffffffffffffffffffffffffffffff1602179055506001600660008373ffffffffffffffffffffffffffffffffffffffff1673ffffffffffffffffffffffffffffffffffffffff16815260200190815260200160002060006101000a81548160ff02191690831515021790555050565b7f000000000000000000000000000000000000000000000000000000000000000073ffffffffffffffffffffffffffffffffffffffff163373ffffffffffffffffffffffffffffffffffffffff1614610780576040517f08c379a000000000000000000000000000000000000000000000000000000000815260040161077790610e46565b60405180910390fd5b50565b7f000000000000000000000000000000000000000000000000000000000000000073ffffffffffffffffffffffffffffffffffffffff163373ffffffffffffffffffffffffffffffffffffffff1614610811576040517f08c379a000000000000000000000000000000000000000000000000000000000815260040161080890610e46565b60405180910390fd5b50565b60056020528060005260406000206000915090505481565b60026020528060005260406000206000915090505481565b7f000000000000000000000000000000000000000000000000000000000000000081565b60036020528060005260406000206000915054906101000a900460ff1681565b6000600660003373ffffffffffffffffffffffffffffffffffffffff1673ffffffffffffffffffffffffffffffffffffffff16815260200190815260200160002060009054906101000a900460ff16610916576040517f08c379a000000000000000000000000000000000000000000000000000000000815260040161090d90610ed8565b60405180910390fd5b82600360008273ffffffffffffffffffffffffffffffffffffffff1673ffffffffffffffffffffffffffffffffffffffff16815260200190815260200160002060009054906101000a900460ff166109a3576040517f08c379a000000000000000000000000000000000000000000000000000000000815260040161099a90610f6a565b60405180910390fd5b8284600260008273ffffffffffffffffffffffffffffffffffffffff1673ffffffffffffffffffffffffffffffffffffffff16815260200190815260200160002054821115610a27576040517f08c379a0000000000000000000000000000000000000000000000000000000008152600401610a1e90610fd6565b60405180910390fd5b8573ffffffffffffffffffffffffffffffffffffffff1685604051610a4b90611027565b60006040518083038185875af1925050503d8060008114610a88576040519150601f19603f3d011682016040523d82523d6000602084013e610a8d565b606091505b50508094505083610ad3576040517f08c379a0000000000000000000000000000000000000000000000000000000008152600401610aca90611088565b60405180910390fd5b84600260008873ffffffffffffffffffffffffffffffffffffffff1673ffffffffffffffffffffffffffffffffffffffff1681526020019081526020016000206000828254610b2291906110d7565b9250508190555050505092915050565b60018181548110610b4257600080fd5b906000526020600020016000915054906101000a900473ffffffffffffffffffffffffffffffffffffffff1681565b600080fd5b6000819050919050565b610b8981610b76565b8114610b9457600080fd5b50565b600081359050610ba681610b80565b92915050565b600060208284031215610bc257610bc1610b71565b5b6000610bd084828501610b97565b91505092915050565b600073ffffffffffffffffffffffffffffffffffffffff82169050919050565b6000610c0482610bd9565b9050919050565b610c1481610bf9565b82525050565b6000602082019050610c2f6000830184610c0b565b92915050565b6000610c4082610bd9565b9050919050565b610c5081610c35565b8114610c5b57600080fd5b50565b600081359050610c6d81610c47565b92915050565b600060208284031215610c8957610c88610b71565b5b6000610c9784828501610c5e565b91505092915050565b60008115159050919050565b610cb581610ca0565b82525050565b6000602082019050610cd06000830184610cac565b92915050565b610cdf81610b76565b82525050565b6000602082019050610cfa6000830184610cd6565b92915050565b610d0981610bf9565b8114610d1457600080fd5b50565b600081359050610d2681610d00565b92915050565b600060208284031215610d4257610d41610b71565b5b6000610d5084828501610d17565b91505092915050565b610d6281610c35565b82525050565b6000602082019050610d7d6000830184610d59565b92915050565b60008060408385031215610d9a57610d99610b71565b5b6000610da885828601610d17565b9250506020610db985828601610b97565b9150509250929050565b600082825260208201905092915050565b7f4f6e6c7920726f6f7420636f6e7472616374202d206e6f7420616c6c6f77656460008201527f2e00000000000000000000000000000000000000000000000000000000000000602082015250565b6000610e30602183610dc3565b9150610e3b82610dd4565b604082019050919050565b60006020820190508181036000830152610e5f81610e23565b9050919050565b7f54686973206163636f756e74206973206e6f742064656c656761746564202d2060008201527f7065726d697373696f6e2064656e6965642e0000000000000000000000000000602082015250565b6000610ec2603283610dc3565b9150610ecd82610e66565b604082019050919050565b60006020820190508181036000830152610ef181610eb5565b9050919050565b7f5265636569766572206973206e6f7420616c6c6f776564202d2074616c6b207460008201527f6f2064656c656761746f722e2000000000000000000000000000000000000000602082015250565b6000610f54602d83610dc3565b9150610f5f82610ef8565b604082019050919050565b60006020820190508181036000830152610f8381610f47565b9050919050565b7f53757270617373657320616c6c6f776564206275676465740000000000000000600082015250565b6000610fc0601883610dc3565b9150610fcb82610f8a565b602082019050919050565b60006020820190508181036000830152610fef81610fb3565b9050919050565b600081905092915050565b50565b6000611011600083610ff6565b915061101c82611001565b600082019050919050565b600061103282611004565b9150819050919050565b7f5472616e73666572206661696c65640000000000000000000000000000000000600082015250565b6000611072600f83610dc3565b915061107d8261103c565b602082019050919050565b600060208201905081810360008301526110a181611065565b9050919050565b7f4e487b7100000000000000000000000000000000000000000000000000000000600052601160045260246000fd5b60006110e282610b76565b91506110ed83610b76565b9250828203905081811115611105576111046110a8565b5b9291505056fea26469706673582212204ad7fd694e80884c8222d7354e77f36f10d2ac32b9d2093f27f98ea4087a2be964736f6c63430008180033a264697066735822122039ddda73f215addd5703614d032877694849e6e5f6cc684b1892ff5beff3179464736f6c63430008180033",
  "devdoc": {
    "kind": "dev",
    "methods": {},
    "version": 1
  },
  "userdoc": {
    "kind": "user",
    "methods": {},
    "version": 1
  },
  "storageLayout": {
    "storage": [
      {
        "astId": 8,
        "contract": "contracts/Main.sol:Main",
        "label": "ownerToContract",
        "offset": 0,
        "slot": "0",
        "type": "t_mapping(t_address,t_mapping(t_uint256,t_address))"
      },
      {
        "astId": 12,
        "contract": "contracts/Main.sol:Main",
        "label": "amountOfContracts",
        "offset": 0,
        "slot": "1",
        "type": "t_mapping(t_address,t_uint256)"
      },
      {
        "astId": 16,
        "contract": "contracts/Main.sol:Main",
        "label": "ownerOfContract",
        "offset": 0,
        "slot": "2",
        "type": "t_mapping(t_address,t_address)"
      },
      {
        "astId": 20,
        "contract": "contracts/Main.sol:Main",
        "label": "addressDelegated",
        "offset": 0,
        "slot": "3",
        "type": "t_mapping(t_address,t_bool)"
      },
      {
        "astId": 24,
        "contract": "contracts/Main.sol:Main",
        "label": "addressReceived",
        "offset": 0,
        "slot": "4",
        "type": "t_mapping(t_address,t_bool)"
      }
    ],
    "types": {
      "t_address": {
        "encoding": "inplace",
        "label": "address",
        "numberOfBytes": "20"
      },
      "t_bool": {
        "encoding": "inplace",
        "label": "bool",
        "numberOfBytes": "1"
      },
      "t_mapping(t_address,t_address)": {
        "encoding": "mapping",
        "key": "t_address",
        "label": "mapping(address => address)",
        "numberOfBytes": "32",
        "value": "t_address"
      },
      "t_mapping(t_address,t_bool)": {
        "encoding": "mapping",
        "key": "t_address",
        "label": "mapping(address => bool)",
        "numberOfBytes": "32",
        "value": "t_bool"
      },
      "t_mapping(t_address,t_mapping(t_uint256,t_address))": {
        "encoding": "mapping",
        "key": "t_address",
        "label": "mapping(address => mapping(uint256 => address))",
        "numberOfBytes": "32",
        "value": "t_mapping(t_uint256,t_address)"
      },
      "t_mapping(t_address,t_uint256)": {
        "encoding": "mapping",
        "key": "t_address",
        "label": "mapping(address => uint256)",
        "numberOfBytes": "32",
        "value": "t_uint256"
      },
      "t_mapping(t_uint256,t_address)": {
        "encoding": "mapping",
        "key": "t_uint256",
        "label": "mapping(uint256 => address)",
        "numberOfBytes": "32",
        "value": "t_address"
      },
      "t_uint256": {
        "encoding": "inplace",
        "label": "uint256",
        "numberOfBytes": "32"
      }
    }
  }
}