{
  "address": "0x5FbDB2315678afecb367f032d93F642f64180aa3",
  "abi": [
    {
      "anonymous": false,
      "inputs": [
        {
          "indexed": true,
          "internalType": "address",
          "name": "owner",
          "type": "address"
        },
        {
          "indexed": true,
          "internalType": "address payable[]",
          "name": "delegated",
          "type": "address[]"
        },
        {
          "indexed": true,
          "internalType": "address payable[]",
          "name": "receivers",
          "type": "address[]"
        }
      ],
      "name": "delegationConfirmed",
      "type": "event"
    },
    {
      "stateMutability": "payable",
      "type": "fallback"
    },
    {
      "inputs": [
        {
          "internalType": "address payable",
          "name": "_newDelegate",
          "type": "address"
        },
        {
          "internalType": "address payable",
          "name": "_contractAddress",
          "type": "address"
        }
      ],
      "name": "addDelegated",
      "outputs": [],
      "stateMutability": "nonpayable",
      "type": "function"
    },
    {
      "inputs": [
        {
          "internalType": "address payable",
          "name": "_rx",
          "type": "address"
        },
        {
          "internalType": "address payable",
          "name": "_contractAddress",
          "type": "address"
        }
      ],
      "name": "addReceiver",
      "outputs": [],
      "stateMutability": "nonpayable",
      "type": "function"
    },
    {
      "inputs": [
        {
          "internalType": "address",
          "name": "",
          "type": "address"
        }
      ],
      "name": "addressDelegated",
      "outputs": [
        {
          "internalType": "bool",
          "name": "",
          "type": "bool"
        }
      ],
      "stateMutability": "view",
      "type": "function"
    },
    {
      "inputs": [
        {
          "internalType": "address",
          "name": "",
          "type": "address"
        }
      ],
      "name": "addressReceived",
      "outputs": [
        {
          "internalType": "bool",
          "name": "",
          "type": "bool"
        }
      ],
      "stateMutability": "view",
      "type": "function"
    },
    {
      "inputs": [
        {
          "internalType": "address",
          "name": "",
          "type": "address"
        }
      ],
      "name": "amountOfContracts",
      "outputs": [
        {
          "internalType": "uint256",
          "name": "",
          "type": "uint256"
        }
      ],
      "stateMutability": "view",
      "type": "function"
    },
    {
      "inputs": [
        {
          "internalType": "address payable[]",
          "name": "_delegate",
          "type": "address[]"
        },
        {
          "internalType": "address payable[]",
          "name": "_allowedRx",
          "type": "address[]"
        },
        {
          "internalType": "uint256[]",
          "name": "_amountRx",
          "type": "uint256[]"
        }
      ],
      "name": "delegate",
      "outputs": [
        {
          "internalType": "address payable",
          "name": "",
          "type": "address"
        }
      ],
      "stateMutability": "nonpayable",
      "type": "function"
    },
    {
      "inputs": [
        {
          "internalType": "address payable",
          "name": "_delegate",
          "type": "address"
        },
        {
          "internalType": "address payable",
          "name": "_contractAddress",
          "type": "address"
        }
      ],
      "name": "deleteDelegate",
      "outputs": [],
      "stateMutability": "nonpayable",
      "type": "function"
    },
    {
      "inputs": [
        {
          "internalType": "address payable",
          "name": "_rx",
          "type": "address"
        },
        {
          "internalType": "address payable",
          "name": "_contractAddress",
          "type": "address"
        }
      ],
      "name": "deleteReceiver",
      "outputs": [],
      "stateMutability": "nonpayable",
      "type": "function"
    },
    {
      "inputs": [
        {
          "internalType": "address payable",
          "name": "_rxContract",
          "type": "address"
        }
      ],
      "name": "fundContract",
      "outputs": [
        {
          "internalType": "bool",
          "name": "success",
          "type": "bool"
        }
      ],
      "stateMutability": "payable",
      "type": "function"
    },
    {
      "inputs": [
        {
          "internalType": "address payable",
          "name": "_proxy",
          "type": "address"
        }
      ],
      "name": "getDelegateContractData",
      "outputs": [
        {
          "internalType": "uint256",
          "name": "",
          "type": "uint256"
        },
        {
          "internalType": "address payable",
          "name": "",
          "type": "address"
        },
        {
          "internalType": "address payable[]",
          "name": "",
          "type": "address[]"
        },
        {
          "internalType": "address payable[]",
          "name": "",
          "type": "address[]"
        }
      ],
      "stateMutability": "view",
      "type": "function"
    },
    {
      "inputs": [
        {
          "internalType": "address payable",
          "name": "owner",
          "type": "address"
        }
      ],
      "name": "getLastDelegateContract",
      "outputs": [
        {
          "internalType": "address",
          "name": "",
          "type": "address"
        }
      ],
      "stateMutability": "view",
      "type": "function"
    },
    {
      "inputs": [
        {
          "internalType": "address",
          "name": "",
          "type": "address"
        }
      ],
      "name": "ownerOfContract",
      "outputs": [
        {
          "internalType": "address",
          "name": "",
          "type": "address"
        }
      ],
      "stateMutability": "view",
      "type": "function"
    },
    {
      "inputs": [
        {
          "internalType": "address",
          "name": "",
          "type": "address"
        },
        {
          "internalType": "uint256",
          "name": "",
          "type": "uint256"
        }
      ],
      "name": "ownerToContract",
      "outputs": [
        {
          "internalType": "address",
          "name": "",
          "type": "address"
        }
      ],
      "stateMutability": "view",
      "type": "function"
    },
    {
      "stateMutability": "payable",
      "type": "receive"
    }
  ],
  "transactionHash": "0x95e60f5aebbc98fd1e3a50aa9bbbd6d0c2c2af93f4cc181a0a3b108d4cf68b75",
  "args": [],
  "numDeployments": 1,
  "solcInputHash": "7797a66d50aa2c2897b4876af825e160",
  "bytecode": "0x608060405234801561001057600080fd5b50614140806100206000396000f3fe608060405260043610620000d95760003560e01c80637bffeeb7116200008b578063a3229ef41162000061578063a3229ef414620002ef578063e1b981961462000336578063e2e16e75146200037a578063f28ae40714620003b057620000e1565b80637bffeeb7146200022357806384fdbd9b14620002675780638fb1642e14620002ab57620000e1565b80630cd1e98814620000e35780633f00af1414620001275780634101f89b1462000155578063471b3d9614620001835780636d01460514620001b15780637aee9f9614620001df57620000e1565b36620000e157005b005b348015620000f057600080fd5b506200010f600480360381019062000109919062001717565b620003f4565b6040516200011e919062001766565b60405180910390f35b3480156200013457600080fd5b506200015360048036038101906200014d9190620017c8565b62000414565b005b3480156200016257600080fd5b506200018160048036038101906200017b9190620017c8565b62000646565b005b3480156200019057600080fd5b50620001af6004803603810190620001a99190620017c8565b62000878565b005b348015620001be57600080fd5b50620001dd6004803603810190620001d79190620017c8565b62000aad565b005b348015620001ec57600080fd5b506200020b60048036038101906200020591906200180f565b62000ce2565b6040516200021a919062001852565b60405180910390f35b3480156200023057600080fd5b506200024f6004803603810190620002499190620018aa565b62000f02565b6040516200025e919062001852565b60405180910390f35b3480156200027457600080fd5b506200029360048036038101906200028d919062001717565b62000f44565b604051620002a2919062001852565b60405180910390f35b348015620002b857600080fd5b50620002d76004803603810190620002d19190620019be565b62000f77565b604051620002e6919062001a95565b60405180910390f35b348015620002fc57600080fd5b506200031b60048036038101906200031591906200180f565b62001333565b6040516200032d949392919062001b91565b60405180910390f35b3480156200034357600080fd5b506200036260048036038101906200035c919062001717565b620014cc565b60405162000371919062001bec565b60405180910390f35b6200039860048036038101906200039291906200180f565b620014e4565b604051620003a7919062001766565b60405180910390f35b348015620003bd57600080fd5b50620003dc6004803603810190620003d6919062001717565b62001670565b604051620003eb919062001766565b60405180910390f35b60046020528060005260406000206000915054906101000a900460ff1681565b803373ffffffffffffffffffffffffffffffffffffffff16600260008373ffffffffffffffffffffffffffffffffffffffff1673ffffffffffffffffffffffffffffffffffffffff16815260200190815260200160002060009054906101000a900473ffffffffffffffffffffffffffffffffffffffff1673ffffffffffffffffffffffffffffffffffffffff1614620004e5576040517f08c379a0000000000000000000000000000000000000000000000000000000008152600401620004dc9062001c90565b60405180910390fd5b600460008473ffffffffffffffffffffffffffffffffffffffff1673ffffffffffffffffffffffffffffffffffffffff16815260200190815260200160002060009054906101000a900460ff1662000574576040517f08c379a00000000000000000000000000000000000000000000000000000000081526004016200056b9062001d28565b60405180910390fd5b60008290508073ffffffffffffffffffffffffffffffffffffffff16638da5f385856040518263ffffffff1660e01b8152600401620005b4919062001a95565b600060405180830381600087803b158015620005cf57600080fd5b505af1158015620005e4573d6000803e3d6000fd5b505050506000600460008673ffffffffffffffffffffffffffffffffffffffff1673ffffffffffffffffffffffffffffffffffffffff16815260200190815260200160002060006101000a81548160ff02191690831515021790555050505050565b803373ffffffffffffffffffffffffffffffffffffffff16600260008373ffffffffffffffffffffffffffffffffffffffff1673ffffffffffffffffffffffffffffffffffffffff16815260200190815260200160002060009054906101000a900473ffffffffffffffffffffffffffffffffffffffff1673ffffffffffffffffffffffffffffffffffffffff161462000717576040517f08c379a00000000000000000000000000000000000000000000000000000000081526004016200070e9062001c90565b60405180910390fd5b600460008473ffffffffffffffffffffffffffffffffffffffff1673ffffffffffffffffffffffffffffffffffffffff16815260200190815260200160002060009054906101000a900460ff16620007a6576040517f08c379a00000000000000000000000000000000000000000000000000000000081526004016200079d9062001d28565b60405180910390fd5b60008290508073ffffffffffffffffffffffffffffffffffffffff16638cca85f3856040518263ffffffff1660e01b8152600401620007e6919062001a95565b600060405180830381600087803b1580156200080157600080fd5b505af115801562000816573d6000803e3d6000fd5b505050506000600360008673ffffffffffffffffffffffffffffffffffffffff1673ffffffffffffffffffffffffffffffffffffffff16815260200190815260200160002060006101000a81548160ff02191690831515021790555050505050565b803373ffffffffffffffffffffffffffffffffffffffff16600260008373ffffffffffffffffffffffffffffffffffffffff1673ffffffffffffffffffffffffffffffffffffffff16815260200190815260200160002060009054906101000a900473ffffffffffffffffffffffffffffffffffffffff1673ffffffffffffffffffffffffffffffffffffffff161462000949576040517f08c379a0000000000000000000000000000000000000000000000000000000008152600401620009409062001c90565b60405180910390fd5b82600460008273ffffffffffffffffffffffffffffffffffffffff1673ffffffffffffffffffffffffffffffffffffffff16815260200190815260200160002060009054906101000a900460ff1615620009da576040517f08c379a0000000000000000000000000000000000000000000000000000000008152600401620009d19062001dc0565b60405180910390fd5b60008390508073ffffffffffffffffffffffffffffffffffffffff166363312a49866040518263ffffffff1660e01b815260040162000a1a919062001a95565b600060405180830381600087803b15801562000a3557600080fd5b505af115801562000a4a573d6000803e3d6000fd5b505050506001600460008773ffffffffffffffffffffffffffffffffffffffff1673ffffffffffffffffffffffffffffffffffffffff16815260200190815260200160002060006101000a81548160ff0219169083151502179055505050505050565b803373ffffffffffffffffffffffffffffffffffffffff16600260008373ffffffffffffffffffffffffffffffffffffffff1673ffffffffffffffffffffffffffffffffffffffff16815260200190815260200160002060009054906101000a900473ffffffffffffffffffffffffffffffffffffffff1673ffffffffffffffffffffffffffffffffffffffff161462000b7e576040517f08c379a000000000000000000000000000000000000000000000000000000000815260040162000b759062001c90565b60405180910390fd5b82600360008273ffffffffffffffffffffffffffffffffffffffff1673ffffffffffffffffffffffffffffffffffffffff16815260200190815260200160002060009054906101000a900460ff161562000c0f576040517f08c379a000000000000000000000000000000000000000000000000000000000815260040162000c069062001e58565b60405180910390fd5b60008390508073ffffffffffffffffffffffffffffffffffffffff16638448fc6f866040518263ffffffff1660e01b815260040162000c4f919062001a95565b600060405180830381600087803b15801562000c6a57600080fd5b505af115801562000c7f573d6000803e3d6000fd5b505050506001600360008773ffffffffffffffffffffffffffffffffffffffff1673ffffffffffffffffffffffffffffffffffffffff16815260200190815260200160002060006101000a81548160ff0219169083151502179055505050505050565b60008073ffffffffffffffffffffffffffffffffffffffff166000808473ffffffffffffffffffffffffffffffffffffffff1673ffffffffffffffffffffffffffffffffffffffff168152602001908152602001600020600080815260200190815260200160002060009054906101000a900473ffffffffffffffffffffffffffffffffffffffff1673ffffffffffffffffffffffffffffffffffffffff160362000dc4576040517f08c379a000000000000000000000000000000000000000000000000000000000815260040162000dbb9062001eca565b60405180910390fd5b600080600090505b600073ffffffffffffffffffffffffffffffffffffffff166000808673ffffffffffffffffffffffffffffffffffffffff1673ffffffffffffffffffffffffffffffffffffffff168152602001908152602001600020600083815260200190815260200160002060009054906101000a900473ffffffffffffffffffffffffffffffffffffffff1673ffffffffffffffffffffffffffffffffffffffff161462000e8957809150808062000e809062001f1b565b91505062000dcc565b506000808473ffffffffffffffffffffffffffffffffffffffff1673ffffffffffffffffffffffffffffffffffffffff168152602001908152602001600020600082815260200190815260200160002060009054906101000a900473ffffffffffffffffffffffffffffffffffffffff16915050919050565b60006020528160005260406000206020528060005260406000206000915091509054906101000a900473ffffffffffffffffffffffffffffffffffffffff1681565b60026020528060005260406000206000915054906101000a900473ffffffffffffffffffffffffffffffffffffffff1681565b6000803388888888888860405162000f8f9062001690565b62000fa1979695949392919062002083565b604051809103906000f08015801562000fbe573d6000803e3d6000fd5b5090506000819050806000803373ffffffffffffffffffffffffffffffffffffffff1673ffffffffffffffffffffffffffffffffffffffff1681526020019081526020016000206000600160003373ffffffffffffffffffffffffffffffffffffffff1673ffffffffffffffffffffffffffffffffffffffff16815260200190815260200160002054815260200190815260200160002060006101000a81548173ffffffffffffffffffffffffffffffffffffffff021916908373ffffffffffffffffffffffffffffffffffffffff16021790555060018060003373ffffffffffffffffffffffffffffffffffffffff1673ffffffffffffffffffffffffffffffffffffffff1681526020019081526020016000206000828254620010e49190620020eb565b9250508190555033600260008373ffffffffffffffffffffffffffffffffffffffff1673ffffffffffffffffffffffffffffffffffffffff16815260200190815260200160002060006101000a81548173ffffffffffffffffffffffffffffffffffffffff021916908373ffffffffffffffffffffffffffffffffffffffff16021790555060005b898990508110156200120a576001600360008c8c8581811062001194576200119362002126565b5b9050602002016020810190620011ab91906200180f565b73ffffffffffffffffffffffffffffffffffffffff1673ffffffffffffffffffffffffffffffffffffffff16815260200190815260200160002060006101000a81548160ff02191690831515021790555080806001019150506200116c565b5060005b87879050811015620012ac576001600460008a8a8581811062001236576200123562002126565b5b90506020020160208101906200124d91906200180f565b73ffffffffffffffffffffffffffffffffffffffff1673ffffffffffffffffffffffffffffffffffffffff16815260200190815260200160002060006101000a81548160ff02191690831515021790555080806001019150506200120e565b508686604051620012bf929190620021f4565b60405180910390208989604051620012d9929190620021f4565b60405180910390203373ffffffffffffffffffffffffffffffffffffffff167fe842615247b1a8ea11ff6df1dc80b9368145d8c88867eb222d035489f68e387260405160405180910390a480925050509695505050505050565b600080606080600085905060008173ffffffffffffffffffffffffffffffffffffffff16319050808273ffffffffffffffffffffffffffffffffffffffff1663f3e2dbc66040518163ffffffff1660e01b8152600401602060405180830381865afa158015620013a7573d6000803e3d6000fd5b505050506040513d601f19601f82011682018060405250810190620013cd919062002226565b8373ffffffffffffffffffffffffffffffffffffffff16637e83bba46040518163ffffffff1660e01b8152600401600060405180830381865afa15801562001419573d6000803e3d6000fd5b505050506040513d6000823e3d601f19601f82011682018060405250810190620014449190620023c3565b8473ffffffffffffffffffffffffffffffffffffffff1663d79260736040518163ffffffff1660e01b8152600401600060405180830381865afa15801562001490573d6000803e3d6000fd5b505050506040513d6000823e3d601f19601f82011682018060405250810190620014bb9190620023c3565b955095509550955050509193509193565b60016020528060005260406000206000915090505481565b6000813373ffffffffffffffffffffffffffffffffffffffff16600260008373ffffffffffffffffffffffffffffffffffffffff1673ffffffffffffffffffffffffffffffffffffffff16815260200190815260200160002060009054906101000a900473ffffffffffffffffffffffffffffffffffffffff1673ffffffffffffffffffffffffffffffffffffffff1614620015b7576040517f08c379a0000000000000000000000000000000000000000000000000000000008152600401620015ae9062001c90565b60405180910390fd5b8273ffffffffffffffffffffffffffffffffffffffff1634604051620015dd9062002449565b60006040518083038185875af1925050503d80600081146200161c576040519150601f19603f3d011682016040523d82523d6000602084013e62001621565b606091505b505080925050816200166a576040517f08c379a00000000000000000000000000000000000000000000000000000000081526004016200166190620024b0565b60405180910390fd5b50919050565b60036020528060005260406000206000915054906101000a900460ff1681565b611c3880620024d383390190565b6000604051905090565b600080fd5b600080fd5b600073ffffffffffffffffffffffffffffffffffffffff82169050919050565b6000620016df82620016b2565b9050919050565b620016f181620016d2565b8114620016fd57600080fd5b50565b6000813590506200171181620016e6565b92915050565b60006020828403121562001730576200172f620016a8565b5b6000620017408482850162001700565b91505092915050565b60008115159050919050565b620017608162001749565b82525050565b60006020820190506200177d600083018462001755565b92915050565b60006200179082620016b2565b9050919050565b620017a28162001783565b8114620017ae57600080fd5b50565b600081359050620017c28162001797565b92915050565b60008060408385031215620017e257620017e1620016a8565b5b6000620017f285828601620017b1565b92505060206200180585828601620017b1565b9150509250929050565b600060208284031215620018285762001827620016a8565b5b60006200183884828501620017b1565b91505092915050565b6200184c81620016d2565b82525050565b600060208201905062001869600083018462001841565b92915050565b6000819050919050565b62001884816200186f565b81146200189057600080fd5b50565b600081359050620018a48162001879565b92915050565b60008060408385031215620018c457620018c3620016a8565b5b6000620018d48582860162001700565b9250506020620018e78582860162001893565b9150509250929050565b600080fd5b600080fd5b600080fd5b60008083601f840112620019195762001918620018f1565b5b8235905067ffffffffffffffff811115620019395762001938620018f6565b5b602083019150836020820283011115620019585762001957620018fb565b5b9250929050565b60008083601f840112620019785762001977620018f1565b5b8235905067ffffffffffffffff811115620019985762001997620018f6565b5b602083019150836020820283011115620019b757620019b6620018fb565b5b9250929050565b60008060008060008060608789031215620019de57620019dd620016a8565b5b600087013567ffffffffffffffff811115620019ff57620019fe620016ad565b5b62001a0d89828a0162001900565b9650965050602087013567ffffffffffffffff81111562001a335762001a32620016ad565b5b62001a4189828a0162001900565b9450945050604087013567ffffffffffffffff81111562001a675762001a66620016ad565b5b62001a7589828a016200195f565b92509250509295509295509295565b62001a8f8162001783565b82525050565b600060208201905062001aac600083018462001a84565b92915050565b62001abd816200186f565b82525050565b600081519050919050565b600082825260208201905092915050565b6000819050602082019050919050565b62001afa8162001783565b82525050565b600062001b0e838362001aef565b60208301905092915050565b6000602082019050919050565b600062001b348262001ac3565b62001b40818562001ace565b935062001b4d8362001adf565b8060005b8381101562001b8457815162001b68888262001b00565b975062001b758362001b1a565b92505060018101905062001b51565b5085935050505092915050565b600060808201905062001ba8600083018762001ab2565b62001bb7602083018662001a84565b818103604083015262001bcb818562001b27565b9050818103606083015262001be1818462001b27565b905095945050505050565b600060208201905062001c03600083018462001ab2565b92915050565b600082825260208201905092915050565b7f4f6e6c79206f776e65722063616e2063616c6c20746869732066756e6374696f60008201527f6e00000000000000000000000000000000000000000000000000000000000000602082015250565b600062001c7860218362001c09565b915062001c858262001c1a565b604082019050919050565b6000602082019050818103600083015262001cab8162001c69565b9050919050565b7f43616e27742064656c657465207265636569766572207468617420686173206e60008201527f6f74206265656e20617070656e6465642e000000000000000000000000000000602082015250565b600062001d1060318362001c09565b915062001d1d8262001cb2565b604082019050919050565b6000602082019050818103600083015262001d438162001d01565b9050919050565b7f41646472657373206f662072656365697665722068617320616c72656164792060008201527f6265656e20617070656e646564202d206e6f2072652d7570732e000000000000602082015250565b600062001da8603a8362001c09565b915062001db58262001d4a565b604082019050919050565b6000602082019050818103600083015262001ddb8162001d99565b9050919050565b7f4164647265737320616c72656164792064656c656761746564202d206e6f207260008201527f652d7570732e0000000000000000000000000000000000000000000000000000602082015250565b600062001e4060268362001c09565b915062001e4d8262001de2565b604082019050919050565b6000602082019050818103600083015262001e738162001e31565b9050919050565b7f4e6f70652e000000000000000000000000000000000000000000000000000000600082015250565b600062001eb260058362001c09565b915062001ebf8262001e7a565b602082019050919050565b6000602082019050818103600083015262001ee58162001ea3565b9050919050565b7f4e487b7100000000000000000000000000000000000000000000000000000000600052601160045260246000fd5b600062001f28826200186f565b91507fffffffffffffffffffffffffffffffffffffffffffffffffffffffffffffffff820362001f5d5762001f5c62001eec565b5b600182019050919050565b6000819050919050565b600062001f836020840184620017b1565b905092915050565b6000602082019050919050565b600062001fa6838562001ace565b935062001fb38262001f68565b8060005b8581101562001ff45762001fcc828462001f72565b62001fd8888262001b00565b975062001fe58362001f8b565b92505060018101905062001fb7565b5085925050509392505050565b600082825260208201905092915050565b600080fd5b82818337505050565b60006200202e838562002001565b93507f07ffffffffffffffffffffffffffffffffffffffffffffffffffffffffffffff83111562002064576200206362002012565b5b6020830292506200207783858462002017565b82840190509392505050565b60006080820190506200209a600083018a62001a84565b8181036020830152620020af81888a62001f98565b90508181036040830152620020c681868862001f98565b90508181036060830152620020dd81848662002020565b905098975050505050505050565b6000620020f8826200186f565b915062002105836200186f565b925082820190508082111562002120576200211f62001eec565b5b92915050565b7f4e487b7100000000000000000000000000000000000000000000000000000000600052603260045260246000fd5b600081905092915050565b6200216b8162001783565b82525050565b60006200217f838362002160565b60208301905092915050565b600062002199838562002155565b9350620021a68262001f68565b8060005b85811015620021e757620021bf828462001f72565b620021cb888262002171565b9750620021d88362001f8b565b925050600181019050620021aa565b5085925050509392505050565b6000620022038284866200218b565b91508190509392505050565b600081519050620022208162001797565b92915050565b6000602082840312156200223f576200223e620016a8565b5b60006200224f848285016200220f565b91505092915050565b6000601f19601f8301169050919050565b7f4e487b7100000000000000000000000000000000000000000000000000000000600052604160045260246000fd5b620022a38262002258565b810181811067ffffffffffffffff82111715620022c557620022c462002269565b5b80604052505050565b6000620022da6200169e565b9050620022e8828262002298565b919050565b600067ffffffffffffffff8211156200230b576200230a62002269565b5b602082029050602081019050919050565b6000620023336200232d84620022ed565b620022ce565b90508083825260208201905060208402830185811115620023595762002358620018fb565b5b835b818110156200238657806200237188826200220f565b8452602084019350506020810190506200235b565b5050509392505050565b600082601f830112620023a857620023a7620018f1565b5b8151620023ba8482602086016200231c565b91505092915050565b600060208284031215620023dc57620023db620016a8565b5b600082015167ffffffffffffffff811115620023fd57620023fc620016ad565b5b6200240b8482850162002390565b91505092915050565b600081905092915050565b50565b60006200243160008362002414565b91506200243e826200241f565b600082019050919050565b6000620024568262002422565b9150819050919050565b7f5472616e73616374696f6e204661696c6564206d7920736f6e00000000000000600082015250565b60006200249860198362001c09565b9150620024a58262002460565b602082019050919050565b60006020820190508181036000830152620024cb8162002489565b905091905056fe60c06040523480156200001157600080fd5b5060405162001c3838038062001c388339818101604052810190620000379190620006ea565b3373ffffffffffffffffffffffffffffffffffffffff1660a08173ffffffffffffffffffffffffffffffffffffffff16815250508373ffffffffffffffffffffffffffffffffffffffff1660808173ffffffffffffffffffffffffffffffffffffffff16815250508260009080519060200190620000b79291906200033d565b508160019080519060200190620000d09291906200033d565b5060005b81518110156200024057818181518110620000f457620000f3620007b9565b5b602002602001015160026000858481518110620001165762000115620007b9565b5b602002602001015173ffffffffffffffffffffffffffffffffffffffff1673ffffffffffffffffffffffffffffffffffffffff16815260200190815260200160002081905550600160036000858481518110620001785762000177620007b9565b5b602002602001015173ffffffffffffffffffffffffffffffffffffffff1673ffffffffffffffffffffffffffffffffffffffff16815260200190815260200160002060006101000a81548160ff0219169083151502179055508060046000858481518110620001ec57620001eb620007b9565b5b602002602001015173ffffffffffffffffffffffffffffffffffffffff1673ffffffffffffffffffffffffffffffffffffffff168152602001908152602001600020819055508080600101915050620000d4565b5060005b835181101562000332576001600660008684815181106200026a5762000269620007b9565b5b602002602001015173ffffffffffffffffffffffffffffffffffffffff1673ffffffffffffffffffffffffffffffffffffffff16815260200190815260200160002060006101000a81548160ff0219169083151502179055508060056000868481518110620002de57620002dd620007b9565b5b602002602001015173ffffffffffffffffffffffffffffffffffffffff1673ffffffffffffffffffffffffffffffffffffffff16815260200190815260200160002081905550808060010191505062000244565b5050505050620007e8565b828054828255906000526020600020908101928215620003b9579160200282015b82811115620003b85782518260006101000a81548173ffffffffffffffffffffffffffffffffffffffff021916908373ffffffffffffffffffffffffffffffffffffffff160217905550916020019190600101906200035e565b5b509050620003c89190620003cc565b5090565b5b80821115620003e7576000816000905550600101620003cd565b5090565b6000604051905090565b600080fd5b600080fd5b600073ffffffffffffffffffffffffffffffffffffffff82169050919050565b60006200042c82620003ff565b9050919050565b6200043e816200041f565b81146200044a57600080fd5b50565b6000815190506200045e8162000433565b92915050565b600080fd5b6000601f19601f8301169050919050565b7f4e487b7100000000000000000000000000000000000000000000000000000000600052604160045260246000fd5b620004b48262000469565b810181811067ffffffffffffffff82111715620004d657620004d56200047a565b5b80604052505050565b6000620004eb620003eb565b9050620004f98282620004a9565b919050565b600067ffffffffffffffff8211156200051c576200051b6200047a565b5b602082029050602081019050919050565b600080fd5b6000620005496200054384620004fe565b620004df565b905080838252602082019050602084028301858111156200056f576200056e6200052d565b5b835b818110156200059c57806200058788826200044d565b84526020840193505060208101905062000571565b5050509392505050565b600082601f830112620005be57620005bd62000464565b5b8151620005d084826020860162000532565b91505092915050565b600067ffffffffffffffff821115620005f757620005f66200047a565b5b602082029050602081019050919050565b6000819050919050565b6200061d8162000608565b81146200062957600080fd5b50565b6000815190506200063d8162000612565b92915050565b60006200065a6200065484620005d9565b620004df565b9050808382526020820190506020840283018581111562000680576200067f6200052d565b5b835b81811015620006ad57806200069888826200062c565b84526020840193505060208101905062000682565b5050509392505050565b600082601f830112620006cf57620006ce62000464565b5b8151620006e184826020860162000643565b91505092915050565b60008060008060808587031215620007075762000706620003f5565b5b600062000717878288016200044d565b945050602085015167ffffffffffffffff8111156200073b576200073a620003fa565b5b6200074987828801620005a6565b935050604085015167ffffffffffffffff8111156200076d576200076c620003fa565b5b6200077b87828801620005a6565b925050606085015167ffffffffffffffff8111156200079f576200079e620003fa565b5b620007ad87828801620006b7565b91505092959194509250565b7f4e487b7100000000000000000000000000000000000000000000000000000000600052603260045260246000fd5b60805160a05161140762000831600039600081816104da01528181610626015281816106d80152818161082401526108b50152600081816109760152610d3301526114076000f3fe6080604052600436106101025760003560e01c80638da5f38511610095578063d792607311610064578063d792607314610361578063e717513b1461038c578063ea31dbbd146103c9578063f3d558f1146103f9578063f3e2dbc61461043657610109565b80638da5f38514610293578063c723bd38146102bc578063cd86dadc146102f9578063ce9b79301461033657610109565b8063764cce81116100d1578063764cce81146101eb5780637e83bba4146102165780638448fc6f146102415780638cca85f31461026a57610109565b806318e44a491461010b5780633e28391d146101485780635bdfd6531461018557806363312a49146101c257610109565b3661010957005b005b34801561011757600080fd5b50610132600480360381019061012d9190610d92565b610461565b60405161013f9190610e00565b60405180910390f35b34801561015457600080fd5b5061016f600480360381019061016a9190610e59565b6104a0565b60405161017c9190610ea1565b60405180910390f35b34801561019157600080fd5b506101ac60048036038101906101a79190610e59565b6104c0565b6040516101b99190610ecb565b60405180910390f35b3480156101ce57600080fd5b506101e960048036038101906101e49190610f12565b6104d8565b005b3480156101f757600080fd5b50610200610624565b60405161020d9190610f4e565b60405180910390f35b34801561022257600080fd5b5061022b610648565b6040516102389190611027565b60405180910390f35b34801561024d57600080fd5b5061026860048036038101906102639190610f12565b6106d6565b005b34801561027657600080fd5b50610291600480360381019061028c9190610f12565b610822565b005b34801561029f57600080fd5b506102ba60048036038101906102b59190610f12565b6108b3565b005b3480156102c857600080fd5b506102e360048036038101906102de9190610e59565b610944565b6040516102f09190610ecb565b60405180910390f35b34801561030557600080fd5b50610320600480360381019061031b9190610e59565b61095c565b60405161032d9190610ecb565b60405180910390f35b34801561034257600080fd5b5061034b610974565b6040516103589190610e00565b60405180910390f35b34801561036d57600080fd5b50610376610998565b6040516103839190611027565b60405180910390f35b34801561039857600080fd5b506103b360048036038101906103ae9190610e59565b610a26565b6040516103c09190610ea1565b60405180910390f35b6103e360048036038101906103de9190611049565b610a46565b6040516103f09190610ea1565b60405180910390f35b34801561040557600080fd5b50610420600480360381019061041b9190610d92565b610cf0565b60405161042d9190610e00565b60405180910390f35b34801561044257600080fd5b5061044b610d2f565b6040516104589190610e00565b60405180910390f35b6000818154811061047157600080fd5b906000526020600020016000915054906101000a900473ffffffffffffffffffffffffffffffffffffffff1681565b60066020528060005260406000206000915054906101000a900460ff1681565b60046020528060005260406000206000915090505481565b7f000000000000000000000000000000000000000000000000000000000000000073ffffffffffffffffffffffffffffffffffffffff163373ffffffffffffffffffffffffffffffffffffffff1614610566576040517f08c379a000000000000000000000000000000000000000000000000000000000815260040161055d9061110c565b60405180910390fd5b6001819080600181540180825580915050600190039060005260206000200160009091909190916101000a81548173ffffffffffffffffffffffffffffffffffffffff021916908373ffffffffffffffffffffffffffffffffffffffff1602179055506001600360008373ffffffffffffffffffffffffffffffffffffffff1673ffffffffffffffffffffffffffffffffffffffff16815260200190815260200160002060006101000a81548160ff02191690831515021790555050565b7f000000000000000000000000000000000000000000000000000000000000000081565b606060008054806020026020016040519081016040528092919081815260200182805480156106cc57602002820191906000526020600020905b8160009054906101000a900473ffffffffffffffffffffffffffffffffffffffff1673ffffffffffffffffffffffffffffffffffffffff1681526020019060010190808311610682575b5050505050905090565b7f000000000000000000000000000000000000000000000000000000000000000073ffffffffffffffffffffffffffffffffffffffff163373ffffffffffffffffffffffffffffffffffffffff1614610764576040517f08c379a000000000000000000000000000000000000000000000000000000000815260040161075b9061110c565b60405180910390fd5b6000819080600181540180825580915050600190039060005260206000200160009091909190916101000a81548173ffffffffffffffffffffffffffffffffffffffff021916908373ffffffffffffffffffffffffffffffffffffffff1602179055506001600660008373ffffffffffffffffffffffffffffffffffffffff1673ffffffffffffffffffffffffffffffffffffffff16815260200190815260200160002060006101000a81548160ff02191690831515021790555050565b7f000000000000000000000000000000000000000000000000000000000000000073ffffffffffffffffffffffffffffffffffffffff163373ffffffffffffffffffffffffffffffffffffffff16146108b0576040517f08c379a00000000000000000000000000000000000000000000000000000000081526004016108a79061110c565b60405180910390fd5b50565b7f000000000000000000000000000000000000000000000000000000000000000073ffffffffffffffffffffffffffffffffffffffff163373ffffffffffffffffffffffffffffffffffffffff1614610941576040517f08c379a00000000000000000000000000000000000000000000000000000000081526004016109389061110c565b60405180910390fd5b50565b60056020528060005260406000206000915090505481565b60026020528060005260406000206000915090505481565b7f000000000000000000000000000000000000000000000000000000000000000081565b60606001805480602002602001604051908101604052809291908181526020018280548015610a1c57602002820191906000526020600020905b8160009054906101000a900473ffffffffffffffffffffffffffffffffffffffff1673ffffffffffffffffffffffffffffffffffffffff16815260200190600101908083116109d2575b5050505050905090565b60036020528060005260406000206000915054906101000a900460ff1681565b6000600660003373ffffffffffffffffffffffffffffffffffffffff1673ffffffffffffffffffffffffffffffffffffffff16815260200190815260200160002060009054906101000a900460ff16610ad4576040517f08c379a0000000000000000000000000000000000000000000000000000000008152600401610acb9061119e565b60405180910390fd5b82600360008273ffffffffffffffffffffffffffffffffffffffff1673ffffffffffffffffffffffffffffffffffffffff16815260200190815260200160002060009054906101000a900460ff16610b61576040517f08c379a0000000000000000000000000000000000000000000000000000000008152600401610b5890611230565b60405180910390fd5b8284600260008273ffffffffffffffffffffffffffffffffffffffff1673ffffffffffffffffffffffffffffffffffffffff16815260200190815260200160002054821115610be5576040517f08c379a0000000000000000000000000000000000000000000000000000000008152600401610bdc9061129c565b60405180910390fd5b8573ffffffffffffffffffffffffffffffffffffffff1685604051610c09906112ed565b60006040518083038185875af1925050503d8060008114610c46576040519150601f19603f3d011682016040523d82523d6000602084013e610c4b565b606091505b50508094505083610c91576040517f08c379a0000000000000000000000000000000000000000000000000000000008152600401610c889061134e565b60405180910390fd5b84600260008873ffffffffffffffffffffffffffffffffffffffff1673ffffffffffffffffffffffffffffffffffffffff1681526020019081526020016000206000828254610ce0919061139d565b9250508190555050505092915050565b60018181548110610d0057600080fd5b906000526020600020016000915054906101000a900473ffffffffffffffffffffffffffffffffffffffff1681565b60007f0000000000000000000000000000000000000000000000000000000000000000905090565b600080fd5b6000819050919050565b610d6f81610d5c565b8114610d7a57600080fd5b50565b600081359050610d8c81610d66565b92915050565b600060208284031215610da857610da7610d57565b5b6000610db684828501610d7d565b91505092915050565b600073ffffffffffffffffffffffffffffffffffffffff82169050919050565b6000610dea82610dbf565b9050919050565b610dfa81610ddf565b82525050565b6000602082019050610e156000830184610df1565b92915050565b6000610e2682610dbf565b9050919050565b610e3681610e1b565b8114610e4157600080fd5b50565b600081359050610e5381610e2d565b92915050565b600060208284031215610e6f57610e6e610d57565b5b6000610e7d84828501610e44565b91505092915050565b60008115159050919050565b610e9b81610e86565b82525050565b6000602082019050610eb66000830184610e92565b92915050565b610ec581610d5c565b82525050565b6000602082019050610ee06000830184610ebc565b92915050565b610eef81610ddf565b8114610efa57600080fd5b50565b600081359050610f0c81610ee6565b92915050565b600060208284031215610f2857610f27610d57565b5b6000610f3684828501610efd565b91505092915050565b610f4881610e1b565b82525050565b6000602082019050610f636000830184610f3f565b92915050565b600081519050919050565b600082825260208201905092915050565b6000819050602082019050919050565b610f9e81610ddf565b82525050565b6000610fb08383610f95565b60208301905092915050565b6000602082019050919050565b6000610fd482610f69565b610fde8185610f74565b9350610fe983610f85565b8060005b8381101561101a5781516110018882610fa4565b975061100c83610fbc565b925050600181019050610fed565b5085935050505092915050565b600060208201905081810360008301526110418184610fc9565b905092915050565b600080604083850312156110605761105f610d57565b5b600061106e85828601610efd565b925050602061107f85828601610d7d565b9150509250929050565b600082825260208201905092915050565b7f4f6e6c7920726f6f7420636f6e7472616374202d206e6f7420616c6c6f77656460008201527f2e00000000000000000000000000000000000000000000000000000000000000602082015250565b60006110f6602183611089565b91506111018261109a565b604082019050919050565b60006020820190508181036000830152611125816110e9565b9050919050565b7f54686973206163636f756e74206973206e6f742064656c656761746564202d2060008201527f7065726d697373696f6e2064656e6965642e0000000000000000000000000000602082015250565b6000611188603283611089565b91506111938261112c565b604082019050919050565b600060208201905081810360008301526111b78161117b565b9050919050565b7f5265636569766572206973206e6f7420616c6c6f776564202d2074616c6b207460008201527f6f2064656c656761746f722e2000000000000000000000000000000000000000602082015250565b600061121a602d83611089565b9150611225826111be565b604082019050919050565b600060208201905081810360008301526112498161120d565b9050919050565b7f53757270617373657320616c6c6f776564206275676465740000000000000000600082015250565b6000611286601883611089565b915061129182611250565b602082019050919050565b600060208201905081810360008301526112b581611279565b9050919050565b600081905092915050565b50565b60006112d76000836112bc565b91506112e2826112c7565b600082019050919050565b60006112f8826112ca565b9150819050919050565b7f5472616e73666572206661696c65640000000000000000000000000000000000600082015250565b6000611338600f83611089565b915061134382611302565b602082019050919050565b600060208201905081810360008301526113678161132b565b9050919050565b7f4e487b7100000000000000000000000000000000000000000000000000000000600052601160045260246000fd5b60006113a882610d5c565b91506113b383610d5c565b92508282039050818111156113cb576113ca61136e565b5b9291505056fea2646970667358221220c6ae51c04defdfcd0fda69cbff75eabcb791462d96391ee85f63257032028b9d64736f6c63430008180033a264697066735822122060f2f9ffcd8683aca17eca6fcea4bbe28affca1b2fc7b37ddf97349641fffaa464736f6c63430008180033",
  "devdoc": {
    "kind": "dev",
    "methods": {},
    "version": 1
  },
  "userdoc": {
    "kind": "user",
    "methods": {},
    "version": 1
  },
  "storageLayout": {
    "storage": [
      {
        "astId": 8,
        "contract": "contracts/Main.sol:Main",
        "label": "ownerToContract",
        "offset": 0,
        "slot": "0",
        "type": "t_mapping(t_address,t_mapping(t_uint256,t_address))"
      },
      {
        "astId": 12,
        "contract": "contracts/Main.sol:Main",
        "label": "amountOfContracts",
        "offset": 0,
        "slot": "1",
        "type": "t_mapping(t_address,t_uint256)"
      },
      {
        "astId": 16,
        "contract": "contracts/Main.sol:Main",
        "label": "ownerOfContract",
        "offset": 0,
        "slot": "2",
        "type": "t_mapping(t_address,t_address)"
      },
      {
        "astId": 20,
        "contract": "contracts/Main.sol:Main",
        "label": "addressDelegated",
        "offset": 0,
        "slot": "3",
        "type": "t_mapping(t_address,t_bool)"
      },
      {
        "astId": 24,
        "contract": "contracts/Main.sol:Main",
        "label": "addressReceived",
        "offset": 0,
        "slot": "4",
        "type": "t_mapping(t_address,t_bool)"
      }
    ],
    "types": {
      "t_address": {
        "encoding": "inplace",
        "label": "address",
        "numberOfBytes": "20"
      },
      "t_bool": {
        "encoding": "inplace",
        "label": "bool",
        "numberOfBytes": "1"
      },
      "t_mapping(t_address,t_address)": {
        "encoding": "mapping",
        "key": "t_address",
        "label": "mapping(address => address)",
        "numberOfBytes": "32",
        "value": "t_address"
      },
      "t_mapping(t_address,t_bool)": {
        "encoding": "mapping",
        "key": "t_address",
        "label": "mapping(address => bool)",
        "numberOfBytes": "32",
        "value": "t_bool"
      },
      "t_mapping(t_address,t_mapping(t_uint256,t_address))": {
        "encoding": "mapping",
        "key": "t_address",
        "label": "mapping(address => mapping(uint256 => address))",
        "numberOfBytes": "32",
        "value": "t_mapping(t_uint256,t_address)"
      },
      "t_mapping(t_address,t_uint256)": {
        "encoding": "mapping",
        "key": "t_address",
        "label": "mapping(address => uint256)",
        "numberOfBytes": "32",
        "value": "t_uint256"
      },
      "t_mapping(t_uint256,t_address)": {
        "encoding": "mapping",
        "key": "t_uint256",
        "label": "mapping(uint256 => address)",
        "numberOfBytes": "32",
        "value": "t_address"
      },
      "t_uint256": {
        "encoding": "inplace",
        "label": "uint256",
        "numberOfBytes": "32"
      }
    }
  }
}