{
  "address": "0x5FbDB2315678afecb367f032d93F642f64180aa3",
  "abi": [
    {
      "anonymous": false,
      "inputs": [
        {
          "indexed": true,
          "internalType": "address",
          "name": "owner",
          "type": "address"
        },
        {
          "indexed": true,
          "internalType": "address payable[]",
          "name": "delegated",
          "type": "address[]"
        },
        {
          "indexed": true,
          "internalType": "address payable[]",
          "name": "receivers",
          "type": "address[]"
        }
      ],
      "name": "delegationConfirmed",
      "type": "event"
    },
    {
      "stateMutability": "payable",
      "type": "fallback"
    },
    {
      "inputs": [
        {
          "internalType": "address payable",
          "name": "_newDelegate",
          "type": "address"
        },
        {
          "internalType": "address payable",
          "name": "_contractAddress",
          "type": "address"
        }
      ],
      "name": "addDelegated",
      "outputs": [],
      "stateMutability": "nonpayable",
      "type": "function"
    },
    {
      "inputs": [
        {
          "internalType": "address payable",
          "name": "_rx",
          "type": "address"
        },
        {
          "internalType": "address payable",
          "name": "_contractAddress",
          "type": "address"
        }
      ],
      "name": "addReceiver",
      "outputs": [],
      "stateMutability": "nonpayable",
      "type": "function"
    },
    {
      "inputs": [
        {
          "internalType": "address",
          "name": "",
          "type": "address"
        }
      ],
      "name": "addressDelegated",
      "outputs": [
        {
          "internalType": "bool",
          "name": "",
          "type": "bool"
        }
      ],
      "stateMutability": "view",
      "type": "function"
    },
    {
      "inputs": [
        {
          "internalType": "address",
          "name": "",
          "type": "address"
        }
      ],
      "name": "addressReceived",
      "outputs": [
        {
          "internalType": "bool",
          "name": "",
          "type": "bool"
        }
      ],
      "stateMutability": "view",
      "type": "function"
    },
    {
      "inputs": [
        {
          "internalType": "address",
          "name": "",
          "type": "address"
        }
      ],
      "name": "amountOfContracts",
      "outputs": [
        {
          "internalType": "uint256",
          "name": "",
          "type": "uint256"
        }
      ],
      "stateMutability": "view",
      "type": "function"
    },
    {
      "inputs": [
        {
          "internalType": "address payable[]",
          "name": "_delegate",
          "type": "address[]"
        },
        {
          "internalType": "address payable[]",
          "name": "_allowedRx",
          "type": "address[]"
        },
        {
          "internalType": "uint256[]",
          "name": "_amountRx",
          "type": "uint256[]"
        }
      ],
      "name": "delegate",
      "outputs": [
        {
          "internalType": "address payable",
          "name": "",
          "type": "address"
        }
      ],
      "stateMutability": "nonpayable",
      "type": "function"
    },
    {
      "inputs": [
        {
          "internalType": "address payable",
          "name": "_delegate",
          "type": "address"
        },
        {
          "internalType": "address payable",
          "name": "_contractAddress",
          "type": "address"
        }
      ],
      "name": "deleteDelegate",
      "outputs": [],
      "stateMutability": "nonpayable",
      "type": "function"
    },
    {
      "inputs": [
        {
          "internalType": "address payable",
          "name": "_rx",
          "type": "address"
        },
        {
          "internalType": "address payable",
          "name": "_contractAddress",
          "type": "address"
        }
      ],
      "name": "deleteReceiver",
      "outputs": [],
      "stateMutability": "nonpayable",
      "type": "function"
    },
    {
      "inputs": [
        {
          "internalType": "address payable",
          "name": "_rxContract",
          "type": "address"
        }
      ],
      "name": "fundContract",
      "outputs": [
        {
          "internalType": "bool",
          "name": "success",
          "type": "bool"
        }
      ],
      "stateMutability": "payable",
      "type": "function"
    },
    {
      "inputs": [
        {
          "internalType": "address payable",
          "name": "owner",
          "type": "address"
        }
      ],
      "name": "getLastDelegateContract",
      "outputs": [
        {
          "internalType": "address",
          "name": "",
          "type": "address"
        }
      ],
      "stateMutability": "view",
      "type": "function"
    },
    {
      "inputs": [],
      "name": "getNumber",
      "outputs": [
        {
          "internalType": "uint256",
          "name": "",
          "type": "uint256"
        }
      ],
      "stateMutability": "view",
      "type": "function"
    },
    {
      "inputs": [
        {
          "internalType": "address",
          "name": "",
          "type": "address"
        }
      ],
      "name": "ownerOfContract",
      "outputs": [
        {
          "internalType": "address",
          "name": "",
          "type": "address"
        }
      ],
      "stateMutability": "view",
      "type": "function"
    },
    {
      "inputs": [
        {
          "internalType": "address",
          "name": "",
          "type": "address"
        },
        {
          "internalType": "uint256",
          "name": "",
          "type": "uint256"
        }
      ],
      "name": "ownerToContract",
      "outputs": [
        {
          "internalType": "address",
          "name": "",
          "type": "address"
        }
      ],
      "stateMutability": "view",
      "type": "function"
    },
    {
      "stateMutability": "payable",
      "type": "receive"
    }
  ],
  "transactionHash": "0xfbf1e6c05056f94e414c78daeb06e1e16e66894eccdcfe9a2168fbee0755ecbd",
  "args": [],
  "numDeployments": 1,
  "solcInputHash": "67355d055239287916d971913c0e4084",
  "bytecode": "0x608060405234801561001057600080fd5b50613a13806100206000396000f3fe608060405260043610620000d95760003560e01c80637bffeeb7116200008b578063e1b981961162000061578063e1b9819614620002ef578063e2e16e751462000333578063f28ae4071462000369578063f2c9ecd814620003ad57620000e1565b80637bffeeb7146200022357806384fdbd9b14620002675780638fb1642e14620002ab57620000e1565b80630cd1e98814620000e35780633f00af1414620001275780634101f89b1462000155578063471b3d9614620001835780636d01460514620001b15780637aee9f9614620001df57620000e1565b36620000e157005b005b348015620000f057600080fd5b506200010f6004803603810190620001099190620015a9565b620003dd565b6040516200011e9190620015f8565b60405180910390f35b3480156200013457600080fd5b506200015360048036038101906200014d91906200165a565b620003fd565b005b3480156200016257600080fd5b506200018160048036038101906200017b91906200165a565b6200062f565b005b3480156200019057600080fd5b50620001af6004803603810190620001a991906200165a565b62000861565b005b348015620001be57600080fd5b50620001dd6004803603810190620001d791906200165a565b62000a96565b005b348015620001ec57600080fd5b506200020b6004803603810190620002059190620016a1565b62000ccb565b6040516200021a9190620016e4565b60405180910390f35b3480156200023057600080fd5b506200024f60048036038101906200024991906200173c565b62000eeb565b6040516200025e9190620016e4565b60405180910390f35b3480156200027457600080fd5b506200029360048036038101906200028d9190620015a9565b62000f2d565b604051620002a29190620016e4565b60405180910390f35b348015620002b857600080fd5b50620002d76004803603810190620002d1919062001850565b62000f60565b604051620002e6919062001927565b60405180910390f35b348015620002fc57600080fd5b506200031b6004803603810190620003159190620015a9565b6200131c565b6040516200032a919062001955565b60405180910390f35b6200035160048036038101906200034b9190620016a1565b62001334565b604051620003609190620015f8565b60405180910390f35b3480156200037657600080fd5b506200039560048036038101906200038f9190620015a9565b620014c0565b604051620003a49190620015f8565b60405180910390f35b348015620003ba57600080fd5b50620003c5620014e0565b604051620003d4919062001955565b60405180910390f35b60046020528060005260406000206000915054906101000a900460ff1681565b803373ffffffffffffffffffffffffffffffffffffffff16600260008373ffffffffffffffffffffffffffffffffffffffff1673ffffffffffffffffffffffffffffffffffffffff16815260200190815260200160002060009054906101000a900473ffffffffffffffffffffffffffffffffffffffff1673ffffffffffffffffffffffffffffffffffffffff1614620004ce576040517f08c379a0000000000000000000000000000000000000000000000000000000008152600401620004c590620019f9565b60405180910390fd5b600460008473ffffffffffffffffffffffffffffffffffffffff1673ffffffffffffffffffffffffffffffffffffffff16815260200190815260200160002060009054906101000a900460ff166200055d576040517f08c379a0000000000000000000000000000000000000000000000000000000008152600401620005549062001a91565b60405180910390fd5b60008290508073ffffffffffffffffffffffffffffffffffffffff16638da5f385856040518263ffffffff1660e01b81526004016200059d919062001927565b600060405180830381600087803b158015620005b857600080fd5b505af1158015620005cd573d6000803e3d6000fd5b505050506000600460008673ffffffffffffffffffffffffffffffffffffffff1673ffffffffffffffffffffffffffffffffffffffff16815260200190815260200160002060006101000a81548160ff02191690831515021790555050505050565b803373ffffffffffffffffffffffffffffffffffffffff16600260008373ffffffffffffffffffffffffffffffffffffffff1673ffffffffffffffffffffffffffffffffffffffff16815260200190815260200160002060009054906101000a900473ffffffffffffffffffffffffffffffffffffffff1673ffffffffffffffffffffffffffffffffffffffff161462000700576040517f08c379a0000000000000000000000000000000000000000000000000000000008152600401620006f790620019f9565b60405180910390fd5b600460008473ffffffffffffffffffffffffffffffffffffffff1673ffffffffffffffffffffffffffffffffffffffff16815260200190815260200160002060009054906101000a900460ff166200078f576040517f08c379a0000000000000000000000000000000000000000000000000000000008152600401620007869062001a91565b60405180910390fd5b60008290508073ffffffffffffffffffffffffffffffffffffffff16638cca85f3856040518263ffffffff1660e01b8152600401620007cf919062001927565b600060405180830381600087803b158015620007ea57600080fd5b505af1158015620007ff573d6000803e3d6000fd5b505050506000600360008673ffffffffffffffffffffffffffffffffffffffff1673ffffffffffffffffffffffffffffffffffffffff16815260200190815260200160002060006101000a81548160ff02191690831515021790555050505050565b803373ffffffffffffffffffffffffffffffffffffffff16600260008373ffffffffffffffffffffffffffffffffffffffff1673ffffffffffffffffffffffffffffffffffffffff16815260200190815260200160002060009054906101000a900473ffffffffffffffffffffffffffffffffffffffff1673ffffffffffffffffffffffffffffffffffffffff161462000932576040517f08c379a00000000000000000000000000000000000000000000000000000000081526004016200092990620019f9565b60405180910390fd5b82600460008273ffffffffffffffffffffffffffffffffffffffff1673ffffffffffffffffffffffffffffffffffffffff16815260200190815260200160002060009054906101000a900460ff1615620009c3576040517f08c379a0000000000000000000000000000000000000000000000000000000008152600401620009ba9062001b29565b60405180910390fd5b60008390508073ffffffffffffffffffffffffffffffffffffffff166363312a49866040518263ffffffff1660e01b815260040162000a03919062001927565b600060405180830381600087803b15801562000a1e57600080fd5b505af115801562000a33573d6000803e3d6000fd5b505050506001600460008773ffffffffffffffffffffffffffffffffffffffff1673ffffffffffffffffffffffffffffffffffffffff16815260200190815260200160002060006101000a81548160ff0219169083151502179055505050505050565b803373ffffffffffffffffffffffffffffffffffffffff16600260008373ffffffffffffffffffffffffffffffffffffffff1673ffffffffffffffffffffffffffffffffffffffff16815260200190815260200160002060009054906101000a900473ffffffffffffffffffffffffffffffffffffffff1673ffffffffffffffffffffffffffffffffffffffff161462000b67576040517f08c379a000000000000000000000000000000000000000000000000000000000815260040162000b5e90620019f9565b60405180910390fd5b82600360008273ffffffffffffffffffffffffffffffffffffffff1673ffffffffffffffffffffffffffffffffffffffff16815260200190815260200160002060009054906101000a900460ff161562000bf8576040517f08c379a000000000000000000000000000000000000000000000000000000000815260040162000bef9062001bc1565b60405180910390fd5b60008390508073ffffffffffffffffffffffffffffffffffffffff16638448fc6f866040518263ffffffff1660e01b815260040162000c38919062001927565b600060405180830381600087803b15801562000c5357600080fd5b505af115801562000c68573d6000803e3d6000fd5b505050506001600360008773ffffffffffffffffffffffffffffffffffffffff1673ffffffffffffffffffffffffffffffffffffffff16815260200190815260200160002060006101000a81548160ff0219169083151502179055505050505050565b60008073ffffffffffffffffffffffffffffffffffffffff166000808473ffffffffffffffffffffffffffffffffffffffff1673ffffffffffffffffffffffffffffffffffffffff168152602001908152602001600020600080815260200190815260200160002060009054906101000a900473ffffffffffffffffffffffffffffffffffffffff1673ffffffffffffffffffffffffffffffffffffffff160362000dad576040517f08c379a000000000000000000000000000000000000000000000000000000000815260040162000da49062001c33565b60405180910390fd5b600080600090505b600073ffffffffffffffffffffffffffffffffffffffff166000808673ffffffffffffffffffffffffffffffffffffffff1673ffffffffffffffffffffffffffffffffffffffff168152602001908152602001600020600083815260200190815260200160002060009054906101000a900473ffffffffffffffffffffffffffffffffffffffff1673ffffffffffffffffffffffffffffffffffffffff161462000e7257809150808062000e699062001c84565b91505062000db5565b506000808473ffffffffffffffffffffffffffffffffffffffff1673ffffffffffffffffffffffffffffffffffffffff168152602001908152602001600020600082815260200190815260200160002060009054906101000a900473ffffffffffffffffffffffffffffffffffffffff16915050919050565b60006020528160005260406000206020528060005260406000206000915091509054906101000a900473ffffffffffffffffffffffffffffffffffffffff1681565b60026020528060005260406000206000915054906101000a900473ffffffffffffffffffffffffffffffffffffffff1681565b6000803388888888888860405162000f78906200152c565b62000f8a979695949392919062001e28565b604051809103906000f08015801562000fa7573d6000803e3d6000fd5b5090506000819050806000803373ffffffffffffffffffffffffffffffffffffffff1673ffffffffffffffffffffffffffffffffffffffff1681526020019081526020016000206000600160003373ffffffffffffffffffffffffffffffffffffffff1673ffffffffffffffffffffffffffffffffffffffff16815260200190815260200160002054815260200190815260200160002060006101000a81548173ffffffffffffffffffffffffffffffffffffffff021916908373ffffffffffffffffffffffffffffffffffffffff16021790555060018060003373ffffffffffffffffffffffffffffffffffffffff1673ffffffffffffffffffffffffffffffffffffffff1681526020019081526020016000206000828254620010cd919062001e90565b9250508190555033600260008373ffffffffffffffffffffffffffffffffffffffff1673ffffffffffffffffffffffffffffffffffffffff16815260200190815260200160002060006101000a81548173ffffffffffffffffffffffffffffffffffffffff021916908373ffffffffffffffffffffffffffffffffffffffff16021790555060005b89899050811015620011f3576001600360008c8c858181106200117d576200117c62001ecb565b5b9050602002016020810190620011949190620016a1565b73ffffffffffffffffffffffffffffffffffffffff1673ffffffffffffffffffffffffffffffffffffffff16815260200190815260200160002060006101000a81548160ff021916908315150217905550808060010191505062001155565b5060005b8787905081101562001295576001600460008a8a858181106200121f576200121e62001ecb565b5b9050602002016020810190620012369190620016a1565b73ffffffffffffffffffffffffffffffffffffffff1673ffffffffffffffffffffffffffffffffffffffff16815260200190815260200160002060006101000a81548160ff0219169083151502179055508080600101915050620011f7565b508686604051620012a892919062001f99565b60405180910390208989604051620012c292919062001f99565b60405180910390203373ffffffffffffffffffffffffffffffffffffffff167fe842615247b1a8ea11ff6df1dc80b9368145d8c88867eb222d035489f68e387260405160405180910390a480925050509695505050505050565b60016020528060005260406000206000915090505481565b6000813373ffffffffffffffffffffffffffffffffffffffff16600260008373ffffffffffffffffffffffffffffffffffffffff1673ffffffffffffffffffffffffffffffffffffffff16815260200190815260200160002060009054906101000a900473ffffffffffffffffffffffffffffffffffffffff1673ffffffffffffffffffffffffffffffffffffffff161462001407576040517f08c379a0000000000000000000000000000000000000000000000000000000008152600401620013fe90620019f9565b60405180910390fd5b8273ffffffffffffffffffffffffffffffffffffffff16346040516200142d9062001fe9565b60006040518083038185875af1925050503d80600081146200146c576040519150601f19603f3d011682016040523d82523d6000602084013e62001471565b606091505b50508092505081620014ba576040517f08c379a0000000000000000000000000000000000000000000000000000000008152600401620014b19062002050565b60405180910390fd5b50919050565b60036020528060005260406000206000915054906101000a900460ff1681565b600080600160008073ffffffffffffffffffffffffffffffffffffffff1673ffffffffffffffffffffffffffffffffffffffff1681526020019081526020016000205490508091505090565b61196b806200207383390190565b600080fd5b600080fd5b600073ffffffffffffffffffffffffffffffffffffffff82169050919050565b6000620015718262001544565b9050919050565b620015838162001564565b81146200158f57600080fd5b50565b600081359050620015a38162001578565b92915050565b600060208284031215620015c257620015c16200153a565b5b6000620015d28482850162001592565b91505092915050565b60008115159050919050565b620015f281620015db565b82525050565b60006020820190506200160f6000830184620015e7565b92915050565b6000620016228262001544565b9050919050565b620016348162001615565b81146200164057600080fd5b50565b600081359050620016548162001629565b92915050565b600080604083850312156200167457620016736200153a565b5b6000620016848582860162001643565b9250506020620016978582860162001643565b9150509250929050565b600060208284031215620016ba57620016b96200153a565b5b6000620016ca8482850162001643565b91505092915050565b620016de8162001564565b82525050565b6000602082019050620016fb6000830184620016d3565b92915050565b6000819050919050565b620017168162001701565b81146200172257600080fd5b50565b60008135905062001736816200170b565b92915050565b600080604083850312156200175657620017556200153a565b5b6000620017668582860162001592565b9250506020620017798582860162001725565b9150509250929050565b600080fd5b600080fd5b600080fd5b60008083601f840112620017ab57620017aa62001783565b5b8235905067ffffffffffffffff811115620017cb57620017ca62001788565b5b602083019150836020820283011115620017ea57620017e96200178d565b5b9250929050565b60008083601f8401126200180a576200180962001783565b5b8235905067ffffffffffffffff8111156200182a576200182962001788565b5b6020830191508360208202830111156200184957620018486200178d565b5b9250929050565b6000806000806000806060878903121562001870576200186f6200153a565b5b600087013567ffffffffffffffff8111156200189157620018906200153f565b5b6200189f89828a0162001792565b9650965050602087013567ffffffffffffffff811115620018c557620018c46200153f565b5b620018d389828a0162001792565b9450945050604087013567ffffffffffffffff811115620018f957620018f86200153f565b5b6200190789828a01620017f1565b92509250509295509295509295565b620019218162001615565b82525050565b60006020820190506200193e600083018462001916565b92915050565b6200194f8162001701565b82525050565b60006020820190506200196c600083018462001944565b92915050565b600082825260208201905092915050565b7f4f6e6c79206f776e65722063616e2063616c6c20746869732066756e6374696f60008201527f6e00000000000000000000000000000000000000000000000000000000000000602082015250565b6000620019e160218362001972565b9150620019ee8262001983565b604082019050919050565b6000602082019050818103600083015262001a1481620019d2565b9050919050565b7f43616e27742064656c657465207265636569766572207468617420686173206e60008201527f6f74206265656e20617070656e6465642e000000000000000000000000000000602082015250565b600062001a7960318362001972565b915062001a868262001a1b565b604082019050919050565b6000602082019050818103600083015262001aac8162001a6a565b9050919050565b7f41646472657373206f662072656365697665722068617320616c72656164792060008201527f6265656e20617070656e646564202d206e6f2072652d7570732e000000000000602082015250565b600062001b11603a8362001972565b915062001b1e8262001ab3565b604082019050919050565b6000602082019050818103600083015262001b448162001b02565b9050919050565b7f4164647265737320616c72656164792064656c656761746564202d206e6f207260008201527f652d7570732e0000000000000000000000000000000000000000000000000000602082015250565b600062001ba960268362001972565b915062001bb68262001b4b565b604082019050919050565b6000602082019050818103600083015262001bdc8162001b9a565b9050919050565b7f4e6f70652e000000000000000000000000000000000000000000000000000000600082015250565b600062001c1b60058362001972565b915062001c288262001be3565b602082019050919050565b6000602082019050818103600083015262001c4e8162001c0c565b9050919050565b7f4e487b7100000000000000000000000000000000000000000000000000000000600052601160045260246000fd5b600062001c918262001701565b91507fffffffffffffffffffffffffffffffffffffffffffffffffffffffffffffffff820362001cc65762001cc562001c55565b5b600182019050919050565b600082825260208201905092915050565b6000819050919050565b62001cf78162001615565b82525050565b600062001d0b838362001cec565b60208301905092915050565b600062001d28602084018462001643565b905092915050565b6000602082019050919050565b600062001d4b838562001cd1565b935062001d588262001ce2565b8060005b8581101562001d995762001d71828462001d17565b62001d7d888262001cfd565b975062001d8a8362001d30565b92505060018101905062001d5c565b5085925050509392505050565b600082825260208201905092915050565b600080fd5b82818337505050565b600062001dd3838562001da6565b93507f07ffffffffffffffffffffffffffffffffffffffffffffffffffffffffffffff83111562001e095762001e0862001db7565b5b60208302925062001e1c83858462001dbc565b82840190509392505050565b600060808201905062001e3f600083018a62001916565b818103602083015262001e5481888a62001d3d565b9050818103604083015262001e6b81868862001d3d565b9050818103606083015262001e8281848662001dc5565b905098975050505050505050565b600062001e9d8262001701565b915062001eaa8362001701565b925082820190508082111562001ec55762001ec462001c55565b5b92915050565b7f4e487b7100000000000000000000000000000000000000000000000000000000600052603260045260246000fd5b600081905092915050565b62001f108162001615565b82525050565b600062001f24838362001f05565b60208301905092915050565b600062001f3e838562001efa565b935062001f4b8262001ce2565b8060005b8581101562001f8c5762001f64828462001d17565b62001f70888262001f16565b975062001f7d8362001d30565b92505060018101905062001f4f565b5085925050509392505050565b600062001fa882848662001f30565b91508190509392505050565b600081905092915050565b50565b600062001fd160008362001fb4565b915062001fde8262001fbf565b600082019050919050565b600062001ff68262001fc2565b9150819050919050565b7f5472616e73616374696f6e204661696c6564206d7920736f6e00000000000000600082015250565b60006200203860198362001972565b9150620020458262002000565b602082019050919050565b600060208201905081810360008301526200206b8162002029565b905091905056fe60c06040523480156200001157600080fd5b506040516200196b3803806200196b8339818101604052810190620000379190620006ea565b3373ffffffffffffffffffffffffffffffffffffffff1660a08173ffffffffffffffffffffffffffffffffffffffff16815250508373ffffffffffffffffffffffffffffffffffffffff1660808173ffffffffffffffffffffffffffffffffffffffff16815250508260009080519060200190620000b79291906200033d565b508160019080519060200190620000d09291906200033d565b5060005b81518110156200024057818181518110620000f457620000f3620007b9565b5b602002602001015160026000858481518110620001165762000115620007b9565b5b602002602001015173ffffffffffffffffffffffffffffffffffffffff1673ffffffffffffffffffffffffffffffffffffffff16815260200190815260200160002081905550600160036000858481518110620001785762000177620007b9565b5b602002602001015173ffffffffffffffffffffffffffffffffffffffff1673ffffffffffffffffffffffffffffffffffffffff16815260200190815260200160002060006101000a81548160ff0219169083151502179055508060046000858481518110620001ec57620001eb620007b9565b5b602002602001015173ffffffffffffffffffffffffffffffffffffffff1673ffffffffffffffffffffffffffffffffffffffff168152602001908152602001600020819055508080600101915050620000d4565b5060005b835181101562000332576001600660008684815181106200026a5762000269620007b9565b5b602002602001015173ffffffffffffffffffffffffffffffffffffffff1673ffffffffffffffffffffffffffffffffffffffff16815260200190815260200160002060006101000a81548160ff0219169083151502179055508060056000868481518110620002de57620002dd620007b9565b5b602002602001015173ffffffffffffffffffffffffffffffffffffffff1673ffffffffffffffffffffffffffffffffffffffff16815260200190815260200160002081905550808060010191505062000244565b5050505050620007e8565b828054828255906000526020600020908101928215620003b9579160200282015b82811115620003b85782518260006101000a81548173ffffffffffffffffffffffffffffffffffffffff021916908373ffffffffffffffffffffffffffffffffffffffff160217905550916020019190600101906200035e565b5b509050620003c89190620003cc565b5090565b5b80821115620003e7576000816000905550600101620003cd565b5090565b6000604051905090565b600080fd5b600080fd5b600073ffffffffffffffffffffffffffffffffffffffff82169050919050565b60006200042c82620003ff565b9050919050565b6200043e816200041f565b81146200044a57600080fd5b50565b6000815190506200045e8162000433565b92915050565b600080fd5b6000601f19601f8301169050919050565b7f4e487b7100000000000000000000000000000000000000000000000000000000600052604160045260246000fd5b620004b48262000469565b810181811067ffffffffffffffff82111715620004d657620004d56200047a565b5b80604052505050565b6000620004eb620003eb565b9050620004f98282620004a9565b919050565b600067ffffffffffffffff8211156200051c576200051b6200047a565b5b602082029050602081019050919050565b600080fd5b6000620005496200054384620004fe565b620004df565b905080838252602082019050602084028301858111156200056f576200056e6200052d565b5b835b818110156200059c57806200058788826200044d565b84526020840193505060208101905062000571565b5050509392505050565b600082601f830112620005be57620005bd62000464565b5b8151620005d084826020860162000532565b91505092915050565b600067ffffffffffffffff821115620005f757620005f66200047a565b5b602082029050602081019050919050565b6000819050919050565b6200061d8162000608565b81146200062957600080fd5b50565b6000815190506200063d8162000612565b92915050565b60006200065a6200065484620005d9565b620004df565b9050808382526020820190506020840283018581111562000680576200067f6200052d565b5b835b81811015620006ad57806200069888826200062c565b84526020840193505060208101905062000682565b5050509392505050565b600082601f830112620006cf57620006ce62000464565b5b8151620006e184826020860162000643565b91505092915050565b60008060008060808587031215620007075762000706620003f5565b5b600062000717878288016200044d565b945050602085015167ffffffffffffffff8111156200073b576200073a620003fa565b5b6200074987828801620005a6565b935050604085015167ffffffffffffffff8111156200076d576200076c620003fa565b5b6200077b87828801620005a6565b925050606085015167ffffffffffffffff8111156200079f576200079e620003fa565b5b620007ad87828801620006b7565b91505092959194509250565b7f4e487b7100000000000000000000000000000000000000000000000000000000600052603260045260246000fd5b60805160a0516111416200082a6000396000818161043801528181610584015281816105a8015281816106f401526107850152600061084601526111416000f3fe6080604052600436106100e15760003560e01c80638da5f3851161007f578063ce9b793011610059578063ce9b7930146102ea578063e717513b14610315578063ea31dbbd14610352578063f3d558f114610382576100e8565b80638da5f38514610247578063c723bd3814610270578063cd86dadc146102ad576100e8565b806363312a49116100bb57806363312a49146101a1578063764cce81146101ca5780638448fc6f146101f55780638cca85f31461021e576100e8565b806318e44a49146100ea5780633e28391d146101275780635bdfd65314610164576100e8565b366100e857005b005b3480156100f657600080fd5b50610111600480360381019061010c9190610bac565b6103bf565b60405161011e9190610c1a565b60405180910390f35b34801561013357600080fd5b5061014e60048036038101906101499190610c73565b6103fe565b60405161015b9190610cbb565b60405180910390f35b34801561017057600080fd5b5061018b60048036038101906101869190610c73565b61041e565b6040516101989190610ce5565b60405180910390f35b3480156101ad57600080fd5b506101c860048036038101906101c39190610d2c565b610436565b005b3480156101d657600080fd5b506101df610582565b6040516101ec9190610d68565b60405180910390f35b34801561020157600080fd5b5061021c60048036038101906102179190610d2c565b6105a6565b005b34801561022a57600080fd5b5061024560048036038101906102409190610d2c565b6106f2565b005b34801561025357600080fd5b5061026e60048036038101906102699190610d2c565b610783565b005b34801561027c57600080fd5b5061029760048036038101906102929190610c73565b610814565b6040516102a49190610ce5565b60405180910390f35b3480156102b957600080fd5b506102d460048036038101906102cf9190610c73565b61082c565b6040516102e19190610ce5565b60405180910390f35b3480156102f657600080fd5b506102ff610844565b60405161030c9190610d68565b60405180910390f35b34801561032157600080fd5b5061033c60048036038101906103379190610c73565b610868565b6040516103499190610cbb565b60405180910390f35b61036c60048036038101906103679190610d83565b610888565b6040516103799190610cbb565b60405180910390f35b34801561038e57600080fd5b506103a960048036038101906103a49190610bac565b610b32565b6040516103b69190610c1a565b60405180910390f35b600081815481106103cf57600080fd5b906000526020600020016000915054906101000a900473ffffffffffffffffffffffffffffffffffffffff1681565b60066020528060005260406000206000915054906101000a900460ff1681565b60046020528060005260406000206000915090505481565b7f000000000000000000000000000000000000000000000000000000000000000073ffffffffffffffffffffffffffffffffffffffff163373ffffffffffffffffffffffffffffffffffffffff16146104c4576040517f08c379a00000000000000000000000000000000000000000000000000000000081526004016104bb90610e46565b60405180910390fd5b6001819080600181540180825580915050600190039060005260206000200160009091909190916101000a81548173ffffffffffffffffffffffffffffffffffffffff021916908373ffffffffffffffffffffffffffffffffffffffff1602179055506001600360008373ffffffffffffffffffffffffffffffffffffffff1673ffffffffffffffffffffffffffffffffffffffff16815260200190815260200160002060006101000a81548160ff02191690831515021790555050565b7f000000000000000000000000000000000000000000000000000000000000000081565b7f000000000000000000000000000000000000000000000000000000000000000073ffffffffffffffffffffffffffffffffffffffff163373ffffffffffffffffffffffffffffffffffffffff1614610634576040517f08c379a000000000000000000000000000000000000000000000000000000000815260040161062b90610e46565b60405180910390fd5b6000819080600181540180825580915050600190039060005260206000200160009091909190916101000a81548173ffffffffffffffffffffffffffffffffffffffff021916908373ffffffffffffffffffffffffffffffffffffffff1602179055506001600660008373ffffffffffffffffffffffffffffffffffffffff1673ffffffffffffffffffffffffffffffffffffffff16815260200190815260200160002060006101000a81548160ff02191690831515021790555050565b7f000000000000000000000000000000000000000000000000000000000000000073ffffffffffffffffffffffffffffffffffffffff163373ffffffffffffffffffffffffffffffffffffffff1614610780576040517f08c379a000000000000000000000000000000000000000000000000000000000815260040161077790610e46565b60405180910390fd5b50565b7f000000000000000000000000000000000000000000000000000000000000000073ffffffffffffffffffffffffffffffffffffffff163373ffffffffffffffffffffffffffffffffffffffff1614610811576040517f08c379a000000000000000000000000000000000000000000000000000000000815260040161080890610e46565b60405180910390fd5b50565b60056020528060005260406000206000915090505481565b60026020528060005260406000206000915090505481565b7f000000000000000000000000000000000000000000000000000000000000000081565b60036020528060005260406000206000915054906101000a900460ff1681565b6000600660003373ffffffffffffffffffffffffffffffffffffffff1673ffffffffffffffffffffffffffffffffffffffff16815260200190815260200160002060009054906101000a900460ff16610916576040517f08c379a000000000000000000000000000000000000000000000000000000000815260040161090d90610ed8565b60405180910390fd5b82600360008273ffffffffffffffffffffffffffffffffffffffff1673ffffffffffffffffffffffffffffffffffffffff16815260200190815260200160002060009054906101000a900460ff166109a3576040517f08c379a000000000000000000000000000000000000000000000000000000000815260040161099a90610f6a565b60405180910390fd5b8284600260008273ffffffffffffffffffffffffffffffffffffffff1673ffffffffffffffffffffffffffffffffffffffff16815260200190815260200160002054821115610a27576040517f08c379a0000000000000000000000000000000000000000000000000000000008152600401610a1e90610fd6565b60405180910390fd5b8573ffffffffffffffffffffffffffffffffffffffff1685604051610a4b90611027565b60006040518083038185875af1925050503d8060008114610a88576040519150601f19603f3d011682016040523d82523d6000602084013e610a8d565b606091505b50508094505083610ad3576040517f08c379a0000000000000000000000000000000000000000000000000000000008152600401610aca90611088565b60405180910390fd5b84600260008873ffffffffffffffffffffffffffffffffffffffff1673ffffffffffffffffffffffffffffffffffffffff1681526020019081526020016000206000828254610b2291906110d7565b9250508190555050505092915050565b60018181548110610b4257600080fd5b906000526020600020016000915054906101000a900473ffffffffffffffffffffffffffffffffffffffff1681565b600080fd5b6000819050919050565b610b8981610b76565b8114610b9457600080fd5b50565b600081359050610ba681610b80565b92915050565b600060208284031215610bc257610bc1610b71565b5b6000610bd084828501610b97565b91505092915050565b600073ffffffffffffffffffffffffffffffffffffffff82169050919050565b6000610c0482610bd9565b9050919050565b610c1481610bf9565b82525050565b6000602082019050610c2f6000830184610c0b565b92915050565b6000610c4082610bd9565b9050919050565b610c5081610c35565b8114610c5b57600080fd5b50565b600081359050610c6d81610c47565b92915050565b600060208284031215610c8957610c88610b71565b5b6000610c9784828501610c5e565b91505092915050565b60008115159050919050565b610cb581610ca0565b82525050565b6000602082019050610cd06000830184610cac565b92915050565b610cdf81610b76565b82525050565b6000602082019050610cfa6000830184610cd6565b92915050565b610d0981610bf9565b8114610d1457600080fd5b50565b600081359050610d2681610d00565b92915050565b600060208284031215610d4257610d41610b71565b5b6000610d5084828501610d17565b91505092915050565b610d6281610c35565b82525050565b6000602082019050610d7d6000830184610d59565b92915050565b60008060408385031215610d9a57610d99610b71565b5b6000610da885828601610d17565b9250506020610db985828601610b97565b9150509250929050565b600082825260208201905092915050565b7f4f6e6c7920726f6f7420636f6e7472616374202d206e6f7420616c6c6f77656460008201527f2e00000000000000000000000000000000000000000000000000000000000000602082015250565b6000610e30602183610dc3565b9150610e3b82610dd4565b604082019050919050565b60006020820190508181036000830152610e5f81610e23565b9050919050565b7f54686973206163636f756e74206973206e6f742064656c656761746564202d2060008201527f7065726d697373696f6e2064656e6965642e0000000000000000000000000000602082015250565b6000610ec2603283610dc3565b9150610ecd82610e66565b604082019050919050565b60006020820190508181036000830152610ef181610eb5565b9050919050565b7f5265636569766572206973206e6f7420616c6c6f776564202d2074616c6b207460008201527f6f2064656c656761746f722e2000000000000000000000000000000000000000602082015250565b6000610f54602d83610dc3565b9150610f5f82610ef8565b604082019050919050565b60006020820190508181036000830152610f8381610f47565b9050919050565b7f53757270617373657320616c6c6f776564206275676465740000000000000000600082015250565b6000610fc0601883610dc3565b9150610fcb82610f8a565b602082019050919050565b60006020820190508181036000830152610fef81610fb3565b9050919050565b600081905092915050565b50565b6000611011600083610ff6565b915061101c82611001565b600082019050919050565b600061103282611004565b9150819050919050565b7f5472616e73666572206661696c65640000000000000000000000000000000000600082015250565b6000611072600f83610dc3565b915061107d8261103c565b602082019050919050565b600060208201905081810360008301526110a181611065565b9050919050565b7f4e487b7100000000000000000000000000000000000000000000000000000000600052601160045260246000fd5b60006110e282610b76565b91506110ed83610b76565b9250828203905081811115611105576111046110a8565b5b9291505056fea26469706673582212204ad7fd694e80884c8222d7354e77f36f10d2ac32b9d2093f27f98ea4087a2be964736f6c63430008180033a2646970667358221220866c8e388b41a24c8799a3b831e206635d5be8f059100d27038ad0fe2df6b60064736f6c63430008180033",
  "devdoc": {
    "kind": "dev",
    "methods": {},
    "version": 1
  },
  "userdoc": {
    "kind": "user",
    "methods": {},
    "version": 1
  },
  "storageLayout": {
    "storage": [
      {
        "astId": 8,
        "contract": "contracts/Main.sol:Main",
        "label": "ownerToContract",
        "offset": 0,
        "slot": "0",
        "type": "t_mapping(t_address,t_mapping(t_uint256,t_address))"
      },
      {
        "astId": 12,
        "contract": "contracts/Main.sol:Main",
        "label": "amountOfContracts",
        "offset": 0,
        "slot": "1",
        "type": "t_mapping(t_address,t_uint256)"
      },
      {
        "astId": 16,
        "contract": "contracts/Main.sol:Main",
        "label": "ownerOfContract",
        "offset": 0,
        "slot": "2",
        "type": "t_mapping(t_address,t_address)"
      },
      {
        "astId": 20,
        "contract": "contracts/Main.sol:Main",
        "label": "addressDelegated",
        "offset": 0,
        "slot": "3",
        "type": "t_mapping(t_address,t_bool)"
      },
      {
        "astId": 24,
        "contract": "contracts/Main.sol:Main",
        "label": "addressReceived",
        "offset": 0,
        "slot": "4",
        "type": "t_mapping(t_address,t_bool)"
      }
    ],
    "types": {
      "t_address": {
        "encoding": "inplace",
        "label": "address",
        "numberOfBytes": "20"
      },
      "t_bool": {
        "encoding": "inplace",
        "label": "bool",
        "numberOfBytes": "1"
      },
      "t_mapping(t_address,t_address)": {
        "encoding": "mapping",
        "key": "t_address",
        "label": "mapping(address => address)",
        "numberOfBytes": "32",
        "value": "t_address"
      },
      "t_mapping(t_address,t_bool)": {
        "encoding": "mapping",
        "key": "t_address",
        "label": "mapping(address => bool)",
        "numberOfBytes": "32",
        "value": "t_bool"
      },
      "t_mapping(t_address,t_mapping(t_uint256,t_address))": {
        "encoding": "mapping",
        "key": "t_address",
        "label": "mapping(address => mapping(uint256 => address))",
        "numberOfBytes": "32",
        "value": "t_mapping(t_uint256,t_address)"
      },
      "t_mapping(t_address,t_uint256)": {
        "encoding": "mapping",
        "key": "t_address",
        "label": "mapping(address => uint256)",
        "numberOfBytes": "32",
        "value": "t_uint256"
      },
      "t_mapping(t_uint256,t_address)": {
        "encoding": "mapping",
        "key": "t_uint256",
        "label": "mapping(uint256 => address)",
        "numberOfBytes": "32",
        "value": "t_address"
      },
      "t_uint256": {
        "encoding": "inplace",
        "label": "uint256",
        "numberOfBytes": "32"
      }
    }
  }
}