{
  "address": "0x5FbDB2315678afecb367f032d93F642f64180aa3",
  "abi": [
    {
      "anonymous": false,
      "inputs": [
        {
          "indexed": true,
          "internalType": "address",
          "name": "owner",
          "type": "address"
        },
        {
          "indexed": true,
          "internalType": "address payable[]",
          "name": "delegated",
          "type": "address[]"
        },
        {
          "indexed": true,
          "internalType": "address payable[]",
          "name": "receivers",
          "type": "address[]"
        }
      ],
      "name": "delegationConfirmed",
      "type": "event"
    },
    {
      "stateMutability": "payable",
      "type": "fallback"
    },
    {
      "inputs": [
        {
          "internalType": "address payable",
          "name": "_newDelegate",
          "type": "address"
        },
        {
          "internalType": "address payable",
          "name": "_contractAddress",
          "type": "address"
        }
      ],
      "name": "addDelegated",
      "outputs": [],
      "stateMutability": "nonpayable",
      "type": "function"
    },
    {
      "inputs": [
        {
          "internalType": "address payable",
          "name": "_rx",
          "type": "address"
        },
        {
          "internalType": "address payable",
          "name": "_contractAddress",
          "type": "address"
        }
      ],
      "name": "addReceiver",
      "outputs": [],
      "stateMutability": "nonpayable",
      "type": "function"
    },
    {
      "inputs": [
        {
          "internalType": "address",
          "name": "",
          "type": "address"
        }
      ],
      "name": "addressDelegated",
      "outputs": [
        {
          "internalType": "bool",
          "name": "",
          "type": "bool"
        }
      ],
      "stateMutability": "view",
      "type": "function"
    },
    {
      "inputs": [
        {
          "internalType": "address",
          "name": "",
          "type": "address"
        }
      ],
      "name": "addressReceived",
      "outputs": [
        {
          "internalType": "bool",
          "name": "",
          "type": "bool"
        }
      ],
      "stateMutability": "view",
      "type": "function"
    },
    {
      "inputs": [
        {
          "internalType": "address",
          "name": "",
          "type": "address"
        }
      ],
      "name": "amountOfContracts",
      "outputs": [
        {
          "internalType": "uint256",
          "name": "",
          "type": "uint256"
        }
      ],
      "stateMutability": "view",
      "type": "function"
    },
    {
      "inputs": [
        {
          "internalType": "address payable[]",
          "name": "_delegate",
          "type": "address[]"
        },
        {
          "internalType": "address payable[]",
          "name": "_allowedRx",
          "type": "address[]"
        },
        {
          "internalType": "uint256[]",
          "name": "_amountRx",
          "type": "uint256[]"
        }
      ],
      "name": "delegate",
      "outputs": [
        {
          "internalType": "address payable",
          "name": "",
          "type": "address"
        }
      ],
      "stateMutability": "nonpayable",
      "type": "function"
    },
    {
      "inputs": [
        {
          "internalType": "address payable",
          "name": "_delegate",
          "type": "address"
        },
        {
          "internalType": "address payable",
          "name": "_contractAddress",
          "type": "address"
        }
      ],
      "name": "deleteDelegate",
      "outputs": [],
      "stateMutability": "nonpayable",
      "type": "function"
    },
    {
      "inputs": [
        {
          "internalType": "address payable",
          "name": "_rx",
          "type": "address"
        },
        {
          "internalType": "address payable",
          "name": "_contractAddress",
          "type": "address"
        }
      ],
      "name": "deleteReceiver",
      "outputs": [],
      "stateMutability": "nonpayable",
      "type": "function"
    },
    {
      "inputs": [
        {
          "internalType": "address payable",
          "name": "_rxContract",
          "type": "address"
        }
      ],
      "name": "fundContract",
      "outputs": [
        {
          "internalType": "bool",
          "name": "success",
          "type": "bool"
        }
      ],
      "stateMutability": "payable",
      "type": "function"
    },
    {
      "inputs": [
        {
          "internalType": "address payable",
          "name": "owner",
          "type": "address"
        }
      ],
      "name": "getLastDelegateContract",
      "outputs": [
        {
          "internalType": "address",
          "name": "",
          "type": "address"
        }
      ],
      "stateMutability": "view",
      "type": "function"
    },
    {
      "inputs": [
        {
          "internalType": "address",
          "name": "",
          "type": "address"
        }
      ],
      "name": "ownerOfContract",
      "outputs": [
        {
          "internalType": "address",
          "name": "",
          "type": "address"
        }
      ],
      "stateMutability": "view",
      "type": "function"
    },
    {
      "inputs": [
        {
          "internalType": "address",
          "name": "",
          "type": "address"
        },
        {
          "internalType": "uint256",
          "name": "",
          "type": "uint256"
        }
      ],
      "name": "ownerToContract",
      "outputs": [
        {
          "internalType": "address",
          "name": "",
          "type": "address"
        }
      ],
      "stateMutability": "view",
      "type": "function"
    },
    {
      "stateMutability": "payable",
      "type": "receive"
    }
  ],
  "transactionHash": "0xef7f4222478d9c5260b1fba13abd047b9cad15f28133fc222f6e16bfce0a9ed8",
  "args": [],
  "numDeployments": 1,
  "solcInputHash": "a4c2be387a4c6f198169516d4ca59547",
  "bytecode": "0x608060405234801561001057600080fd5b50613979806100206000396000f3fe608060405260043610620000bb5760003560e01c80637bffeeb7116200006d5780637bffeeb7146200020557806384fdbd9b14620002495780638fb1642e146200028d578063e1b9819614620002d1578063e2e16e751462000315578063f28ae407146200034b57620000c3565b80630cd1e98814620000c55780633f00af1414620001095780634101f89b1462000137578063471b3d9614620001655780636d01460514620001935780637aee9f9614620001c157620000c3565b36620000c357005b005b348015620000d257600080fd5b50620000f16004803603810190620000eb91906200150f565b6200038f565b6040516200010091906200155e565b60405180910390f35b3480156200011657600080fd5b506200013560048036038101906200012f9190620015c0565b620003af565b005b3480156200014457600080fd5b506200016360048036038101906200015d9190620015c0565b620005e1565b005b3480156200017257600080fd5b506200019160048036038101906200018b9190620015c0565b62000813565b005b348015620001a057600080fd5b50620001bf6004803603810190620001b99190620015c0565b62000a48565b005b348015620001ce57600080fd5b50620001ed6004803603810190620001e7919062001607565b62000c7d565b604051620001fc91906200164a565b60405180910390f35b3480156200021257600080fd5b506200023160048036038101906200022b9190620016a2565b62000e9d565b6040516200024091906200164a565b60405180910390f35b3480156200025657600080fd5b506200027560048036038101906200026f91906200150f565b62000edf565b6040516200028491906200164a565b60405180910390f35b3480156200029a57600080fd5b50620002b96004803603810190620002b39190620017b6565b62000f12565b604051620002c891906200188d565b60405180910390f35b348015620002de57600080fd5b50620002fd6004803603810190620002f791906200150f565b620012ce565b6040516200030c9190620018bb565b60405180910390f35b6200033360048036038101906200032d919062001607565b620012e6565b6040516200034291906200155e565b60405180910390f35b3480156200035857600080fd5b506200037760048036038101906200037191906200150f565b62001472565b6040516200038691906200155e565b60405180910390f35b60046020528060005260406000206000915054906101000a900460ff1681565b803373ffffffffffffffffffffffffffffffffffffffff16600260008373ffffffffffffffffffffffffffffffffffffffff1673ffffffffffffffffffffffffffffffffffffffff16815260200190815260200160002060009054906101000a900473ffffffffffffffffffffffffffffffffffffffff1673ffffffffffffffffffffffffffffffffffffffff161462000480576040517f08c379a000000000000000000000000000000000000000000000000000000000815260040162000477906200195f565b60405180910390fd5b600460008473ffffffffffffffffffffffffffffffffffffffff1673ffffffffffffffffffffffffffffffffffffffff16815260200190815260200160002060009054906101000a900460ff166200050f576040517f08c379a00000000000000000000000000000000000000000000000000000000081526004016200050690620019f7565b60405180910390fd5b60008290508073ffffffffffffffffffffffffffffffffffffffff16638da5f385856040518263ffffffff1660e01b81526004016200054f91906200188d565b600060405180830381600087803b1580156200056a57600080fd5b505af11580156200057f573d6000803e3d6000fd5b505050506000600460008673ffffffffffffffffffffffffffffffffffffffff1673ffffffffffffffffffffffffffffffffffffffff16815260200190815260200160002060006101000a81548160ff02191690831515021790555050505050565b803373ffffffffffffffffffffffffffffffffffffffff16600260008373ffffffffffffffffffffffffffffffffffffffff1673ffffffffffffffffffffffffffffffffffffffff16815260200190815260200160002060009054906101000a900473ffffffffffffffffffffffffffffffffffffffff1673ffffffffffffffffffffffffffffffffffffffff1614620006b2576040517f08c379a0000000000000000000000000000000000000000000000000000000008152600401620006a9906200195f565b60405180910390fd5b600460008473ffffffffffffffffffffffffffffffffffffffff1673ffffffffffffffffffffffffffffffffffffffff16815260200190815260200160002060009054906101000a900460ff1662000741576040517f08c379a00000000000000000000000000000000000000000000000000000000081526004016200073890620019f7565b60405180910390fd5b60008290508073ffffffffffffffffffffffffffffffffffffffff16638cca85f3856040518263ffffffff1660e01b81526004016200078191906200188d565b600060405180830381600087803b1580156200079c57600080fd5b505af1158015620007b1573d6000803e3d6000fd5b505050506000600360008673ffffffffffffffffffffffffffffffffffffffff1673ffffffffffffffffffffffffffffffffffffffff16815260200190815260200160002060006101000a81548160ff02191690831515021790555050505050565b803373ffffffffffffffffffffffffffffffffffffffff16600260008373ffffffffffffffffffffffffffffffffffffffff1673ffffffffffffffffffffffffffffffffffffffff16815260200190815260200160002060009054906101000a900473ffffffffffffffffffffffffffffffffffffffff1673ffffffffffffffffffffffffffffffffffffffff1614620008e4576040517f08c379a0000000000000000000000000000000000000000000000000000000008152600401620008db906200195f565b60405180910390fd5b82600460008273ffffffffffffffffffffffffffffffffffffffff1673ffffffffffffffffffffffffffffffffffffffff16815260200190815260200160002060009054906101000a900460ff161562000975576040517f08c379a00000000000000000000000000000000000000000000000000000000081526004016200096c9062001a8f565b60405180910390fd5b60008390508073ffffffffffffffffffffffffffffffffffffffff166363312a49866040518263ffffffff1660e01b8152600401620009b591906200188d565b600060405180830381600087803b158015620009d057600080fd5b505af1158015620009e5573d6000803e3d6000fd5b505050506001600460008773ffffffffffffffffffffffffffffffffffffffff1673ffffffffffffffffffffffffffffffffffffffff16815260200190815260200160002060006101000a81548160ff0219169083151502179055505050505050565b803373ffffffffffffffffffffffffffffffffffffffff16600260008373ffffffffffffffffffffffffffffffffffffffff1673ffffffffffffffffffffffffffffffffffffffff16815260200190815260200160002060009054906101000a900473ffffffffffffffffffffffffffffffffffffffff1673ffffffffffffffffffffffffffffffffffffffff161462000b19576040517f08c379a000000000000000000000000000000000000000000000000000000000815260040162000b10906200195f565b60405180910390fd5b82600360008273ffffffffffffffffffffffffffffffffffffffff1673ffffffffffffffffffffffffffffffffffffffff16815260200190815260200160002060009054906101000a900460ff161562000baa576040517f08c379a000000000000000000000000000000000000000000000000000000000815260040162000ba19062001b27565b60405180910390fd5b60008390508073ffffffffffffffffffffffffffffffffffffffff16638448fc6f866040518263ffffffff1660e01b815260040162000bea91906200188d565b600060405180830381600087803b15801562000c0557600080fd5b505af115801562000c1a573d6000803e3d6000fd5b505050506001600360008773ffffffffffffffffffffffffffffffffffffffff1673ffffffffffffffffffffffffffffffffffffffff16815260200190815260200160002060006101000a81548160ff0219169083151502179055505050505050565b60008073ffffffffffffffffffffffffffffffffffffffff166000808473ffffffffffffffffffffffffffffffffffffffff1673ffffffffffffffffffffffffffffffffffffffff168152602001908152602001600020600080815260200190815260200160002060009054906101000a900473ffffffffffffffffffffffffffffffffffffffff1673ffffffffffffffffffffffffffffffffffffffff160362000d5f576040517f08c379a000000000000000000000000000000000000000000000000000000000815260040162000d569062001b99565b60405180910390fd5b600080600090505b600073ffffffffffffffffffffffffffffffffffffffff166000808673ffffffffffffffffffffffffffffffffffffffff1673ffffffffffffffffffffffffffffffffffffffff168152602001908152602001600020600083815260200190815260200160002060009054906101000a900473ffffffffffffffffffffffffffffffffffffffff1673ffffffffffffffffffffffffffffffffffffffff161462000e2457809150808062000e1b9062001bea565b91505062000d67565b506000808473ffffffffffffffffffffffffffffffffffffffff1673ffffffffffffffffffffffffffffffffffffffff168152602001908152602001600020600082815260200190815260200160002060009054906101000a900473ffffffffffffffffffffffffffffffffffffffff16915050919050565b60006020528160005260406000206020528060005260406000206000915091509054906101000a900473ffffffffffffffffffffffffffffffffffffffff1681565b60026020528060005260406000206000915054906101000a900473ffffffffffffffffffffffffffffffffffffffff1681565b6000803388888888888860405162000f2a9062001492565b62000f3c979695949392919062001d8e565b604051809103906000f08015801562000f59573d6000803e3d6000fd5b5090506000819050806000803373ffffffffffffffffffffffffffffffffffffffff1673ffffffffffffffffffffffffffffffffffffffff1681526020019081526020016000206000600160003373ffffffffffffffffffffffffffffffffffffffff1673ffffffffffffffffffffffffffffffffffffffff16815260200190815260200160002054815260200190815260200160002060006101000a81548173ffffffffffffffffffffffffffffffffffffffff021916908373ffffffffffffffffffffffffffffffffffffffff16021790555060018060003373ffffffffffffffffffffffffffffffffffffffff1673ffffffffffffffffffffffffffffffffffffffff16815260200190815260200160002060008282546200107f919062001df6565b9250508190555033600260008373ffffffffffffffffffffffffffffffffffffffff1673ffffffffffffffffffffffffffffffffffffffff16815260200190815260200160002060006101000a81548173ffffffffffffffffffffffffffffffffffffffff021916908373ffffffffffffffffffffffffffffffffffffffff16021790555060005b89899050811015620011a5576001600360008c8c858181106200112f576200112e62001e31565b5b905060200201602081019062001146919062001607565b73ffffffffffffffffffffffffffffffffffffffff1673ffffffffffffffffffffffffffffffffffffffff16815260200190815260200160002060006101000a81548160ff021916908315150217905550808060010191505062001107565b5060005b8787905081101562001247576001600460008a8a85818110620011d157620011d062001e31565b5b9050602002016020810190620011e8919062001607565b73ffffffffffffffffffffffffffffffffffffffff1673ffffffffffffffffffffffffffffffffffffffff16815260200190815260200160002060006101000a81548160ff0219169083151502179055508080600101915050620011a9565b5086866040516200125a92919062001eff565b604051809103902089896040516200127492919062001eff565b60405180910390203373ffffffffffffffffffffffffffffffffffffffff167fe842615247b1a8ea11ff6df1dc80b9368145d8c88867eb222d035489f68e387260405160405180910390a480925050509695505050505050565b60016020528060005260406000206000915090505481565b6000813373ffffffffffffffffffffffffffffffffffffffff16600260008373ffffffffffffffffffffffffffffffffffffffff1673ffffffffffffffffffffffffffffffffffffffff16815260200190815260200160002060009054906101000a900473ffffffffffffffffffffffffffffffffffffffff1673ffffffffffffffffffffffffffffffffffffffff1614620013b9576040517f08c379a0000000000000000000000000000000000000000000000000000000008152600401620013b0906200195f565b60405180910390fd5b8273ffffffffffffffffffffffffffffffffffffffff1634604051620013df9062001f4f565b60006040518083038185875af1925050503d80600081146200141e576040519150601f19603f3d011682016040523d82523d6000602084013e62001423565b606091505b505080925050816200146c576040517f08c379a0000000000000000000000000000000000000000000000000000000008152600401620014639062001fb6565b60405180910390fd5b50919050565b60036020528060005260406000206000915054906101000a900460ff1681565b61196b8062001fd983390190565b600080fd5b600080fd5b600073ffffffffffffffffffffffffffffffffffffffff82169050919050565b6000620014d782620014aa565b9050919050565b620014e981620014ca565b8114620014f557600080fd5b50565b6000813590506200150981620014de565b92915050565b600060208284031215620015285762001527620014a0565b5b60006200153884828501620014f8565b91505092915050565b60008115159050919050565b620015588162001541565b82525050565b60006020820190506200157560008301846200154d565b92915050565b60006200158882620014aa565b9050919050565b6200159a816200157b565b8114620015a657600080fd5b50565b600081359050620015ba816200158f565b92915050565b60008060408385031215620015da57620015d9620014a0565b5b6000620015ea85828601620015a9565b9250506020620015fd85828601620015a9565b9150509250929050565b60006020828403121562001620576200161f620014a0565b5b60006200163084828501620015a9565b91505092915050565b6200164481620014ca565b82525050565b600060208201905062001661600083018462001639565b92915050565b6000819050919050565b6200167c8162001667565b81146200168857600080fd5b50565b6000813590506200169c8162001671565b92915050565b60008060408385031215620016bc57620016bb620014a0565b5b6000620016cc85828601620014f8565b9250506020620016df858286016200168b565b9150509250929050565b600080fd5b600080fd5b600080fd5b60008083601f840112620017115762001710620016e9565b5b8235905067ffffffffffffffff811115620017315762001730620016ee565b5b60208301915083602082028301111562001750576200174f620016f3565b5b9250929050565b60008083601f84011262001770576200176f620016e9565b5b8235905067ffffffffffffffff81111562001790576200178f620016ee565b5b602083019150836020820283011115620017af57620017ae620016f3565b5b9250929050565b60008060008060008060608789031215620017d657620017d5620014a0565b5b600087013567ffffffffffffffff811115620017f757620017f6620014a5565b5b6200180589828a01620016f8565b9650965050602087013567ffffffffffffffff8111156200182b576200182a620014a5565b5b6200183989828a01620016f8565b9450945050604087013567ffffffffffffffff8111156200185f576200185e620014a5565b5b6200186d89828a0162001757565b92509250509295509295509295565b62001887816200157b565b82525050565b6000602082019050620018a460008301846200187c565b92915050565b620018b58162001667565b82525050565b6000602082019050620018d26000830184620018aa565b92915050565b600082825260208201905092915050565b7f4f6e6c79206f776e65722063616e2063616c6c20746869732066756e6374696f60008201527f6e00000000000000000000000000000000000000000000000000000000000000602082015250565b600062001947602183620018d8565b91506200195482620018e9565b604082019050919050565b600060208201905081810360008301526200197a8162001938565b9050919050565b7f43616e27742064656c657465207265636569766572207468617420686173206e60008201527f6f74206265656e20617070656e6465642e000000000000000000000000000000602082015250565b6000620019df603183620018d8565b9150620019ec8262001981565b604082019050919050565b6000602082019050818103600083015262001a1281620019d0565b9050919050565b7f41646472657373206f662072656365697665722068617320616c72656164792060008201527f6265656e20617070656e646564202d206e6f2072652d7570732e000000000000602082015250565b600062001a77603a83620018d8565b915062001a848262001a19565b604082019050919050565b6000602082019050818103600083015262001aaa8162001a68565b9050919050565b7f4164647265737320616c72656164792064656c656761746564202d206e6f207260008201527f652d7570732e0000000000000000000000000000000000000000000000000000602082015250565b600062001b0f602683620018d8565b915062001b1c8262001ab1565b604082019050919050565b6000602082019050818103600083015262001b428162001b00565b9050919050565b7f4e6f70652e000000000000000000000000000000000000000000000000000000600082015250565b600062001b81600583620018d8565b915062001b8e8262001b49565b602082019050919050565b6000602082019050818103600083015262001bb48162001b72565b9050919050565b7f4e487b7100000000000000000000000000000000000000000000000000000000600052601160045260246000fd5b600062001bf78262001667565b91507fffffffffffffffffffffffffffffffffffffffffffffffffffffffffffffffff820362001c2c5762001c2b62001bbb565b5b600182019050919050565b600082825260208201905092915050565b6000819050919050565b62001c5d816200157b565b82525050565b600062001c71838362001c52565b60208301905092915050565b600062001c8e6020840184620015a9565b905092915050565b6000602082019050919050565b600062001cb1838562001c37565b935062001cbe8262001c48565b8060005b8581101562001cff5762001cd7828462001c7d565b62001ce3888262001c63565b975062001cf08362001c96565b92505060018101905062001cc2565b5085925050509392505050565b600082825260208201905092915050565b600080fd5b82818337505050565b600062001d39838562001d0c565b93507f07ffffffffffffffffffffffffffffffffffffffffffffffffffffffffffffff83111562001d6f5762001d6e62001d1d565b5b60208302925062001d8283858462001d22565b82840190509392505050565b600060808201905062001da5600083018a6200187c565b818103602083015262001dba81888a62001ca3565b9050818103604083015262001dd181868862001ca3565b9050818103606083015262001de881848662001d2b565b905098975050505050505050565b600062001e038262001667565b915062001e108362001667565b925082820190508082111562001e2b5762001e2a62001bbb565b5b92915050565b7f4e487b7100000000000000000000000000000000000000000000000000000000600052603260045260246000fd5b600081905092915050565b62001e76816200157b565b82525050565b600062001e8a838362001e6b565b60208301905092915050565b600062001ea4838562001e60565b935062001eb18262001c48565b8060005b8581101562001ef25762001eca828462001c7d565b62001ed6888262001e7c565b975062001ee38362001c96565b92505060018101905062001eb5565b5085925050509392505050565b600062001f0e82848662001e96565b91508190509392505050565b600081905092915050565b50565b600062001f3760008362001f1a565b915062001f448262001f25565b600082019050919050565b600062001f5c8262001f28565b9150819050919050565b7f5472616e73616374696f6e204661696c6564206d7920736f6e00000000000000600082015250565b600062001f9e601983620018d8565b915062001fab8262001f66565b602082019050919050565b6000602082019050818103600083015262001fd18162001f8f565b905091905056fe60c06040523480156200001157600080fd5b506040516200196b3803806200196b8339818101604052810190620000379190620006ea565b3373ffffffffffffffffffffffffffffffffffffffff1660a08173ffffffffffffffffffffffffffffffffffffffff16815250508373ffffffffffffffffffffffffffffffffffffffff1660808173ffffffffffffffffffffffffffffffffffffffff16815250508260009080519060200190620000b79291906200033d565b508160019080519060200190620000d09291906200033d565b5060005b81518110156200024057818181518110620000f457620000f3620007b9565b5b602002602001015160026000858481518110620001165762000115620007b9565b5b602002602001015173ffffffffffffffffffffffffffffffffffffffff1673ffffffffffffffffffffffffffffffffffffffff16815260200190815260200160002081905550600160036000858481518110620001785762000177620007b9565b5b602002602001015173ffffffffffffffffffffffffffffffffffffffff1673ffffffffffffffffffffffffffffffffffffffff16815260200190815260200160002060006101000a81548160ff0219169083151502179055508060046000858481518110620001ec57620001eb620007b9565b5b602002602001015173ffffffffffffffffffffffffffffffffffffffff1673ffffffffffffffffffffffffffffffffffffffff168152602001908152602001600020819055508080600101915050620000d4565b5060005b835181101562000332576001600660008684815181106200026a5762000269620007b9565b5b602002602001015173ffffffffffffffffffffffffffffffffffffffff1673ffffffffffffffffffffffffffffffffffffffff16815260200190815260200160002060006101000a81548160ff0219169083151502179055508060056000868481518110620002de57620002dd620007b9565b5b602002602001015173ffffffffffffffffffffffffffffffffffffffff1673ffffffffffffffffffffffffffffffffffffffff16815260200190815260200160002081905550808060010191505062000244565b5050505050620007e8565b828054828255906000526020600020908101928215620003b9579160200282015b82811115620003b85782518260006101000a81548173ffffffffffffffffffffffffffffffffffffffff021916908373ffffffffffffffffffffffffffffffffffffffff160217905550916020019190600101906200035e565b5b509050620003c89190620003cc565b5090565b5b80821115620003e7576000816000905550600101620003cd565b5090565b6000604051905090565b600080fd5b600080fd5b600073ffffffffffffffffffffffffffffffffffffffff82169050919050565b60006200042c82620003ff565b9050919050565b6200043e816200041f565b81146200044a57600080fd5b50565b6000815190506200045e8162000433565b92915050565b600080fd5b6000601f19601f8301169050919050565b7f4e487b7100000000000000000000000000000000000000000000000000000000600052604160045260246000fd5b620004b48262000469565b810181811067ffffffffffffffff82111715620004d657620004d56200047a565b5b80604052505050565b6000620004eb620003eb565b9050620004f98282620004a9565b919050565b600067ffffffffffffffff8211156200051c576200051b6200047a565b5b602082029050602081019050919050565b600080fd5b6000620005496200054384620004fe565b620004df565b905080838252602082019050602084028301858111156200056f576200056e6200052d565b5b835b818110156200059c57806200058788826200044d565b84526020840193505060208101905062000571565b5050509392505050565b600082601f830112620005be57620005bd62000464565b5b8151620005d084826020860162000532565b91505092915050565b600067ffffffffffffffff821115620005f757620005f66200047a565b5b602082029050602081019050919050565b6000819050919050565b6200061d8162000608565b81146200062957600080fd5b50565b6000815190506200063d8162000612565b92915050565b60006200065a6200065484620005d9565b620004df565b9050808382526020820190506020840283018581111562000680576200067f6200052d565b5b835b81811015620006ad57806200069888826200062c565b84526020840193505060208101905062000682565b5050509392505050565b600082601f830112620006cf57620006ce62000464565b5b8151620006e184826020860162000643565b91505092915050565b60008060008060808587031215620007075762000706620003f5565b5b600062000717878288016200044d565b945050602085015167ffffffffffffffff8111156200073b576200073a620003fa565b5b6200074987828801620005a6565b935050604085015167ffffffffffffffff8111156200076d576200076c620003fa565b5b6200077b87828801620005a6565b925050606085015167ffffffffffffffff8111156200079f576200079e620003fa565b5b620007ad87828801620006b7565b91505092959194509250565b7f4e487b7100000000000000000000000000000000000000000000000000000000600052603260045260246000fd5b60805160a0516111416200082a6000396000818161043801528181610584015281816105a8015281816106f401526107850152600061084601526111416000f3fe6080604052600436106100e15760003560e01c80638da5f3851161007f578063ce9b793011610059578063ce9b7930146102ea578063e717513b14610315578063ea31dbbd14610352578063f3d558f114610382576100e8565b80638da5f38514610247578063c723bd3814610270578063cd86dadc146102ad576100e8565b806363312a49116100bb57806363312a49146101a1578063764cce81146101ca5780638448fc6f146101f55780638cca85f31461021e576100e8565b806318e44a49146100ea5780633e28391d146101275780635bdfd65314610164576100e8565b366100e857005b005b3480156100f657600080fd5b50610111600480360381019061010c9190610bac565b6103bf565b60405161011e9190610c1a565b60405180910390f35b34801561013357600080fd5b5061014e60048036038101906101499190610c73565b6103fe565b60405161015b9190610cbb565b60405180910390f35b34801561017057600080fd5b5061018b60048036038101906101869190610c73565b61041e565b6040516101989190610ce5565b60405180910390f35b3480156101ad57600080fd5b506101c860048036038101906101c39190610d2c565b610436565b005b3480156101d657600080fd5b506101df610582565b6040516101ec9190610d68565b60405180910390f35b34801561020157600080fd5b5061021c60048036038101906102179190610d2c565b6105a6565b005b34801561022a57600080fd5b5061024560048036038101906102409190610d2c565b6106f2565b005b34801561025357600080fd5b5061026e60048036038101906102699190610d2c565b610783565b005b34801561027c57600080fd5b5061029760048036038101906102929190610c73565b610814565b6040516102a49190610ce5565b60405180910390f35b3480156102b957600080fd5b506102d460048036038101906102cf9190610c73565b61082c565b6040516102e19190610ce5565b60405180910390f35b3480156102f657600080fd5b506102ff610844565b60405161030c9190610d68565b60405180910390f35b34801561032157600080fd5b5061033c60048036038101906103379190610c73565b610868565b6040516103499190610cbb565b60405180910390f35b61036c60048036038101906103679190610d83565b610888565b6040516103799190610cbb565b60405180910390f35b34801561038e57600080fd5b506103a960048036038101906103a49190610bac565b610b32565b6040516103b69190610c1a565b60405180910390f35b600081815481106103cf57600080fd5b906000526020600020016000915054906101000a900473ffffffffffffffffffffffffffffffffffffffff1681565b60066020528060005260406000206000915054906101000a900460ff1681565b60046020528060005260406000206000915090505481565b7f000000000000000000000000000000000000000000000000000000000000000073ffffffffffffffffffffffffffffffffffffffff163373ffffffffffffffffffffffffffffffffffffffff16146104c4576040517f08c379a00000000000000000000000000000000000000000000000000000000081526004016104bb90610e46565b60405180910390fd5b6001819080600181540180825580915050600190039060005260206000200160009091909190916101000a81548173ffffffffffffffffffffffffffffffffffffffff021916908373ffffffffffffffffffffffffffffffffffffffff1602179055506001600360008373ffffffffffffffffffffffffffffffffffffffff1673ffffffffffffffffffffffffffffffffffffffff16815260200190815260200160002060006101000a81548160ff02191690831515021790555050565b7f000000000000000000000000000000000000000000000000000000000000000081565b7f000000000000000000000000000000000000000000000000000000000000000073ffffffffffffffffffffffffffffffffffffffff163373ffffffffffffffffffffffffffffffffffffffff1614610634576040517f08c379a000000000000000000000000000000000000000000000000000000000815260040161062b90610e46565b60405180910390fd5b6000819080600181540180825580915050600190039060005260206000200160009091909190916101000a81548173ffffffffffffffffffffffffffffffffffffffff021916908373ffffffffffffffffffffffffffffffffffffffff1602179055506001600660008373ffffffffffffffffffffffffffffffffffffffff1673ffffffffffffffffffffffffffffffffffffffff16815260200190815260200160002060006101000a81548160ff02191690831515021790555050565b7f000000000000000000000000000000000000000000000000000000000000000073ffffffffffffffffffffffffffffffffffffffff163373ffffffffffffffffffffffffffffffffffffffff1614610780576040517f08c379a000000000000000000000000000000000000000000000000000000000815260040161077790610e46565b60405180910390fd5b50565b7f000000000000000000000000000000000000000000000000000000000000000073ffffffffffffffffffffffffffffffffffffffff163373ffffffffffffffffffffffffffffffffffffffff1614610811576040517f08c379a000000000000000000000000000000000000000000000000000000000815260040161080890610e46565b60405180910390fd5b50565b60056020528060005260406000206000915090505481565b60026020528060005260406000206000915090505481565b7f000000000000000000000000000000000000000000000000000000000000000081565b60036020528060005260406000206000915054906101000a900460ff1681565b6000600660003373ffffffffffffffffffffffffffffffffffffffff1673ffffffffffffffffffffffffffffffffffffffff16815260200190815260200160002060009054906101000a900460ff16610916576040517f08c379a000000000000000000000000000000000000000000000000000000000815260040161090d90610ed8565b60405180910390fd5b82600360008273ffffffffffffffffffffffffffffffffffffffff1673ffffffffffffffffffffffffffffffffffffffff16815260200190815260200160002060009054906101000a900460ff166109a3576040517f08c379a000000000000000000000000000000000000000000000000000000000815260040161099a90610f6a565b60405180910390fd5b8284600260008273ffffffffffffffffffffffffffffffffffffffff1673ffffffffffffffffffffffffffffffffffffffff16815260200190815260200160002054821115610a27576040517f08c379a0000000000000000000000000000000000000000000000000000000008152600401610a1e90610fd6565b60405180910390fd5b8573ffffffffffffffffffffffffffffffffffffffff1685604051610a4b90611027565b60006040518083038185875af1925050503d8060008114610a88576040519150601f19603f3d011682016040523d82523d6000602084013e610a8d565b606091505b50508094505083610ad3576040517f08c379a0000000000000000000000000000000000000000000000000000000008152600401610aca90611088565b60405180910390fd5b84600260008873ffffffffffffffffffffffffffffffffffffffff1673ffffffffffffffffffffffffffffffffffffffff1681526020019081526020016000206000828254610b2291906110d7565b9250508190555050505092915050565b60018181548110610b4257600080fd5b906000526020600020016000915054906101000a900473ffffffffffffffffffffffffffffffffffffffff1681565b600080fd5b6000819050919050565b610b8981610b76565b8114610b9457600080fd5b50565b600081359050610ba681610b80565b92915050565b600060208284031215610bc257610bc1610b71565b5b6000610bd084828501610b97565b91505092915050565b600073ffffffffffffffffffffffffffffffffffffffff82169050919050565b6000610c0482610bd9565b9050919050565b610c1481610bf9565b82525050565b6000602082019050610c2f6000830184610c0b565b92915050565b6000610c4082610bd9565b9050919050565b610c5081610c35565b8114610c5b57600080fd5b50565b600081359050610c6d81610c47565b92915050565b600060208284031215610c8957610c88610b71565b5b6000610c9784828501610c5e565b91505092915050565b60008115159050919050565b610cb581610ca0565b82525050565b6000602082019050610cd06000830184610cac565b92915050565b610cdf81610b76565b82525050565b6000602082019050610cfa6000830184610cd6565b92915050565b610d0981610bf9565b8114610d1457600080fd5b50565b600081359050610d2681610d00565b92915050565b600060208284031215610d4257610d41610b71565b5b6000610d5084828501610d17565b91505092915050565b610d6281610c35565b82525050565b6000602082019050610d7d6000830184610d59565b92915050565b60008060408385031215610d9a57610d99610b71565b5b6000610da885828601610d17565b9250506020610db985828601610b97565b9150509250929050565b600082825260208201905092915050565b7f4f6e6c7920726f6f7420636f6e7472616374202d206e6f7420616c6c6f77656460008201527f2e00000000000000000000000000000000000000000000000000000000000000602082015250565b6000610e30602183610dc3565b9150610e3b82610dd4565b604082019050919050565b60006020820190508181036000830152610e5f81610e23565b9050919050565b7f54686973206163636f756e74206973206e6f742064656c656761746564202d2060008201527f7065726d697373696f6e2064656e6965642e0000000000000000000000000000602082015250565b6000610ec2603283610dc3565b9150610ecd82610e66565b604082019050919050565b60006020820190508181036000830152610ef181610eb5565b9050919050565b7f5265636569766572206973206e6f7420616c6c6f776564202d2074616c6b207460008201527f6f2064656c656761746f722e2000000000000000000000000000000000000000602082015250565b6000610f54602d83610dc3565b9150610f5f82610ef8565b604082019050919050565b60006020820190508181036000830152610f8381610f47565b9050919050565b7f53757270617373657320616c6c6f776564206275676465740000000000000000600082015250565b6000610fc0601883610dc3565b9150610fcb82610f8a565b602082019050919050565b60006020820190508181036000830152610fef81610fb3565b9050919050565b600081905092915050565b50565b6000611011600083610ff6565b915061101c82611001565b600082019050919050565b600061103282611004565b9150819050919050565b7f5472616e73666572206661696c65640000000000000000000000000000000000600082015250565b6000611072600f83610dc3565b915061107d8261103c565b602082019050919050565b600060208201905081810360008301526110a181611065565b9050919050565b7f4e487b7100000000000000000000000000000000000000000000000000000000600052601160045260246000fd5b60006110e282610b76565b91506110ed83610b76565b9250828203905081811115611105576111046110a8565b5b9291505056fea26469706673582212204ad7fd694e80884c8222d7354e77f36f10d2ac32b9d2093f27f98ea4087a2be964736f6c63430008180033a2646970667358221220beda2846743d4fb89bb3f664e188f84863a3c9e3d4a162cf55143cb6093db05a64736f6c63430008180033",
  "devdoc": {
    "kind": "dev",
    "methods": {},
    "version": 1
  },
  "userdoc": {
    "kind": "user",
    "methods": {},
    "version": 1
  },
  "storageLayout": {
    "storage": [
      {
        "astId": 8,
        "contract": "contracts/Main.sol:Main",
        "label": "ownerToContract",
        "offset": 0,
        "slot": "0",
        "type": "t_mapping(t_address,t_mapping(t_uint256,t_address))"
      },
      {
        "astId": 12,
        "contract": "contracts/Main.sol:Main",
        "label": "amountOfContracts",
        "offset": 0,
        "slot": "1",
        "type": "t_mapping(t_address,t_uint256)"
      },
      {
        "astId": 16,
        "contract": "contracts/Main.sol:Main",
        "label": "ownerOfContract",
        "offset": 0,
        "slot": "2",
        "type": "t_mapping(t_address,t_address)"
      },
      {
        "astId": 20,
        "contract": "contracts/Main.sol:Main",
        "label": "addressDelegated",
        "offset": 0,
        "slot": "3",
        "type": "t_mapping(t_address,t_bool)"
      },
      {
        "astId": 24,
        "contract": "contracts/Main.sol:Main",
        "label": "addressReceived",
        "offset": 0,
        "slot": "4",
        "type": "t_mapping(t_address,t_bool)"
      }
    ],
    "types": {
      "t_address": {
        "encoding": "inplace",
        "label": "address",
        "numberOfBytes": "20"
      },
      "t_bool": {
        "encoding": "inplace",
        "label": "bool",
        "numberOfBytes": "1"
      },
      "t_mapping(t_address,t_address)": {
        "encoding": "mapping",
        "key": "t_address",
        "label": "mapping(address => address)",
        "numberOfBytes": "32",
        "value": "t_address"
      },
      "t_mapping(t_address,t_bool)": {
        "encoding": "mapping",
        "key": "t_address",
        "label": "mapping(address => bool)",
        "numberOfBytes": "32",
        "value": "t_bool"
      },
      "t_mapping(t_address,t_mapping(t_uint256,t_address))": {
        "encoding": "mapping",
        "key": "t_address",
        "label": "mapping(address => mapping(uint256 => address))",
        "numberOfBytes": "32",
        "value": "t_mapping(t_uint256,t_address)"
      },
      "t_mapping(t_address,t_uint256)": {
        "encoding": "mapping",
        "key": "t_address",
        "label": "mapping(address => uint256)",
        "numberOfBytes": "32",
        "value": "t_uint256"
      },
      "t_mapping(t_uint256,t_address)": {
        "encoding": "mapping",
        "key": "t_uint256",
        "label": "mapping(uint256 => address)",
        "numberOfBytes": "32",
        "value": "t_address"
      },
      "t_uint256": {
        "encoding": "inplace",
        "label": "uint256",
        "numberOfBytes": "32"
      }
    }
  }
}